{
  "contractName": "BIAWhitelistedSale",
  "abi": [
    {
      "constant": false,
      "inputs": [
        {
          "name": "account",
          "type": "address"
        }
      ],
      "name": "addWhitelisted",
      "outputs": [],
      "payable": false,
      "stateMutability": "nonpayable",
      "type": "function"
    },
    {
      "constant": true,
      "inputs": [],
      "name": "hasClosed",
      "outputs": [
        {
          "name": "",
          "type": "bool"
        }
      ],
      "payable": false,
      "stateMutability": "view",
      "type": "function"
    },
    {
      "constant": false,
      "inputs": [
        {
          "name": "account",
          "type": "address"
        }
      ],
      "name": "removeWhitelisted",
      "outputs": [],
      "payable": false,
      "stateMutability": "nonpayable",
      "type": "function"
    },
    {
      "constant": true,
      "inputs": [],
      "name": "rate",
      "outputs": [
        {
          "name": "",
          "type": "uint256"
        }
      ],
      "payable": false,
      "stateMutability": "view",
      "type": "function"
    },
    {
      "constant": true,
      "inputs": [],
      "name": "cap",
      "outputs": [
        {
          "name": "",
          "type": "uint256"
        }
      ],
      "payable": false,
      "stateMutability": "view",
      "type": "function"
    },
    {
      "constant": true,
      "inputs": [
        {
          "name": "account",
          "type": "address"
        }
      ],
      "name": "isWhitelisted",
      "outputs": [
        {
          "name": "",
          "type": "bool"
        }
      ],
      "payable": false,
      "stateMutability": "view",
      "type": "function"
    },
    {
      "constant": true,
      "inputs": [],
      "name": "weiRaised",
      "outputs": [
        {
          "name": "",
          "type": "uint256"
        }
      ],
      "payable": false,
      "stateMutability": "view",
      "type": "function"
    },
    {
      "constant": true,
      "inputs": [
        {
          "name": "",
          "type": "address"
        }
      ],
      "name": "contributions",
      "outputs": [
        {
          "name": "",
          "type": "uint256"
        }
      ],
      "payable": false,
      "stateMutability": "view",
      "type": "function"
    },
    {
      "constant": true,
      "inputs": [],
      "name": "isOpen",
      "outputs": [
        {
          "name": "",
          "type": "bool"
        }
      ],
      "payable": false,
      "stateMutability": "view",
      "type": "function"
    },
    {
      "constant": true,
      "inputs": [],
      "name": "closingTime",
      "outputs": [
        {
          "name": "",
          "type": "uint256"
        }
      ],
      "payable": false,
      "stateMutability": "view",
      "type": "function"
    },
    {
      "constant": false,
      "inputs": [],
      "name": "renounceWhitelistAdmin",
      "outputs": [],
      "payable": false,
      "stateMutability": "nonpayable",
      "type": "function"
    },
    {
      "constant": true,
      "inputs": [],
      "name": "capReached",
      "outputs": [
        {
          "name": "",
          "type": "bool"
        }
      ],
      "payable": false,
      "stateMutability": "view",
      "type": "function"
    },
    {
      "constant": true,
      "inputs": [],
      "name": "wallet",
      "outputs": [
        {
          "name": "",
          "type": "address"
        }
      ],
      "payable": false,
      "stateMutability": "view",
      "type": "function"
    },
    {
      "constant": false,
      "inputs": [],
      "name": "renounceOwnership",
      "outputs": [],
      "payable": false,
      "stateMutability": "nonpayable",
      "type": "function"
    },
    {
      "constant": false,
      "inputs": [
        {
          "name": "account",
          "type": "address"
        }
      ],
      "name": "addWhitelistAdmin",
      "outputs": [],
      "payable": false,
      "stateMutability": "nonpayable",
      "type": "function"
    },
    {
      "constant": true,
      "inputs": [],
      "name": "owner",
      "outputs": [
        {
          "name": "",
          "type": "address"
        }
      ],
      "payable": false,
      "stateMutability": "view",
      "type": "function"
    },
    {
      "constant": true,
      "inputs": [],
      "name": "isOwner",
      "outputs": [
        {
          "name": "",
          "type": "bool"
        }
      ],
      "payable": false,
      "stateMutability": "view",
      "type": "function"
    },
    {
      "constant": true,
      "inputs": [],
      "name": "investorMinCap",
      "outputs": [
        {
          "name": "",
          "type": "uint256"
        }
      ],
      "payable": false,
      "stateMutability": "view",
      "type": "function"
    },
    {
      "constant": true,
      "inputs": [],
      "name": "openingTime",
      "outputs": [
        {
          "name": "",
          "type": "uint256"
        }
      ],
      "payable": false,
      "stateMutability": "view",
      "type": "function"
    },
    {
      "constant": true,
      "inputs": [
        {
          "name": "account",
          "type": "address"
        }
      ],
      "name": "isWhitelistAdmin",
      "outputs": [
        {
          "name": "",
          "type": "bool"
        }
      ],
      "payable": false,
      "stateMutability": "view",
      "type": "function"
    },
    {
      "constant": false,
      "inputs": [],
      "name": "renounceWhitelisted",
      "outputs": [],
      "payable": false,
      "stateMutability": "nonpayable",
      "type": "function"
    },
    {
      "constant": false,
      "inputs": [
        {
          "name": "beneficiary",
          "type": "address"
        }
      ],
      "name": "buyTokens",
      "outputs": [],
      "payable": true,
      "stateMutability": "payable",
      "type": "function"
    },
    {
      "constant": true,
      "inputs": [],
      "name": "investorHardCap",
      "outputs": [
        {
          "name": "",
          "type": "uint256"
        }
      ],
      "payable": false,
      "stateMutability": "view",
      "type": "function"
    },
    {
      "constant": false,
      "inputs": [
        {
          "name": "newOwner",
          "type": "address"
        }
      ],
      "name": "transferOwnership",
      "outputs": [],
      "payable": false,
      "stateMutability": "nonpayable",
      "type": "function"
    },
    {
      "constant": true,
      "inputs": [],
      "name": "token",
      "outputs": [
        {
          "name": "",
          "type": "address"
        }
      ],
      "payable": false,
      "stateMutability": "view",
      "type": "function"
    },
    {
      "inputs": [
        {
          "name": "rate",
          "type": "uint256"
        },
        {
          "name": "_wallet",
          "type": "address"
        },
        {
          "name": "_token",
          "type": "address"
        },
        {
          "name": "_cap",
          "type": "uint256"
        },
        {
          "name": "_openingTime",
          "type": "uint256"
        },
        {
          "name": "_closingTime",
          "type": "uint256"
        },
        {
          "name": "_releaseTime1",
          "type": "uint256"
        },
        {
          "name": "_releaseTime2",
          "type": "uint256"
        },
        {
          "name": "_releaseTime3",
          "type": "uint256"
        }
      ],
      "payable": false,
      "stateMutability": "nonpayable",
      "type": "constructor"
    },
    {
      "payable": true,
      "stateMutability": "payable",
      "type": "fallback"
    },
    {
      "anonymous": false,
      "inputs": [
        {
          "indexed": false,
          "name": "From",
          "type": "address"
        },
        {
          "indexed": false,
          "name": "burnValue",
          "type": "uint256"
        }
      ],
      "name": "Burn",
      "type": "event"
    },
    {
      "anonymous": false,
      "inputs": [
        {
          "indexed": true,
          "name": "previousOwner",
          "type": "address"
        },
        {
          "indexed": true,
          "name": "newOwner",
          "type": "address"
        }
      ],
      "name": "OwnershipTransferred",
      "type": "event"
    },
    {
      "anonymous": false,
      "inputs": [
        {
          "indexed": false,
          "name": "prevClosingTime",
          "type": "uint256"
        },
        {
          "indexed": false,
          "name": "newClosingTime",
          "type": "uint256"
        }
      ],
      "name": "TimedCrowdsaleExtended",
      "type": "event"
    },
    {
      "anonymous": false,
      "inputs": [
        {
          "indexed": true,
          "name": "purchaser",
          "type": "address"
        },
        {
          "indexed": true,
          "name": "beneficiary",
          "type": "address"
        },
        {
          "indexed": false,
          "name": "value",
          "type": "uint256"
        },
        {
          "indexed": false,
          "name": "amount",
          "type": "uint256"
        }
      ],
      "name": "TokensPurchased",
      "type": "event"
    },
    {
      "anonymous": false,
      "inputs": [
        {
          "indexed": true,
          "name": "account",
          "type": "address"
        }
      ],
      "name": "WhitelistedAdded",
      "type": "event"
    },
    {
      "anonymous": false,
      "inputs": [
        {
          "indexed": true,
          "name": "account",
          "type": "address"
        }
      ],
      "name": "WhitelistedRemoved",
      "type": "event"
    },
    {
      "anonymous": false,
      "inputs": [
        {
          "indexed": true,
          "name": "account",
          "type": "address"
        }
      ],
      "name": "WhitelistAdminAdded",
      "type": "event"
    },
    {
      "anonymous": false,
      "inputs": [
        {
          "indexed": true,
          "name": "account",
          "type": "address"
        }
      ],
      "name": "WhitelistAdminRemoved",
      "type": "event"
    },
    {
      "constant": true,
      "inputs": [
        {
          "name": "index",
          "type": "uint256"
        }
      ],
      "name": "getBuyerDetails",
      "outputs": [
        {
          "name": "_beneficiaryAddress",
          "type": "address"
        },
        {
          "name": "_timeLockAddress1",
          "type": "address"
        },
        {
          "name": "_timeLockAddress2",
          "type": "address"
        },
        {
          "name": "_timeLockAddress3",
          "type": "address"
        }
      ],
      "payable": false,
      "stateMutability": "view",
      "type": "function"
    },
    {
      "constant": true,
      "inputs": [],
      "name": "totalBuyers",
      "outputs": [
        {
          "name": "count",
          "type": "uint256"
        }
      ],
      "payable": false,
      "stateMutability": "view",
      "type": "function"
    },
    {
      "constant": false,
      "inputs": [
        {
          "name": "_beneficiary",
          "type": "address"
        },
        {
          "name": "_amount",
          "type": "uint256"
        }
      ],
      "name": "newTokenTimeLock",
      "outputs": [],
      "payable": false,
      "stateMutability": "nonpayable",
      "type": "function"
    },
    {
      "constant": false,
      "inputs": [],
      "name": "burnUnsold",
      "outputs": [],
      "payable": false,
      "stateMutability": "nonpayable",
      "type": "function"
    }
  ],
  "bytecode": "0x608060405267016345785d8a0000600c556730927f74c9de0000600d553480156200002957600080fd5b506040516101208062003d0583398101806040526101208110156200004d57600080fd5b810190808051906020019092919080519060200190929190805190602001909291908051906020019092919080519060200190929190805190602001909291908051906020019092919080519060200190929190805190602001909291905050508585858b8b8b620000d4620000c86200057660201b60201c565b6200057e60201b60201c565b6001600260006101000a81548160ff02191690831515021790555060008311151562000168576040517f08c379a00000000000000000000000000000000000000000000000000000000081526004018080602001828103825260148152602001807f43726f776473616c653a2072617465206973203000000000000000000000000081525060200191505060405180910390fd5b600073ffffffffffffffffffffffffffffffffffffffff168273ffffffffffffffffffffffffffffffffffffffff1614151515620001f2576040517f08c379a000000000000000000000000000000000000000000000000000000000815260040180806020018281038252602581526020018062003ce06025913960400191505060405180910390fd5b600073ffffffffffffffffffffffffffffffffffffffff168173ffffffffffffffffffffffffffffffffffffffff16141515156200027c576040517f08c379a000000000000000000000000000000000000000000000000000000000815260040180806020018281038252602481526020018062003c9a6024913960400191505060405180910390fd5b8260048190555081600360006101000a81548173ffffffffffffffffffffffffffffffffffffffff021916908373ffffffffffffffffffffffffffffffffffffffff16021790555080600260016101000a81548173ffffffffffffffffffffffffffffffffffffffff021916908373ffffffffffffffffffffffffffffffffffffffff16021790555050505042821015151562000365576040517f08c379a000000000000000000000000000000000000000000000000000000000815260040180806020018281038252603381526020018062003c306033913960400191505060405180910390fd5b8181111515620003c1576040517f08c379a000000000000000000000000000000000000000000000000000000000815260040180806020018281038252603781526020018062003c636037913960400191505060405180910390fd5b816006819055508060078190555050506000811115156200044a576040517f08c379a00000000000000000000000000000000000000000000000000000000081526004018080602001828103825260198152602001807f43617070656443726f776473616c653a2063617020697320300000000000000081525060200191505060405180910390fd5b80600881905550506000620004646200057660201b60201c565b905080600960006101000a81548173ffffffffffffffffffffffffffffffffffffffff021916908373ffffffffffffffffffffffffffffffffffffffff1602179055508073ffffffffffffffffffffffffffffffffffffffff16600073ffffffffffffffffffffffffffffffffffffffff167f8be0079c531659141344cd1fd0a4f28419497f9722a3daafe3b4186f6b6457e060405160405180910390a35086600b60006101000a81548173ffffffffffffffffffffffffffffffffffffffff021916908373ffffffffffffffffffffffffffffffffffffffff16021790555082600e8190555081600f81905550806010819055508460118190555083601281905550505050505050505050620007a7565b600033905090565b62000599816000620005df60201b620025a31790919060201c565b8073ffffffffffffffffffffffffffffffffffffffff167f22380c05984257a1cb900161c713dd71d39e74820f1aea43bd3f1bdd2096129960405160405180910390a250565b620005f18282620006c560201b60201c565b15151562000667576040517f08c379a000000000000000000000000000000000000000000000000000000000815260040180806020018281038252601f8152602001807f526f6c65733a206163636f756e7420616c72656164792068617320726f6c650081525060200191505060405180910390fd5b60018260000160008373ffffffffffffffffffffffffffffffffffffffff1673ffffffffffffffffffffffffffffffffffffffff16815260200190815260200160002060006101000a81548160ff0219169083151502179055505050565b60008073ffffffffffffffffffffffffffffffffffffffff168273ffffffffffffffffffffffffffffffffffffffff161415151562000750576040517f08c379a000000000000000000000000000000000000000000000000000000000815260040180806020018281038252602281526020018062003cbe6022913960400191505060405180910390fd5b8260000160008373ffffffffffffffffffffffffffffffffffffffff1673ffffffffffffffffffffffffffffffffffffffff16815260200190815260200160002060009054906101000a900460ff16905092915050565b61347980620007b76000396000f3fe608060405260043610620001ed5760003560e01c8063521eb273116200010f578063b52a585111620000a3578063ec8ac4d8116200006d578063ec8ac4d814620008e2578063ed5db8741462000929578063f2fde38b1462000957578063fc0c546a14620009ac57620001ed565b8063b52a58511462000813578063b7a8807c146200082d578063bb5f747b146200085b578063d6cd947314620008c857620001ed565b80638da5cb5b11620000e55780638da5cb5b14620006415780638f32d59b146200069b578063992245d314620006cd578063b25d7f5414620007e557620001ed565b8063521eb2731462000578578063715018a614620005d25780637362d9c814620005ec57620001ed565b80633af32abf116200018757806347535d7b116200015d57806347535d7b14620004cc5780634b6753bc14620004fe5780634c5a628c146200052c5780634f935945146200054657620001ed565b80633af32abf14620003c85780634042b66f146200043557806342e94c90146200046357620001ed565b8063291d954911620001c9578063291d954914620002e95780632c4e722e146200033e578063355274ea146200036c5780633abd0136146200039a57620001ed565b80621ec835146200020357806310154bad14620002625780631515bc2b14620002b7575b62000201620001fb62000a06565b62000a0e565b005b3480156200021057600080fd5b5062000260600480360360408110156200022957600080fd5b81019080803573ffffffffffffffffffffffffffffffffffffffff1690602001909291908035906020019092919050505062000baf565b005b3480156200026f57600080fd5b50620002b5600480360360208110156200028857600080fd5b81019080803573ffffffffffffffffffffffffffffffffffffffff1690602001909291905050506200130e565b005b348015620002c457600080fd5b50620002cf62001389565b604051808215151515815260200191505060405180910390f35b348015620002f657600080fd5b506200033c600480360360208110156200030f57600080fd5b81019080803573ffffffffffffffffffffffffffffffffffffffff16906020019092919050505062001395565b005b3480156200034b57600080fd5b506200035662001410565b6040518082815260200191505060405180910390f35b3480156200037957600080fd5b50620003846200141a565b6040518082815260200191505060405180910390f35b348015620003a757600080fd5b50620003b262001424565b6040518082815260200191505060405180910390f35b348015620003d557600080fd5b506200041b60048036036020811015620003ee57600080fd5b81019080803573ffffffffffffffffffffffffffffffffffffffff16906020019092919050505062001431565b604051808215151515815260200191505060405180910390f35b3480156200044257600080fd5b506200044d62001450565b6040518082815260200191505060405180910390f35b3480156200047057600080fd5b50620004b6600480360360208110156200048957600080fd5b81019080803573ffffffffffffffffffffffffffffffffffffffff1690602001909291905050506200145a565b6040518082815260200191505060405180910390f35b348015620004d957600080fd5b50620004e462001472565b604051808215151515815260200191505060405180910390f35b3480156200050b57600080fd5b50620005166200148e565b6040518082815260200191505060405180910390f35b3480156200053957600080fd5b506200054462001498565b005b3480156200055357600080fd5b506200055e620014ae565b604051808215151515815260200191505060405180910390f35b3480156200058557600080fd5b5062000590620014c4565b604051808273ffffffffffffffffffffffffffffffffffffffff1673ffffffffffffffffffffffffffffffffffffffff16815260200191505060405180910390f35b348015620005df57600080fd5b50620005ea620014ee565b005b348015620005f957600080fd5b506200063f600480360360208110156200061257600080fd5b81019080803573ffffffffffffffffffffffffffffffffffffffff1690602001909291905050506200162e565b005b3480156200064e57600080fd5b5062000659620016a9565b604051808273ffffffffffffffffffffffffffffffffffffffff1673ffffffffffffffffffffffffffffffffffffffff16815260200191505060405180910390f35b348015620006a857600080fd5b50620006b3620016d3565b604051808215151515815260200191505060405180910390f35b348015620006da57600080fd5b506200070a60048036036020811015620006f357600080fd5b810190808035906020019092919050505062001734565b604051808573ffffffffffffffffffffffffffffffffffffffff1673ffffffffffffffffffffffffffffffffffffffff1681526020018473ffffffffffffffffffffffffffffffffffffffff1673ffffffffffffffffffffffffffffffffffffffff1681526020018373ffffffffffffffffffffffffffffffffffffffff1673ffffffffffffffffffffffffffffffffffffffff1681526020018273ffffffffffffffffffffffffffffffffffffffff1673ffffffffffffffffffffffffffffffffffffffff16815260200194505050505060405180910390f35b348015620007f257600080fd5b50620007fd62001851565b6040518082815260200191505060405180910390f35b3480156200082057600080fd5b506200082b62001857565b005b3480156200083a57600080fd5b506200084562001b12565b6040518082815260200191505060405180910390f35b3480156200086857600080fd5b50620008ae600480360360208110156200088157600080fd5b81019080803573ffffffffffffffffffffffffffffffffffffffff16906020019092919050505062001b1c565b604051808215151515815260200191505060405180910390f35b348015620008d557600080fd5b50620008e062001b3b565b005b6200092760048036036020811015620008fa57600080fd5b81019080803573ffffffffffffffffffffffffffffffffffffffff16906020019092919050505062000a0e565b005b3480156200093657600080fd5b506200094162001b51565b6040518082815260200191505060405180910390f35b3480156200096457600080fd5b50620009aa600480360360208110156200097d57600080fd5b81019080803573ffffffffffffffffffffffffffffffffffffffff16906020019092919050505062001b57565b005b348015620009b957600080fd5b50620009c462001be4565b604051808273ffffffffffffffffffffffffffffffffffffffff1673ffffffffffffffffffffffffffffffffffffffff16815260200191505060405180910390f35b600033905090565b600260009054906101000a900460ff16151562000a93576040517f08c379a000000000000000000000000000000000000000000000000000000000815260040180806020018281038252601f8152602001807f5265656e7472616e637947756172643a207265656e7472616e742063616c6c0081525060200191505060405180910390fd5b6000600260006101000a81548160ff021916908315150217905550600034905062000abf828262001c0e565b600062000acc8262001d01565b905062000ae58260055462001d2190919063ffffffff16565b60058190555062000af7838262001dac565b8273ffffffffffffffffffffffffffffffffffffffff1662000b1862000a06565b73ffffffffffffffffffffffffffffffffffffffff167f6faf93231a456e552dbc9961f58d9713ee4f2e69d15f1975b050ef0911053a7b8484604051808381526020018281526020019250505060405180910390a362000b79838362001dbc565b62000b8362001dc0565b62000b8f838362001e2c565b50506001600260006101000a81548160ff02191690831515021790555050565b6000600b60009054906101000a900473ffffffffffffffffffffffffffffffffffffffff1683600e5460405162000be69062002985565b808473ffffffffffffffffffffffffffffffffffffffff1673ffffffffffffffffffffffffffffffffffffffff1681526020018373ffffffffffffffffffffffffffffffffffffffff1673ffffffffffffffffffffffffffffffffffffffff1681526020018281526020019350505050604051809103906000f08015801562000c73573d6000803e3d6000fd5b5090506000600b60009054906101000a900473ffffffffffffffffffffffffffffffffffffffff1684600f5460405162000cad9062002985565b808473ffffffffffffffffffffffffffffffffffffffff1673ffffffffffffffffffffffffffffffffffffffff1681526020018373ffffffffffffffffffffffffffffffffffffffff1673ffffffffffffffffffffffffffffffffffffffff1681526020018281526020019350505050604051809103906000f08015801562000d3a573d6000803e3d6000fd5b5090506000600b60009054906101000a900473ffffffffffffffffffffffffffffffffffffffff168560105460405162000d749062002985565b808473ffffffffffffffffffffffffffffffffffffffff1673ffffffffffffffffffffffffffffffffffffffff1681526020018373ffffffffffffffffffffffffffffffffffffffff1673ffffffffffffffffffffffffffffffffffffffff1681526020018281526020019350505050604051809103906000f08015801562000e01573d6000803e3d6000fd5b509050600080600062000e1f60048862001e3090919063ffffffff16565b925062000e4c606462000e3d601e8a62001e7c90919063ffffffff16565b62001e3090919063ffffffff16565b915062000e7762000e67838562001d2190919063ffffffff16565b8862001f0b90919063ffffffff16565b9050600b60009054906101000a900473ffffffffffffffffffffffffffffffffffffffff1673ffffffffffffffffffffffffffffffffffffffff1663a9059cbb87856040518363ffffffff1660e01b8152600401808373ffffffffffffffffffffffffffffffffffffffff1673ffffffffffffffffffffffffffffffffffffffff16815260200182815260200192505050602060405180830381600087803b15801562000f2357600080fd5b505af115801562000f38573d6000803e3d6000fd5b505050506040513d602081101562000f4f57600080fd5b810190808051906020019092919050505050600b60009054906101000a900473ffffffffffffffffffffffffffffffffffffffff1673ffffffffffffffffffffffffffffffffffffffff1663a9059cbb86846040518363ffffffff1660e01b8152600401808373ffffffffffffffffffffffffffffffffffffffff1673ffffffffffffffffffffffffffffffffffffffff16815260200182815260200192505050602060405180830381600087803b1580156200100b57600080fd5b505af115801562001020573d6000803e3d6000fd5b505050506040513d60208110156200103757600080fd5b810190808051906020019092919050505050600b60009054906101000a900473ffffffffffffffffffffffffffffffffffffffff1673ffffffffffffffffffffffffffffffffffffffff1663a9059cbb85836040518363ffffffff1660e01b8152600401808373ffffffffffffffffffffffffffffffffffffffff1673ffffffffffffffffffffffffffffffffffffffff16815260200182815260200192505050602060405180830381600087803b158015620010f357600080fd5b505af115801562001108573d6000803e3d6000fd5b505050506040513d60208110156200111f57600080fd5b8101908080519060200190929190505050506200113b62002993565b60405180608001604052808a73ffffffffffffffffffffffffffffffffffffffff1681526020018873ffffffffffffffffffffffffffffffffffffffff1681526020018773ffffffffffffffffffffffffffffffffffffffff1681526020018673ffffffffffffffffffffffffffffffffffffffff1681525090506013819080600181540180825580915050906001820390600052602060002090600402016000909192909190915060008201518160000160006101000a81548173ffffffffffffffffffffffffffffffffffffffff021916908373ffffffffffffffffffffffffffffffffffffffff16021790555060208201518160010160006101000a81548173ffffffffffffffffffffffffffffffffffffffff021916908373ffffffffffffffffffffffffffffffffffffffff16021790555060408201518160020160006101000a81548173ffffffffffffffffffffffffffffffffffffffff021916908373ffffffffffffffffffffffffffffffffffffffff16021790555060608201518160030160006101000a81548173ffffffffffffffffffffffffffffffffffffffff021916908373ffffffffffffffffffffffffffffffffffffffff160217905550505050505050505050505050565b620013226200131c62000a06565b62001b1c565b15156200137b576040517f08c379a0000000000000000000000000000000000000000000000000000000008152600401808060200182810382526040815260200180620033e46040913960400191505060405180910390fd5b620013868162001f57565b50565b60006007544211905090565b620013a9620013a362000a06565b62001b1c565b151562001402576040517f08c379a0000000000000000000000000000000000000000000000000000000008152600401808060200182810382526040815260200180620033e46040913960400191505060405180910390fd5b6200140d8162001fb3565b50565b6000600454905090565b6000600854905090565b6000601380549050905090565b6000620014498260016200200f90919063ffffffff16565b9050919050565b6000600554905090565b600a6020528060005260406000206000915090505481565b600060065442101580156200148957506007544211155b905090565b6000600754905090565b620014ac620014a662000a06565b620020f1565b565b6000600854620014bd62001450565b1015905090565b6000600360009054906101000a900473ffffffffffffffffffffffffffffffffffffffff16905090565b620014f8620016d3565b15156200156d576040517f08c379a00000000000000000000000000000000000000000000000000000000081526004018080602001828103825260208152602001807f4f776e61626c653a2063616c6c6572206973206e6f7420746865206f776e657281525060200191505060405180910390fd5b600073ffffffffffffffffffffffffffffffffffffffff16600960009054906101000a900473ffffffffffffffffffffffffffffffffffffffff1673ffffffffffffffffffffffffffffffffffffffff167f8be0079c531659141344cd1fd0a4f28419497f9722a3daafe3b4186f6b6457e060405160405180910390a36000600960006101000a81548173ffffffffffffffffffffffffffffffffffffffff021916908373ffffffffffffffffffffffffffffffffffffffff160217905550565b620016426200163c62000a06565b62001b1c565b15156200169b576040517f08c379a0000000000000000000000000000000000000000000000000000000008152600401808060200182810382526040815260200180620033e46040913960400191505060405180910390fd5b620016a6816200214d565b50565b6000600960009054906101000a900473ffffffffffffffffffffffffffffffffffffffff16905090565b6000600960009054906101000a900473ffffffffffffffffffffffffffffffffffffffff1673ffffffffffffffffffffffffffffffffffffffff166200171862000a06565b73ffffffffffffffffffffffffffffffffffffffff1614905090565b6000806000806013858154811015156200174a57fe5b906000526020600020906004020160000160009054906101000a900473ffffffffffffffffffffffffffffffffffffffff166013868154811015156200178c57fe5b906000526020600020906004020160010160009054906101000a900473ffffffffffffffffffffffffffffffffffffffff16601387815481101515620017ce57fe5b906000526020600020906004020160020160009054906101000a900473ffffffffffffffffffffffffffffffffffffffff166013888154811015156200181057fe5b906000526020600020906004020160030160009054906101000a900473ffffffffffffffffffffffffffffffffffffffff1693509350935093509193509193565b600c5481565b62001861620016d3565b1515620018d6576040517f08c379a00000000000000000000000000000000000000000000000000000000081526004018080602001828103825260208152602001807f4f776e61626c653a2063616c6c6572206973206e6f7420746865206f776e657281525060200191505060405180910390fd5b6012544211151562001950576040517f08c379a00000000000000000000000000000000000000000000000000000000081526004018080602001828103825260198152602001807f43726f776473617465206973207374696c6c206163746976650000000000000081525060200191505060405180910390fd5b6000600b60009054906101000a900473ffffffffffffffffffffffffffffffffffffffff16905060008173ffffffffffffffffffffffffffffffffffffffff166370a08231306040518263ffffffff1660e01b8152600401808273ffffffffffffffffffffffffffffffffffffffff1673ffffffffffffffffffffffffffffffffffffffff16815260200191505060206040518083038186803b158015620019f757600080fd5b505afa15801562001a0c573d6000803e3d6000fd5b505050506040513d602081101562001a2357600080fd5b810190808051906020019092919050505090508173ffffffffffffffffffffffffffffffffffffffff166342966c68826040518263ffffffff1660e01b815260040180828152602001915050600060405180830381600087803b15801562001a8a57600080fd5b505af115801562001a9f573d6000803e3d6000fd5b505050507fcc16f5dbb4873280815c1ee09dbd06736cffcc184412cf7a71a0fdb75d397ca53382604051808373ffffffffffffffffffffffffffffffffffffffff1673ffffffffffffffffffffffffffffffffffffffff1681526020018281526020019250505060405180910390a15050565b6000600654905090565b600062001b348260006200200f90919063ffffffff16565b9050919050565b62001b4f62001b4962000a06565b62001fb3565b565b600d5481565b62001b61620016d3565b151562001bd6576040517f08c379a00000000000000000000000000000000000000000000000000000000081526004018080602001828103825260208152602001807f4f776e61626c653a2063616c6c6572206973206e6f7420746865206f776e657281525060200191505060405180910390fd5b62001be181620021a9565b50565b6000600260019054906101000a900473ffffffffffffffffffffffffffffffffffffffff16905090565b62001c1a8282620022f3565b600062001c7082600a60008673ffffffffffffffffffffffffffffffffffffffff1673ffffffffffffffffffffffffffffffffffffffff1681526020019081526020016000205462001d2190919063ffffffff16565b9050600c54811015801562001c875750600d548111155b151562001cfc576040517f08c379a000000000000000000000000000000000000000000000000000000000815260040180806020018281038252601f8152602001807f496e766573746f722043415020696e206e6f7420696e20612072616e6765200081525060200191505060405180910390fd5b505050565b600062001d1a6004548362001e7c90919063ffffffff16565b9050919050565b600080828401905083811015151562001da2576040517f08c379a000000000000000000000000000000000000000000000000000000000815260040180806020018281038252601b8152602001807f536166654d6174683a206164646974696f6e206f766572666c6f77000000000081525060200191505060405180910390fd5b8091505092915050565b62001db8828262002367565b5050565b5050565b600360009054906101000a900473ffffffffffffffffffffffffffffffffffffffff1673ffffffffffffffffffffffffffffffffffffffff166108fc349081150290604051600060405180830381858888f1935050505015801562001e29573d6000803e3d6000fd5b50565b5050565b600062001e7483836040518060400160405280601a81526020017f536166654d6174683a206469766973696f6e206279207a65726f0000000000008152506200240e565b905092915050565b60008083141562001e91576000905062001f05565b6000828402905082848281151562001ea557fe5b0414151562001f00576040517f08c379a0000000000000000000000000000000000000000000000000000000008152600401808060200182810382526021815260200180620033a16021913960400191505060405180910390fd5b809150505b92915050565b600062001f4f83836040518060400160405280601e81526020017f536166654d6174683a207375627472616374696f6e206f766572666c6f770000815250620024dd565b905092915050565b62001f6d816001620025a390919063ffffffff16565b8073ffffffffffffffffffffffffffffffffffffffff167fee1504a83b6d4a361f4c1dc78ab59bfa30d6a3b6612c403e86bb01ef2984295f60405160405180910390a250565b62001fc98160016200268390919063ffffffff16565b8073ffffffffffffffffffffffffffffffffffffffff167f270d9b30cf5b0793bbfd54c9d5b94aeb49462b8148399000265144a8722da6b660405160405180910390a250565b60008073ffffffffffffffffffffffffffffffffffffffff168273ffffffffffffffffffffffffffffffffffffffff16141515156200209a576040517f08c379a0000000000000000000000000000000000000000000000000000000008152600401808060200182810382526022815260200180620033c26022913960400191505060405180910390fd5b8260000160008373ffffffffffffffffffffffffffffffffffffffff1673ffffffffffffffffffffffffffffffffffffffff16815260200190815260200160002060009054906101000a900460ff16905092915050565b620021078160006200268390919063ffffffff16565b8073ffffffffffffffffffffffffffffffffffffffff167f0a8eb35e5ca14b3d6f28e4abf2f128dbab231a58b56e89beb5d636115001e16560405160405180910390a250565b62002163816000620025a390919063ffffffff16565b8073ffffffffffffffffffffffffffffffffffffffff167f22380c05984257a1cb900161c713dd71d39e74820f1aea43bd3f1bdd2096129960405160405180910390a250565b600073ffffffffffffffffffffffffffffffffffffffff168173ffffffffffffffffffffffffffffffffffffffff161415151562002233576040517f08c379a00000000000000000000000000000000000000000000000000000000081526004018080602001828103825260268152602001806200335a6026913960400191505060405180910390fd5b8073ffffffffffffffffffffffffffffffffffffffff16600960009054906101000a900473ffffffffffffffffffffffffffffffffffffffff1673ffffffffffffffffffffffffffffffffffffffff167f8be0079c531659141344cd1fd0a4f28419497f9722a3daafe3b4186f6b6457e060405160405180910390a380600960006101000a81548173ffffffffffffffffffffffffffffffffffffffff021916908373ffffffffffffffffffffffffffffffffffffffff16021790555050565b620022fe8262001431565b151562002357576040517f08c379a0000000000000000000000000000000000000000000000000000000008152600401808060200182810382526041815260200180620033196041913960600191505060405180910390fd5b62002363828262002746565b5050565b620023bb34600a60008573ffffffffffffffffffffffffffffffffffffffff1673ffffffffffffffffffffffffffffffffffffffff1681526020019081526020016000205462001d2190919063ffffffff16565b600a60008473ffffffffffffffffffffffffffffffffffffffff1673ffffffffffffffffffffffffffffffffffffffff168152602001908152602001600020819055506200240a828262000baf565b5050565b600080831182901515620024c0576040517f08c379a00000000000000000000000000000000000000000000000000000000081526004018080602001828103825283818151815260200191508051906020019080838360005b838110156200248457808201518184015260208101905062002467565b50505050905090810190601f168015620024b25780820380516001836020036101000a031916815260200191505b509250505060405180910390fd5b5060008385811515620024cf57fe5b049050809150509392505050565b6000838311158290151562002590576040517f08c379a00000000000000000000000000000000000000000000000000000000081526004018080602001828103825283818151815260200191508051906020019080838360005b838110156200255457808201518184015260208101905062002537565b50505050905090810190601f168015620025825780820380516001836020036101000a031916815260200191505b509250505060405180910390fd5b5060008385039050809150509392505050565b620025af82826200200f565b15151562002625576040517f08c379a000000000000000000000000000000000000000000000000000000000815260040180806020018281038252601f8152602001807f526f6c65733a206163636f756e7420616c72656164792068617320726f6c650081525060200191505060405180910390fd5b60018260000160008373ffffffffffffffffffffffffffffffffffffffff1673ffffffffffffffffffffffffffffffffffffffff16815260200190815260200160002060006101000a81548160ff0219169083151502179055505050565b6200268f82826200200f565b1515620026e8576040517f08c379a0000000000000000000000000000000000000000000000000000000008152600401808060200182810382526021815260200180620033806021913960400191505060405180910390fd5b60008260000160008373ffffffffffffffffffffffffffffffffffffffff1673ffffffffffffffffffffffffffffffffffffffff16815260200190815260200160002060006101000a81548160ff0219169083151502179055505050565b620027528282620027ee565b60085462002773826200276462001450565b62001d2190919063ffffffff16565b11151515620027ea576040517f08c379a000000000000000000000000000000000000000000000000000000000815260040180806020018281038252601d8152602001807f43617070656443726f776473616c653a2063617020657863656564656400000081525060200191505060405180910390fd5b5050565b620027f862001472565b15156200286d576040517f08c379a00000000000000000000000000000000000000000000000000000000081526004018080602001828103825260188152602001807f54696d656443726f776473616c653a206e6f74206f70656e000000000000000081525060200191505060405180910390fd5b6200287982826200287d565b5050565b600073ffffffffffffffffffffffffffffffffffffffff168273ffffffffffffffffffffffffffffffffffffffff161415151562002907576040517f08c379a000000000000000000000000000000000000000000000000000000000815260040180806020018281038252602a81526020018062003424602a913960400191505060405180910390fd5b6000811415151562002981576040517f08c379a00000000000000000000000000000000000000000000000000000000081526004018080602001828103825260198152602001807f43726f776473616c653a20776569416d6f756e7420697320300000000000000081525060200191505060405180910390fd5b5050565b6109058062002a1483390190565b6040518060800160405280600073ffffffffffffffffffffffffffffffffffffffff168152602001600073ffffffffffffffffffffffffffffffffffffffff168152602001600073ffffffffffffffffffffffffffffffffffffffff168152602001600073ffffffffffffffffffffffffffffffffffffffff168152509056fe608060405234801561001057600080fd5b506040516060806109058339810180604052606081101561003057600080fd5b8101908080519060200190929190805190602001909291908051906020019092919050505042811115156100af576040517f08c379a00000000000000000000000000000000000000000000000000000000081526004018080602001828103825260328152602001806108d36032913960400191505060405180910390fd5b826000806101000a81548173ffffffffffffffffffffffffffffffffffffffff021916908373ffffffffffffffffffffffffffffffffffffffff16021790555081600160006101000a81548173ffffffffffffffffffffffffffffffffffffffff021916908373ffffffffffffffffffffffffffffffffffffffff1602179055508060028190555050505061078a806101496000396000f3fe608060405234801561001057600080fd5b506004361061004c5760003560e01c806338af3eed1461005157806386d1a69f1461009b578063b91d4001146100a5578063fc0c546a146100c3575b600080fd5b61005961010d565b604051808273ffffffffffffffffffffffffffffffffffffffff1673ffffffffffffffffffffffffffffffffffffffff16815260200191505060405180910390f35b6100a3610137565b005b6100ad61033d565b6040518082815260200191505060405180910390f35b6100cb610347565b604051808273ffffffffffffffffffffffffffffffffffffffff1673ffffffffffffffffffffffffffffffffffffffff16815260200191505060405180910390f35b6000600160009054906101000a900473ffffffffffffffffffffffffffffffffffffffff16905090565b6002544210151515610194576040517f08c379a00000000000000000000000000000000000000000000000000000000081526004018080602001828103825260328152602001806106e06032913960400191505060405180910390fd5b60008060009054906101000a900473ffffffffffffffffffffffffffffffffffffffff1673ffffffffffffffffffffffffffffffffffffffff166370a08231306040518263ffffffff1660e01b8152600401808273ffffffffffffffffffffffffffffffffffffffff1673ffffffffffffffffffffffffffffffffffffffff16815260200191505060206040518083038186803b15801561023457600080fd5b505afa158015610248573d6000803e3d6000fd5b505050506040513d602081101561025e57600080fd5b810190808051906020019092919050505090506000811115156102cc576040517f08c379a000000000000000000000000000000000000000000000000000000000815260040180806020018281038252602381526020018061073c6023913960400191505060405180910390fd5b61033a600160009054906101000a900473ffffffffffffffffffffffffffffffffffffffff16826000809054906101000a900473ffffffffffffffffffffffffffffffffffffffff1673ffffffffffffffffffffffffffffffffffffffff166103709092919063ffffffff16565b50565b6000600254905090565b60008060009054906101000a900473ffffffffffffffffffffffffffffffffffffffff16905090565b61043c838473ffffffffffffffffffffffffffffffffffffffff1663a9059cbb905060e01b8484604051602401808373ffffffffffffffffffffffffffffffffffffffff1673ffffffffffffffffffffffffffffffffffffffff16815260200182815260200192505050604051602081830303815290604052907bffffffffffffffffffffffffffffffffffffffffffffffffffffffff19166020820180517bffffffffffffffffffffffffffffffffffffffffffffffffffffffff8381831617835250505050610441565b505050565b6104608273ffffffffffffffffffffffffffffffffffffffff16610694565b15156104d4576040517f08c379a000000000000000000000000000000000000000000000000000000000815260040180806020018281038252601f8152602001807f5361666545524332303a2063616c6c20746f206e6f6e2d636f6e74726163740081525060200191505060405180910390fd5b600060608373ffffffffffffffffffffffffffffffffffffffff16836040518082805190602001908083835b6020831015156105255780518252602082019150602081019050602083039250610500565b6001836020036101000a0380198251168184511680821785525050505050509050019150506000604051808303816000865af19150503d8060008114610587576040519150601f19603f3d011682016040523d82523d6000602084013e61058c565b606091505b5091509150811515610606576040517f08c379a00000000000000000000000000000000000000000000000000000000081526004018080602001828103825260208152602001807f5361666545524332303a206c6f772d6c6576656c2063616c6c206661696c656481525060200191505060405180910390fd5b60008151111561068e5780806020019051602081101561062557600080fd5b8101908080519060200190929190505050151561068d576040517f08c379a000000000000000000000000000000000000000000000000000000000815260040180806020018281038252602a815260200180610712602a913960400191505060405180910390fd5b5b50505050565b60008060007fc5d2460186f7233c927e7db2dcc703c0e500b653ca82273b7bfad8045d85a47060001b9050833f91508082141580156106d657506000801b8214155b9250505091905056fe546f6b656e54696d656c6f636b3a2063757272656e742074696d65206973206265666f72652072656c656173652074696d655361666545524332303a204552433230206f7065726174696f6e20646964206e6f742073756363656564546f6b656e54696d656c6f636b3a206e6f20746f6b656e7320746f2072656c65617365a165627a7a723058204d02a874b0ae5ac29874797f940af5d019b251ec033ec0cef52cc6c5531e25b90029546f6b656e54696d656c6f636b3a2072656c656173652074696d65206973206265666f72652063757272656e742074696d6557686974656c69737443726f776473616c653a2062656e656669636961727920646f65736e27742068617665207468652057686974656c697374656420726f6c654f776e61626c653a206e6577206f776e657220697320746865207a65726f2061646472657373526f6c65733a206163636f756e7420646f6573206e6f74206861766520726f6c65536166654d6174683a206d756c7469706c69636174696f6e206f766572666c6f77526f6c65733a206163636f756e7420697320746865207a65726f206164647265737357686974656c69737441646d696e526f6c653a2063616c6c657220646f6573206e6f742068617665207468652057686974656c69737441646d696e20726f6c6543726f776473616c653a2062656e656669636961727920697320746865207a65726f2061646472657373a165627a7a723058206d33aad6228b2acdfbbb744515770e2dcf7fb904911888428cecf6185897953d002954696d656443726f776473616c653a206f70656e696e672074696d65206973206265666f72652063757272656e742074696d6554696d656443726f776473616c653a206f70656e696e672074696d65206973206e6f74206265666f726520636c6f73696e672074696d6543726f776473616c653a20746f6b656e20697320746865207a65726f2061646472657373526f6c65733a206163636f756e7420697320746865207a65726f206164647265737343726f776473616c653a2077616c6c657420697320746865207a65726f2061646472657373",
  "source": "pragma solidity ^0.5.0;\r\n\r\nimport \"@openzeppelin/contracts/token/ERC20/ERC20.sol\";\r\nimport \"@openzeppelin/contracts/token/ERC20/TokenTimelock.sol\";\r\nimport \"@openzeppelin/contracts/crowdsale/Crowdsale.sol\";\r\nimport \"@openzeppelin/contracts/crowdsale/validation/TimedCrowdsale.sol\";\r\nimport \"@openzeppelin/contracts/crowdsale/validation/CappedCrowdsale.sol\";\r\nimport \"@openzeppelin/contracts/ownership/Ownable.sol\";\r\nimport \"@openzeppelin/contracts/token/ERC20/ERC20Burnable.sol\";\r\nimport \"@openzeppelin/contracts/crowdsale/validation/WhitelistCrowdsale.sol\";\r\n\r\n\r\ncontract BIAWhitelistedSale is TimedCrowdsale,CappedCrowdsale,WhitelistCrowdsale,Ownable\r\n {\r\n    mapping(address => uint256) public contributions;\r\n    ERC20Burnable tokenAddress;\r\n    uint public investorMinCap =   100000000000000000; // 0.1BNB\r\n    uint public investorHardCap = 3500000000000000000; // 3.5BNB\r\n    uint releaseTime1;\r\n    uint releaseTime2;\r\n    uint releaseTime3;\r\n    uint openTime;\r\n    uint closeTime;\r\n    struct buyerDetails\r\n    {\r\n      address beneficiaryAddress;\r\n      address timeLockAddress1;\r\n      address timeLockAddress2;\r\n      address timeLockAddress3;\r\n    }\r\n    buyerDetails[] buyer;\r\n\r\n  constructor\r\n  ( \r\n    uint rate,\r\n    address payable _wallet,\r\n    ERC20Burnable _token,\r\n    uint _cap,\r\n    uint _openingTime,\r\n    uint _closingTime,\r\n    uint _releaseTime1,\r\n    uint _releaseTime2,\r\n    uint _releaseTime3\r\n  )\r\n    Crowdsale(rate, _wallet, _token)\r\n    TimedCrowdsale(_openingTime, _closingTime)\r\n    CappedCrowdsale(_cap)\r\n     \r\n    public\r\n    {\r\n    tokenAddress    = _token;\r\n    releaseTime1    = _releaseTime1;\r\n    releaseTime2    = _releaseTime2;\r\n    releaseTime3    = _releaseTime3;\r\n    openTime        = _openingTime;\r\n    closeTime       = _closingTime;\r\n  }\r\n  \r\n  function getBuyerDetails(uint index) public view \r\n   returns\r\n   (\r\n    address _beneficiaryAddress,\r\n    address _timeLockAddress1,\r\n    address _timeLockAddress2,\r\n    address _timeLockAddress3\r\n   )\r\n  {\r\n  return\r\n    (\r\n      buyer[index].beneficiaryAddress,\r\n      buyer[index].timeLockAddress1,\r\n      buyer[index].timeLockAddress2,\r\n      buyer[index].timeLockAddress3\r\n    );\r\n  }\r\n  function totalBuyers( ) public view \r\n   returns(uint count)\r\n   {\r\n     return buyer.length;\r\n   }\r\n\r\n  function _preValidatePurchase\r\n  (\r\n    address _beneficiary,\r\n    uint256 _weiAmount\r\n  )\r\n  internal view \r\n  {  \r\n    super._preValidatePurchase(_beneficiary, _weiAmount);\r\n    uint256 _newContribution = contributions[_beneficiary].add(_weiAmount);\r\n    require(_newContribution >= investorMinCap && _newContribution <= investorHardCap,\"Investor CAP in not in a range \"); \r\n  }\r\n  function newTokenTimeLock\r\n  (\r\n    address _beneficiary,\r\n    uint _amount\r\n  )\r\n  public\r\n  {\r\n    // Create new wallet.\r\n    address wallet1 = address(new TokenTimelock(tokenAddress, _beneficiary,releaseTime1));\r\n    address wallet2 = address(new TokenTimelock(tokenAddress, _beneficiary,releaseTime2));\r\n    address wallet3 = address(new TokenTimelock(tokenAddress, _beneficiary,releaseTime3));\r\n                     \r\n    // Send ether from this transaction to the created contract.\r\n    uint256 tempAmount1;\r\n    uint256 tempAmount2;\r\n    uint256 tempAmount3;\r\n     \r\n    // Token splitting for three timelocked contracts\r\n    tempAmount1=_amount.div(4);\r\n    tempAmount2=_amount.mul(30).div(100);\r\n    tempAmount3=_amount.sub(tempAmount1.add(tempAmount2));\r\n     \r\n    // Token Tranfer to Timelocked Contracts\r\n    tokenAddress.transfer(wallet1,tempAmount1);\r\n    tokenAddress.transfer(wallet2,tempAmount2);\r\n    tokenAddress.transfer(wallet3,tempAmount3);\r\n      \r\n    //updating buyerdetails \r\n    buyerDetails memory newBuyer = buyerDetails\r\n    (\r\n      _beneficiary,\r\n      wallet1,\r\n      wallet2,\r\n      wallet3\r\n    );\r\n    buyer.push(newBuyer);\r\n              \r\n  }\r\n\r\n  function _deliverTokens\r\n  (\r\n   address _beneficiary, \r\n   uint256 _tokenAmount\r\n  )\r\n    internal\r\n  {\r\n    contributions[_beneficiary] = contributions[_beneficiary].add(msg.value);\r\n    newTokenTimeLock(_beneficiary,_tokenAmount);\r\n  }\r\n  function burnUnsold()\r\n    public onlyOwner\r\n  {\r\n    require((block.timestamp > closeTime), \"Crowdsate is still active\");\r\n    ERC20Burnable token = ERC20Burnable(tokenAddress);\r\n    uint256 amount = token.balanceOf(address(this));\r\n    token.burn(amount);\r\n    emit Burn(msg.sender, amount);\r\n  }\r\n  event Burn\r\n (\r\n   address From,\r\n   uint burnValue\r\n );\r\n}\r\n\r\n\r\n",
  "sourcePath": "/root/arun/Presale/BIAWhitelistedSale/contracts/BIAWhitelistedSale.sol",
  "compiler": {
    "name": "solc",
    "version": "0.5.5+commit.47a71e8f.Emscripten.clang"
  },
  "schemaVersion": "3.4.4",
  "updatedAt": "2022-01-27T13:53:05.975Z",
  "devdoc": {
    "methods": {
      "buyTokens(address)": {
        "details": "low level token purchase ***DO NOT OVERRIDE*** This function has a non-reentrancy guard, so it shouldn't be called by another `nonReentrant` function.",
        "params": {
          "beneficiary": "Recipient of the token purchase"
        }
      },
      "cap()": {
        "return": "the cap of the crowdsale."
      },
      "capReached()": {
        "details": "Checks whether the cap has been reached.",
        "return": "Whether the cap was reached"
      },
      "closingTime()": {
        "return": "the crowdsale closing time."
      },
      "hasClosed()": {
        "details": "Checks whether the period in which the crowdsale is open has already elapsed.",
        "return": "Whether crowdsale period has elapsed"
      },
      "isOpen()": {
        "return": "true if the crowdsale is open, false otherwise."
      },
      "isOwner()": {
        "details": "Returns true if the caller is the current owner."
      },
      "openingTime()": {
        "return": "the crowdsale opening time."
      },
      "owner()": {
        "details": "Returns the address of the current owner."
      },
      "rate()": {
        "return": "the number of token units a buyer gets per wei."
      },
      "renounceOwnership()": {
        "details": "Leaves the contract without owner. It will not be possible to call `onlyOwner` functions anymore. Can only be called by the current owner.     * NOTE: Renouncing ownership will leave the contract without an owner, thereby removing any functionality that is only available to the owner."
      },
      "token()": {
        "return": "the token being sold."
      },
      "transferOwnership(address)": {
        "details": "Transfers ownership of the contract to a new account (`newOwner`). Can only be called by the current owner."
      },
      "wallet()": {
        "return": "the address where funds are collected."
      },
      "weiRaised()": {
        "return": "the amount of wei raised."
      }
    }
  },
  "userdoc": {
    "methods": {}
  }
}