{
	"data": {
		"bytecode": {
			"linkReferences": {},
			"object": "60806040523480156200001157600080fd5b5060405162003dc138038062003dc183398181016040526101208110156200003857600080fd5b810190808051906020019092919080519060200190929190805190602001909291908051906020019092919080519060200190929190805190602001909291908051906020019092919080519060200190929190805190602001909291905050508585858b8b8b620000bf620000b36200054e60201b60201c565b6200055660201b60201c565b6001600260006101000a81548160ff0219169083151502179055506000831162000151576040517f08c379a00000000000000000000000000000000000000000000000000000000081526004018080602001828103825260148152602001807f43726f776473616c653a2072617465206973203000000000000000000000000081525060200191505060405180910390fd5b600073ffffffffffffffffffffffffffffffffffffffff168273ffffffffffffffffffffffffffffffffffffffff161415620001d9576040517f08c379a000000000000000000000000000000000000000000000000000000000815260040180806020018281038252602581526020018062003d9c6025913960400191505060405180910390fd5b600073ffffffffffffffffffffffffffffffffffffffff168173ffffffffffffffffffffffffffffffffffffffff16141562000261576040517f08c379a000000000000000000000000000000000000000000000000000000000815260040180806020018281038252602481526020018062003d566024913960400191505060405180910390fd5b8260048190555081600360006101000a81548173ffffffffffffffffffffffffffffffffffffffff021916908373ffffffffffffffffffffffffffffffffffffffff16021790555080600260016101000a81548173ffffffffffffffffffffffffffffffffffffffff021916908373ffffffffffffffffffffffffffffffffffffffff1602179055505050504282101562000348576040517f08c379a000000000000000000000000000000000000000000000000000000000815260040180806020018281038252603381526020018062003cec6033913960400191505060405180910390fd5b818111620003a2576040517f08c379a000000000000000000000000000000000000000000000000000000000815260040180806020018281038252603781526020018062003d1f6037913960400191505060405180910390fd5b816006819055508060078190555050506000811162000429576040517f08c379a00000000000000000000000000000000000000000000000000000000081526004018080602001828103825260198152602001807f43617070656443726f776473616c653a2063617020697320300000000000000081525060200191505060405180910390fd5b80600881905550506000620004436200054e60201b60201c565b905080600960006101000a81548173ffffffffffffffffffffffffffffffffffffffff021916908373ffffffffffffffffffffffffffffffffffffffff1602179055508073ffffffffffffffffffffffffffffffffffffffff16600073ffffffffffffffffffffffffffffffffffffffff167f8be0079c531659141344cd1fd0a4f28419497f9722a3daafe3b4186f6b6457e060405160405180910390a35086600b60006101000a81548173ffffffffffffffffffffffffffffffffffffffff021916908373ffffffffffffffffffffffffffffffffffffffff16021790555082600c8190555081600d8190555080600e8190555083600f819055505050505050505050506200077b565b600033905090565b62000571816000620005b760201b620026901790919060201c565b8073ffffffffffffffffffffffffffffffffffffffff167f22380c05984257a1cb900161c713dd71d39e74820f1aea43bd3f1bdd2096129960405160405180910390a250565b620005c982826200069b60201b60201c565b156200063d576040517f08c379a000000000000000000000000000000000000000000000000000000000815260040180806020018281038252601f8152602001807f526f6c65733a206163636f756e7420616c72656164792068617320726f6c650081525060200191505060405180910390fd5b60018260000160008373ffffffffffffffffffffffffffffffffffffffff1673ffffffffffffffffffffffffffffffffffffffff16815260200190815260200160002060006101000a81548160ff0219169083151502179055505050565b60008073ffffffffffffffffffffffffffffffffffffffff168273ffffffffffffffffffffffffffffffffffffffff16141562000724576040517f08c379a000000000000000000000000000000000000000000000000000000000815260040180806020018281038252602281526020018062003d7a6022913960400191505060405180910390fd5b8260000160008373ffffffffffffffffffffffffffffffffffffffff1673ffffffffffffffffffffffffffffffffffffffff16815260200190815260200160002060009054906101000a900460ff16905092915050565b613561806200078b6000396000f3fe608060405260043610620001ed5760003560e01c8063521eb273116200010f578063b52a585111620000a3578063ec8ac4d8116200006d578063ec8ac4d814620008e2578063ed5db8741462000929578063f2fde38b1462000957578063fc0c546a14620009ac57620001ed565b8063b52a58511462000813578063b7a8807c146200082d578063bb5f747b146200085b578063d6cd947314620008c857620001ed565b80638da5cb5b11620000e55780638da5cb5b14620006415780638f32d59b146200069b578063992245d314620006cd578063b25d7f5414620007e557620001ed565b8063521eb2731462000578578063715018a614620005d25780637362d9c814620005ec57620001ed565b80633af32abf116200018757806347535d7b116200015d57806347535d7b14620004cc5780634b6753bc14620004fe5780634c5a628c146200052c5780634f935945146200054657620001ed565b80633af32abf14620003c85780634042b66f146200043557806342e94c90146200046357620001ed565b8063291d954911620001c9578063291d954914620002e95780632c4e722e146200033e578063355274ea146200036c5780633abd0136146200039a57620001ed565b80621ec835146200020357806310154bad14620002625780631515bc2b14620002b7575b62000201620001fb62000a06565b62000a0e565b005b3480156200021057600080fd5b5062000260600480360360408110156200022957600080fd5b81019080803573ffffffffffffffffffffffffffffffffffffffff1690602001909291908035906020019092919050505062000bad565b005b3480156200026f57600080fd5b50620002b5600480360360208110156200028857600080fd5b81019080803573ffffffffffffffffffffffffffffffffffffffff1690602001909291905050506200140b565b005b348015620002c457600080fd5b50620002cf62001484565b604051808215151515815260200191505060405180910390f35b348015620002f657600080fd5b506200033c600480360360208110156200030f57600080fd5b81019080803573ffffffffffffffffffffffffffffffffffffffff16906020019092919050505062001490565b005b3480156200034b57600080fd5b506200035662001509565b6040518082815260200191505060405180910390f35b3480156200037957600080fd5b506200038462001513565b6040518082815260200191505060405180910390f35b348015620003a757600080fd5b50620003b26200151d565b6040518082815260200191505060405180910390f35b348015620003d557600080fd5b506200041b60048036036020811015620003ee57600080fd5b81019080803573ffffffffffffffffffffffffffffffffffffffff1690602001909291905050506200152a565b604051808215151515815260200191505060405180910390f35b3480156200044257600080fd5b506200044d62001549565b6040518082815260200191505060405180910390f35b3480156200047057600080fd5b50620004b6600480360360208110156200048957600080fd5b81019080803573ffffffffffffffffffffffffffffffffffffffff16906020019092919050505062001553565b6040518082815260200191505060405180910390f35b348015620004d957600080fd5b50620004e46200156b565b604051808215151515815260200191505060405180910390f35b3480156200050b57600080fd5b506200051662001587565b6040518082815260200191505060405180910390f35b3480156200053957600080fd5b506200054462001591565b005b3480156200055357600080fd5b506200055e620015a7565b604051808215151515815260200191505060405180910390f35b3480156200058557600080fd5b5062000590620015bd565b604051808273ffffffffffffffffffffffffffffffffffffffff1673ffffffffffffffffffffffffffffffffffffffff16815260200191505060405180910390f35b348015620005df57600080fd5b50620005ea620015e7565b005b348015620005f957600080fd5b506200063f600480360360208110156200061257600080fd5b81019080803573ffffffffffffffffffffffffffffffffffffffff16906020019092919050505062001725565b005b3480156200064e57600080fd5b50620006596200179e565b604051808273ffffffffffffffffffffffffffffffffffffffff1673ffffffffffffffffffffffffffffffffffffffff16815260200191505060405180910390f35b348015620006a857600080fd5b50620006b3620017c8565b604051808215151515815260200191505060405180910390f35b348015620006da57600080fd5b506200070a60048036036020811015620006f357600080fd5b810190808035906020019092919050505062001829565b604051808573ffffffffffffffffffffffffffffffffffffffff1673ffffffffffffffffffffffffffffffffffffffff1681526020018473ffffffffffffffffffffffffffffffffffffffff1673ffffffffffffffffffffffffffffffffffffffff1681526020018373ffffffffffffffffffffffffffffffffffffffff1673ffffffffffffffffffffffffffffffffffffffff1681526020018273ffffffffffffffffffffffffffffffffffffffff1673ffffffffffffffffffffffffffffffffffffffff16815260200194505050505060405180910390f35b348015620007f257600080fd5b50620007fd6200193e565b6040518082815260200191505060405180910390f35b3480156200082057600080fd5b506200082b6200194a565b005b3480156200083a57600080fd5b506200084562001c01565b6040518082815260200191505060405180910390f35b3480156200086857600080fd5b50620008ae600480360360208110156200088157600080fd5b81019080803573ffffffffffffffffffffffffffffffffffffffff16906020019092919050505062001c0b565b604051808215151515815260200191505060405180910390f35b348015620008d557600080fd5b50620008e062001c2a565b005b6200092760048036036020811015620008fa57600080fd5b81019080803573ffffffffffffffffffffffffffffffffffffffff16906020019092919050505062000a0e565b005b3480156200093657600080fd5b506200094162001c40565b6040518082815260200191505060405180910390f35b3480156200096457600080fd5b50620009aa600480360360208110156200097d57600080fd5b81019080803573ffffffffffffffffffffffffffffffffffffffff16906020019092919050505062001c4d565b005b348015620009b957600080fd5b50620009c462001cd8565b604051808273ffffffffffffffffffffffffffffffffffffffff1673ffffffffffffffffffffffffffffffffffffffff16815260200191505060405180910390f35b600033905090565b600260009054906101000a900460ff1662000a91576040517f08c379a000000000000000000000000000000000000000000000000000000000815260040180806020018281038252601f8152602001807f5265656e7472616e637947756172643a207265656e7472616e742063616c6c0081525060200191505060405180910390fd5b6000600260006101000a81548160ff021916908315150217905550600034905062000abd828262001d02565b600062000aca8262001e00565b905062000ae38260055462001e2090919063ffffffff16565b60058190555062000af5838262001ea9565b8273ffffffffffffffffffffffffffffffffffffffff1662000b1662000a06565b73ffffffffffffffffffffffffffffffffffffffff167f6faf93231a456e552dbc9961f58d9713ee4f2e69d15f1975b050ef0911053a7b8484604051808381526020018281526020019250505060405180910390a362000b77838362001eb9565b62000b8162001ebd565b62000b8d838362001f29565b50506001600260006101000a81548160ff02191690831515021790555050565b6000600b60009054906101000a900473ffffffffffffffffffffffffffffffffffffffff1683600c5460405162000be49062002a66565b808473ffffffffffffffffffffffffffffffffffffffff1673ffffffffffffffffffffffffffffffffffffffff1681526020018373ffffffffffffffffffffffffffffffffffffffff1673ffffffffffffffffffffffffffffffffffffffff1681526020018281526020019350505050604051809103906000f08015801562000c71573d6000803e3d6000fd5b5090506000600b60009054906101000a900473ffffffffffffffffffffffffffffffffffffffff1684600d5460405162000cab9062002a66565b808473ffffffffffffffffffffffffffffffffffffffff1673ffffffffffffffffffffffffffffffffffffffff1681526020018373ffffffffffffffffffffffffffffffffffffffff1673ffffffffffffffffffffffffffffffffffffffff1681526020018281526020019350505050604051809103906000f08015801562000d38573d6000803e3d6000fd5b5090506000600b60009054906101000a900473ffffffffffffffffffffffffffffffffffffffff1685600e5460405162000d729062002a66565b808473ffffffffffffffffffffffffffffffffffffffff1673ffffffffffffffffffffffffffffffffffffffff1681526020018373ffffffffffffffffffffffffffffffffffffffff1673ffffffffffffffffffffffffffffffffffffffff1681526020018281526020019350505050604051809103906000f08015801562000dff573d6000803e3d6000fd5b509050600080600062000e1d60048862001f2d90919063ffffffff16565b925062000e4a606462000e3b601e8a62001f7990919063ffffffff16565b62001f2d90919063ffffffff16565b915062000e7562000e65838562001e2090919063ffffffff16565b886200200490919063ffffffff16565b9050600b60009054906101000a900473ffffffffffffffffffffffffffffffffffffffff1673ffffffffffffffffffffffffffffffffffffffff1663a9059cbb87856040518363ffffffff1660e01b8152600401808373ffffffffffffffffffffffffffffffffffffffff1673ffffffffffffffffffffffffffffffffffffffff16815260200182815260200192505050602060405180830381600087803b15801562000f2157600080fd5b505af115801562000f36573d6000803e3d6000fd5b505050506040513d602081101562000f4d57600080fd5b810190808051906020019092919050505050600b60009054906101000a900473ffffffffffffffffffffffffffffffffffffffff1673ffffffffffffffffffffffffffffffffffffffff1663a9059cbb86846040518363ffffffff1660e01b8152600401808373ffffffffffffffffffffffffffffffffffffffff1673ffffffffffffffffffffffffffffffffffffffff16815260200182815260200192505050602060405180830381600087803b1580156200100957600080fd5b505af11580156200101e573d6000803e3d6000fd5b505050506040513d60208110156200103557600080fd5b810190808051906020019092919050505050600b60009054906101000a900473ffffffffffffffffffffffffffffffffffffffff1673ffffffffffffffffffffffffffffffffffffffff1663a9059cbb85836040518363ffffffff1660e01b8152600401808373ffffffffffffffffffffffffffffffffffffffff1673ffffffffffffffffffffffffffffffffffffffff16815260200182815260200192505050602060405180830381600087803b158015620010f157600080fd5b505af115801562001106573d6000803e3d6000fd5b505050506040513d60208110156200111d57600080fd5b8101908080519060200190929190505050506200113962002a74565b60405180608001604052808a73ffffffffffffffffffffffffffffffffffffffff1681526020018873ffffffffffffffffffffffffffffffffffffffff1681526020018773ffffffffffffffffffffffffffffffffffffffff1681526020018673ffffffffffffffffffffffffffffffffffffffff1681525090506010819080600181540180825580915050906001820390600052602060002090600402016000909192909190915060008201518160000160006101000a81548173ffffffffffffffffffffffffffffffffffffffff021916908373ffffffffffffffffffffffffffffffffffffffff16021790555060208201518160010160006101000a81548173ffffffffffffffffffffffffffffffffffffffff021916908373ffffffffffffffffffffffffffffffffffffffff16021790555060408201518160020160006101000a81548173ffffffffffffffffffffffffffffffffffffffff021916908373ffffffffffffffffffffffffffffffffffffffff16021790555060608201518160030160006101000a81548173ffffffffffffffffffffffffffffffffffffffff021916908373ffffffffffffffffffffffffffffffffffffffff1602179055505050507f259b30ca39885c6d801a0b5dbc988640f3c25e2f37531fe138c5c5af8955d41b89888888604051808573ffffffffffffffffffffffffffffffffffffffff1673ffffffffffffffffffffffffffffffffffffffff1681526020018473ffffffffffffffffffffffffffffffffffffffff1673ffffffffffffffffffffffffffffffffffffffff1681526020018373ffffffffffffffffffffffffffffffffffffffff1673ffffffffffffffffffffffffffffffffffffffff1681526020018273ffffffffffffffffffffffffffffffffffffffff1673ffffffffffffffffffffffffffffffffffffffff16815260200194505050505060405180910390a1505050505050505050565b6200141f6200141962000a06565b62001c0b565b62001476576040517f08c379a0000000000000000000000000000000000000000000000000000000008152600401808060200182810382526040815260200180620034c36040913960400191505060405180910390fd5b620014818162002050565b50565b60006007544211905090565b620014a46200149e62000a06565b62001c0b565b620014fb576040517f08c379a0000000000000000000000000000000000000000000000000000000008152600401808060200182810382526040815260200180620034c36040913960400191505060405180910390fd5b6200150681620020ac565b50565b6000600454905090565b6000600854905090565b6000601080549050905090565b6000620015428260016200210890919063ffffffff16565b9050919050565b6000600554905090565b600a6020528060005260406000206000915090505481565b600060065442101580156200158257506007544211155b905090565b6000600754905090565b620015a56200159f62000a06565b620021e8565b565b6000600854620015b662001549565b1015905090565b6000600360009054906101000a900473ffffffffffffffffffffffffffffffffffffffff16905090565b620015f1620017c8565b62001664576040517f08c379a00000000000000000000000000000000000000000000000000000000081526004018080602001828103825260208152602001807f4f776e61626c653a2063616c6c6572206973206e6f7420746865206f776e657281525060200191505060405180910390fd5b600073ffffffffffffffffffffffffffffffffffffffff16600960009054906101000a900473ffffffffffffffffffffffffffffffffffffffff1673ffffffffffffffffffffffffffffffffffffffff167f8be0079c531659141344cd1fd0a4f28419497f9722a3daafe3b4186f6b6457e060405160405180910390a36000600960006101000a81548173ffffffffffffffffffffffffffffffffffffffff021916908373ffffffffffffffffffffffffffffffffffffffff160217905550565b620017396200173362000a06565b62001c0b565b62001790576040517f08c379a0000000000000000000000000000000000000000000000000000000008152600401808060200182810382526040815260200180620034c36040913960400191505060405180910390fd5b6200179b8162002244565b50565b6000600960009054906101000a900473ffffffffffffffffffffffffffffffffffffffff16905090565b6000600960009054906101000a900473ffffffffffffffffffffffffffffffffffffffff1673ffffffffffffffffffffffffffffffffffffffff166200180d62000a06565b73ffffffffffffffffffffffffffffffffffffffff1614905090565b600080600080601085815481106200183d57fe5b906000526020600020906004020160000160009054906101000a900473ffffffffffffffffffffffffffffffffffffffff16601086815481106200187d57fe5b906000526020600020906004020160010160009054906101000a900473ffffffffffffffffffffffffffffffffffffffff1660108781548110620018bd57fe5b906000526020600020906004020160020160009054906101000a900473ffffffffffffffffffffffffffffffffffffffff1660108881548110620018fd57fe5b906000526020600020906004020160030160009054906101000a900473ffffffffffffffffffffffffffffffffffffffff1693509350935093509193509193565b67016345785d8a000081565b62001954620017c8565b620019c7576040517f08c379a00000000000000000000000000000000000000000000000000000000081526004018080602001828103825260208152602001807f4f776e61626c653a2063616c6c6572206973206e6f7420746865206f776e657281525060200191505060405180910390fd5b600f54421162001a3f576040517f08c379a00000000000000000000000000000000000000000000000000000000081526004018080602001828103825260198152602001807f43726f776473617465206973207374696c6c206163746976650000000000000081525060200191505060405180910390fd5b6000600b60009054906101000a900473ffffffffffffffffffffffffffffffffffffffff16905060008173ffffffffffffffffffffffffffffffffffffffff166370a08231306040518263ffffffff1660e01b8152600401808273ffffffffffffffffffffffffffffffffffffffff1673ffffffffffffffffffffffffffffffffffffffff16815260200191505060206040518083038186803b15801562001ae657600080fd5b505afa15801562001afb573d6000803e3d6000fd5b505050506040513d602081101562001b1257600080fd5b810190808051906020019092919050505090508173ffffffffffffffffffffffffffffffffffffffff166342966c68826040518263ffffffff1660e01b815260040180828152602001915050600060405180830381600087803b15801562001b7957600080fd5b505af115801562001b8e573d6000803e3d6000fd5b505050507fcc16f5dbb4873280815c1ee09dbd06736cffcc184412cf7a71a0fdb75d397ca53382604051808373ffffffffffffffffffffffffffffffffffffffff1673ffffffffffffffffffffffffffffffffffffffff1681526020018281526020019250505060405180910390a15050565b6000600654905090565b600062001c238260006200210890919063ffffffff16565b9050919050565b62001c3e62001c3862000a06565b620020ac565b565b6812f939c99edab8000081565b62001c57620017c8565b62001cca576040517f08c379a00000000000000000000000000000000000000000000000000000000081526004018080602001828103825260208152602001807f4f776e61626c653a2063616c6c6572206973206e6f7420746865206f776e657281525060200191505060405180910390fd5b62001cd581620022a0565b50565b6000600260019054906101000a900473ffffffffffffffffffffffffffffffffffffffff16905090565b62001d0e8282620023e8565b600062001d6482600a60008673ffffffffffffffffffffffffffffffffffffffff1673ffffffffffffffffffffffffffffffffffffffff1681526020019081526020016000205462001e2090919063ffffffff16565b905067016345785d8a0000811015801562001d8857506812f939c99edab800008111155b62001dfb576040517f08c379a000000000000000000000000000000000000000000000000000000000815260040180806020018281038252601f8152602001807f496e766573746f722043415020696e206e6f7420696e20612072616e6765200081525060200191505060405180910390fd5b505050565b600062001e196004548362001f7990919063ffffffff16565b9050919050565b60008082840190508381101562001e9f576040517f08c379a000000000000000000000000000000000000000000000000000000000815260040180806020018281038252601b8152602001807f536166654d6174683a206164646974696f6e206f766572666c6f77000000000081525060200191505060405180910390fd5b8091505092915050565b62001eb582826200245a565b5050565b5050565b600360009054906101000a900473ffffffffffffffffffffffffffffffffffffffff1673ffffffffffffffffffffffffffffffffffffffff166108fc349081150290604051600060405180830381858888f1935050505015801562001f26573d6000803e3d6000fd5b50565b5050565b600062001f7183836040518060400160405280601a81526020017f536166654d6174683a206469766973696f6e206279207a65726f00000000000081525062002501565b905092915050565b60008083141562001f8e576000905062001ffe565b600082840290508284828162001fa057fe5b041462001ff9576040517f08c379a0000000000000000000000000000000000000000000000000000000008152600401808060200182810382526021815260200180620034806021913960400191505060405180910390fd5b809150505b92915050565b60006200204883836040518060400160405280601e81526020017f536166654d6174683a207375627472616374696f6e206f766572666c6f770000815250620025cc565b905092915050565b620020668160016200269090919063ffffffff16565b8073ffffffffffffffffffffffffffffffffffffffff167fee1504a83b6d4a361f4c1dc78ab59bfa30d6a3b6612c403e86bb01ef2984295f60405160405180910390a250565b620020c28160016200276e90919063ffffffff16565b8073ffffffffffffffffffffffffffffffffffffffff167f270d9b30cf5b0793bbfd54c9d5b94aeb49462b8148399000265144a8722da6b660405160405180910390a250565b60008073ffffffffffffffffffffffffffffffffffffffff168273ffffffffffffffffffffffffffffffffffffffff16141562002191576040517f08c379a0000000000000000000000000000000000000000000000000000000008152600401808060200182810382526022815260200180620034a16022913960400191505060405180910390fd5b8260000160008373ffffffffffffffffffffffffffffffffffffffff1673ffffffffffffffffffffffffffffffffffffffff16815260200190815260200160002060009054906101000a900460ff16905092915050565b620021fe8160006200276e90919063ffffffff16565b8073ffffffffffffffffffffffffffffffffffffffff167f0a8eb35e5ca14b3d6f28e4abf2f128dbab231a58b56e89beb5d636115001e16560405160405180910390a250565b6200225a8160006200269090919063ffffffff16565b8073ffffffffffffffffffffffffffffffffffffffff167f22380c05984257a1cb900161c713dd71d39e74820f1aea43bd3f1bdd2096129960405160405180910390a250565b600073ffffffffffffffffffffffffffffffffffffffff168173ffffffffffffffffffffffffffffffffffffffff16141562002328576040517f08c379a0000000000000000000000000000000000000000000000000000000008152600401808060200182810382526026815260200180620034396026913960400191505060405180910390fd5b8073ffffffffffffffffffffffffffffffffffffffff16600960009054906101000a900473ffffffffffffffffffffffffffffffffffffffff1673ffffffffffffffffffffffffffffffffffffffff167f8be0079c531659141344cd1fd0a4f28419497f9722a3daafe3b4186f6b6457e060405160405180910390a380600960006101000a81548173ffffffffffffffffffffffffffffffffffffffff021916908373ffffffffffffffffffffffffffffffffffffffff16021790555050565b620023f3826200152a565b6200244a576040517f08c379a0000000000000000000000000000000000000000000000000000000008152600401808060200182810382526041815260200180620033f86041913960600191505060405180910390fd5b6200245682826200282f565b5050565b620024ae34600a60008573ffffffffffffffffffffffffffffffffffffffff1673ffffffffffffffffffffffffffffffffffffffff1681526020019081526020016000205462001e2090919063ffffffff16565b600a60008473ffffffffffffffffffffffffffffffffffffffff1673ffffffffffffffffffffffffffffffffffffffff16815260200190815260200160002081905550620024fd828262000bad565b5050565b60008083118290620025b1576040517f08c379a00000000000000000000000000000000000000000000000000000000081526004018080602001828103825283818151815260200191508051906020019080838360005b838110156200257557808201518184015260208101905062002558565b50505050905090810190601f168015620025a35780820380516001836020036101000a031916815260200191505b509250505060405180910390fd5b506000838581620025be57fe5b049050809150509392505050565b60008383111582906200267d576040517f08c379a00000000000000000000000000000000000000000000000000000000081526004018080602001828103825283818151815260200191508051906020019080838360005b838110156200264157808201518184015260208101905062002624565b50505050905090810190601f1680156200266f5780820380516001836020036101000a031916815260200191505b509250505060405180910390fd5b5060008385039050809150509392505050565b6200269c828262002108565b1562002710576040517f08c379a000000000000000000000000000000000000000000000000000000000815260040180806020018281038252601f8152602001807f526f6c65733a206163636f756e7420616c72656164792068617320726f6c650081525060200191505060405180910390fd5b60018260000160008373ffffffffffffffffffffffffffffffffffffffff1673ffffffffffffffffffffffffffffffffffffffff16815260200190815260200160002060006101000a81548160ff0219169083151502179055505050565b6200277a828262002108565b620027d1576040517f08c379a00000000000000000000000000000000000000000000000000000000081526004018080602001828103825260218152602001806200345f6021913960400191505060405180910390fd5b60008260000160008373ffffffffffffffffffffffffffffffffffffffff1673ffffffffffffffffffffffffffffffffffffffff16815260200190815260200160002060006101000a81548160ff0219169083151502179055505050565b6200283b8282620028d5565b6008546200285c826200284d62001549565b62001e2090919063ffffffff16565b1115620028d1576040517f08c379a000000000000000000000000000000000000000000000000000000000815260040180806020018281038252601d8152602001807f43617070656443726f776473616c653a2063617020657863656564656400000081525060200191505060405180910390fd5b5050565b620028df6200156b565b62002952576040517f08c379a00000000000000000000000000000000000000000000000000000000081526004018080602001828103825260188152602001807f54696d656443726f776473616c653a206e6f74206f70656e000000000000000081525060200191505060405180910390fd5b6200295e828262002962565b5050565b600073ffffffffffffffffffffffffffffffffffffffff168273ffffffffffffffffffffffffffffffffffffffff161415620029ea576040517f08c379a000000000000000000000000000000000000000000000000000000000815260040180806020018281038252602a81526020018062003503602a913960400191505060405180910390fd5b600081141562002a62576040517f08c379a00000000000000000000000000000000000000000000000000000000081526004018080602001828103825260198152602001807f43726f776473616c653a20776569416d6f756e7420697320300000000000000081525060200191505060405180910390fd5b5050565b6109038062002af583390190565b6040518060800160405280600073ffffffffffffffffffffffffffffffffffffffff168152602001600073ffffffffffffffffffffffffffffffffffffffff168152602001600073ffffffffffffffffffffffffffffffffffffffff168152602001600073ffffffffffffffffffffffffffffffffffffffff168152509056fe608060405234801561001057600080fd5b506040516109033803806109038339818101604052606081101561003357600080fd5b810190808051906020019092919080519060200190929190805190602001909291905050504281116100b0576040517f08c379a00000000000000000000000000000000000000000000000000000000081526004018080602001828103825260328152602001806108d16032913960400191505060405180910390fd5b826000806101000a81548173ffffffffffffffffffffffffffffffffffffffff021916908373ffffffffffffffffffffffffffffffffffffffff16021790555081600160006101000a81548173ffffffffffffffffffffffffffffffffffffffff021916908373ffffffffffffffffffffffffffffffffffffffff160217905550806002819055505050506107878061014a6000396000f3fe608060405234801561001057600080fd5b506004361061004c5760003560e01c806338af3eed1461005157806386d1a69f1461009b578063b91d4001146100a5578063fc0c546a146100c3575b600080fd5b61005961010d565b604051808273ffffffffffffffffffffffffffffffffffffffff1673ffffffffffffffffffffffffffffffffffffffff16815260200191505060405180910390f35b6100a3610137565b005b6100ad610339565b6040518082815260200191505060405180910390f35b6100cb610343565b604051808273ffffffffffffffffffffffffffffffffffffffff1673ffffffffffffffffffffffffffffffffffffffff16815260200191505060405180910390f35b6000600160009054906101000a900473ffffffffffffffffffffffffffffffffffffffff16905090565b600254421015610192576040517f08c379a00000000000000000000000000000000000000000000000000000000081526004018080602001828103825260328152602001806106d46032913960400191505060405180910390fd5b60008060009054906101000a900473ffffffffffffffffffffffffffffffffffffffff1673ffffffffffffffffffffffffffffffffffffffff166370a08231306040518263ffffffff1660e01b8152600401808273ffffffffffffffffffffffffffffffffffffffff1673ffffffffffffffffffffffffffffffffffffffff16815260200191505060206040518083038186803b15801561023257600080fd5b505afa158015610246573d6000803e3d6000fd5b505050506040513d602081101561025c57600080fd5b81019080805190602001909291905050509050600081116102c8576040517f08c379a00000000000000000000000000000000000000000000000000000000081526004018080602001828103825260238152602001806107306023913960400191505060405180910390fd5b610336600160009054906101000a900473ffffffffffffffffffffffffffffffffffffffff16826000809054906101000a900473ffffffffffffffffffffffffffffffffffffffff1673ffffffffffffffffffffffffffffffffffffffff1661036c9092919063ffffffff16565b50565b6000600254905090565b60008060009054906101000a900473ffffffffffffffffffffffffffffffffffffffff16905090565b610438838473ffffffffffffffffffffffffffffffffffffffff1663a9059cbb905060e01b8484604051602401808373ffffffffffffffffffffffffffffffffffffffff1673ffffffffffffffffffffffffffffffffffffffff16815260200182815260200192505050604051602081830303815290604052907bffffffffffffffffffffffffffffffffffffffffffffffffffffffff19166020820180517bffffffffffffffffffffffffffffffffffffffffffffffffffffffff838183161783525050505061043d565b505050565b61045c8273ffffffffffffffffffffffffffffffffffffffff16610688565b6104ce576040517f08c379a000000000000000000000000000000000000000000000000000000000815260040180806020018281038252601f8152602001807f5361666545524332303a2063616c6c20746f206e6f6e2d636f6e74726163740081525060200191505060405180910390fd5b600060608373ffffffffffffffffffffffffffffffffffffffff16836040518082805190602001908083835b6020831061051d57805182526020820191506020810190506020830392506104fa565b6001836020036101000a0380198251168184511680821785525050505050509050019150506000604051808303816000865af19150503d806000811461057f576040519150601f19603f3d011682016040523d82523d6000602084013e610584565b606091505b5091509150816105fc576040517f08c379a00000000000000000000000000000000000000000000000000000000081526004018080602001828103825260208152602001807f5361666545524332303a206c6f772d6c6576656c2063616c6c206661696c656481525060200191505060405180910390fd5b6000815111156106825780806020019051602081101561061b57600080fd5b8101908080519060200190929190505050610681576040517f08c379a000000000000000000000000000000000000000000000000000000000815260040180806020018281038252602a815260200180610706602a913960400191505060405180910390fd5b5b50505050565b60008060007fc5d2460186f7233c927e7db2dcc703c0e500b653ca82273b7bfad8045d85a47060001b9050833f91508082141580156106ca57506000801b8214155b9250505091905056fe546f6b656e54696d656c6f636b3a2063757272656e742074696d65206973206265666f72652072656c656173652074696d655361666545524332303a204552433230206f7065726174696f6e20646964206e6f742073756363656564546f6b656e54696d656c6f636b3a206e6f20746f6b656e7320746f2072656c65617365a265627a7a72315820f5d904a826b538a5450fb35265b233ff0794bca4fb12ccdd95ad30a87250949864736f6c63430005110032546f6b656e54696d656c6f636b3a2072656c656173652074696d65206973206265666f72652063757272656e742074696d6557686974656c69737443726f776473616c653a2062656e656669636961727920646f65736e27742068617665207468652057686974656c697374656420726f6c654f776e61626c653a206e6577206f776e657220697320746865207a65726f2061646472657373526f6c65733a206163636f756e7420646f6573206e6f74206861766520726f6c65536166654d6174683a206d756c7469706c69636174696f6e206f766572666c6f77526f6c65733a206163636f756e7420697320746865207a65726f206164647265737357686974656c69737441646d696e526f6c653a2063616c6c657220646f6573206e6f742068617665207468652057686974656c69737441646d696e20726f6c6543726f776473616c653a2062656e656669636961727920697320746865207a65726f2061646472657373a265627a7a723158205bd5d6a28ea0554f008a1e8a981b7f17835e5990f641b765c0bdf02d233eb43f64736f6c6343000511003254696d656443726f776473616c653a206f70656e696e672074696d65206973206265666f72652063757272656e742074696d6554696d656443726f776473616c653a206f70656e696e672074696d65206973206e6f74206265666f726520636c6f73696e672074696d6543726f776473616c653a20746f6b656e20697320746865207a65726f2061646472657373526f6c65733a206163636f756e7420697320746865207a65726f206164647265737343726f776473616c653a2077616c6c657420697320746865207a65726f2061646472657373",
			"opcodes": "PUSH1 0x80 PUSH1 0x40 MSTORE CALLVALUE DUP1 ISZERO PUSH3 0x11 JUMPI PUSH1 0x0 DUP1 REVERT JUMPDEST POP PUSH1 0x40 MLOAD PUSH3 0x3DC1 CODESIZE SUB DUP1 PUSH3 0x3DC1 DUP4 CODECOPY DUP2 DUP2 ADD PUSH1 0x40 MSTORE PUSH2 0x120 DUP2 LT ISZERO PUSH3 0x38 JUMPI PUSH1 0x0 DUP1 REVERT JUMPDEST DUP2 ADD SWAP1 DUP1 DUP1 MLOAD SWAP1 PUSH1 0x20 ADD SWAP1 SWAP3 SWAP2 SWAP1 DUP1 MLOAD SWAP1 PUSH1 0x20 ADD SWAP1 SWAP3 SWAP2 SWAP1 DUP1 MLOAD SWAP1 PUSH1 0x20 ADD SWAP1 SWAP3 SWAP2 SWAP1 DUP1 MLOAD SWAP1 PUSH1 0x20 ADD SWAP1 SWAP3 SWAP2 SWAP1 DUP1 MLOAD SWAP1 PUSH1 0x20 ADD SWAP1 SWAP3 SWAP2 SWAP1 DUP1 MLOAD SWAP1 PUSH1 0x20 ADD SWAP1 SWAP3 SWAP2 SWAP1 DUP1 MLOAD SWAP1 PUSH1 0x20 ADD SWAP1 SWAP3 SWAP2 SWAP1 DUP1 MLOAD SWAP1 PUSH1 0x20 ADD SWAP1 SWAP3 SWAP2 SWAP1 DUP1 MLOAD SWAP1 PUSH1 0x20 ADD SWAP1 SWAP3 SWAP2 SWAP1 POP POP POP DUP6 DUP6 DUP6 DUP12 DUP12 DUP12 PUSH3 0xBF PUSH3 0xB3 PUSH3 0x54E PUSH1 0x20 SHL PUSH1 0x20 SHR JUMP JUMPDEST PUSH3 0x556 PUSH1 0x20 SHL PUSH1 0x20 SHR JUMP JUMPDEST PUSH1 0x1 PUSH1 0x2 PUSH1 0x0 PUSH2 0x100 EXP DUP2 SLOAD DUP2 PUSH1 0xFF MUL NOT AND SWAP1 DUP4 ISZERO ISZERO MUL OR SWAP1 SSTORE POP PUSH1 0x0 DUP4 GT PUSH3 0x151 JUMPI PUSH1 0x40 MLOAD PUSH32 0x8C379A000000000000000000000000000000000000000000000000000000000 DUP2 MSTORE PUSH1 0x4 ADD DUP1 DUP1 PUSH1 0x20 ADD DUP3 DUP2 SUB DUP3 MSTORE PUSH1 0x14 DUP2 MSTORE PUSH1 0x20 ADD DUP1 PUSH32 0x43726F776473616C653A20726174652069732030000000000000000000000000 DUP2 MSTORE POP PUSH1 0x20 ADD SWAP2 POP POP PUSH1 0x40 MLOAD DUP1 SWAP2 SUB SWAP1 REVERT JUMPDEST PUSH1 0x0 PUSH20 0xFFFFFFFFFFFFFFFFFFFFFFFFFFFFFFFFFFFFFFFF AND DUP3 PUSH20 0xFFFFFFFFFFFFFFFFFFFFFFFFFFFFFFFFFFFFFFFF AND EQ ISZERO PUSH3 0x1D9 JUMPI PUSH1 0x40 MLOAD PUSH32 0x8C379A000000000000000000000000000000000000000000000000000000000 DUP2 MSTORE PUSH1 0x4 ADD DUP1 DUP1 PUSH1 0x20 ADD DUP3 DUP2 SUB DUP3 MSTORE PUSH1 0x25 DUP2 MSTORE PUSH1 0x20 ADD DUP1 PUSH3 0x3D9C PUSH1 0x25 SWAP2 CODECOPY PUSH1 0x40 ADD SWAP2 POP POP PUSH1 0x40 MLOAD DUP1 SWAP2 SUB SWAP1 REVERT JUMPDEST PUSH1 0x0 PUSH20 0xFFFFFFFFFFFFFFFFFFFFFFFFFFFFFFFFFFFFFFFF AND DUP2 PUSH20 0xFFFFFFFFFFFFFFFFFFFFFFFFFFFFFFFFFFFFFFFF AND EQ ISZERO PUSH3 0x261 JUMPI PUSH1 0x40 MLOAD PUSH32 0x8C379A000000000000000000000000000000000000000000000000000000000 DUP2 MSTORE PUSH1 0x4 ADD DUP1 DUP1 PUSH1 0x20 ADD DUP3 DUP2 SUB DUP3 MSTORE PUSH1 0x24 DUP2 MSTORE PUSH1 0x20 ADD DUP1 PUSH3 0x3D56 PUSH1 0x24 SWAP2 CODECOPY PUSH1 0x40 ADD SWAP2 POP POP PUSH1 0x40 MLOAD DUP1 SWAP2 SUB SWAP1 REVERT JUMPDEST DUP3 PUSH1 0x4 DUP2 SWAP1 SSTORE POP DUP2 PUSH1 0x3 PUSH1 0x0 PUSH2 0x100 EXP DUP2 SLOAD DUP2 PUSH20 0xFFFFFFFFFFFFFFFFFFFFFFFFFFFFFFFFFFFFFFFF MUL NOT AND SWAP1 DUP4 PUSH20 0xFFFFFFFFFFFFFFFFFFFFFFFFFFFFFFFFFFFFFFFF AND MUL OR SWAP1 SSTORE POP DUP1 PUSH1 0x2 PUSH1 0x1 PUSH2 0x100 EXP DUP2 SLOAD DUP2 PUSH20 0xFFFFFFFFFFFFFFFFFFFFFFFFFFFFFFFFFFFFFFFF MUL NOT AND SWAP1 DUP4 PUSH20 0xFFFFFFFFFFFFFFFFFFFFFFFFFFFFFFFFFFFFFFFF AND MUL OR SWAP1 SSTORE POP POP POP POP TIMESTAMP DUP3 LT ISZERO PUSH3 0x348 JUMPI PUSH1 0x40 MLOAD PUSH32 0x8C379A000000000000000000000000000000000000000000000000000000000 DUP2 MSTORE PUSH1 0x4 ADD DUP1 DUP1 PUSH1 0x20 ADD DUP3 DUP2 SUB DUP3 MSTORE PUSH1 0x33 DUP2 MSTORE PUSH1 0x20 ADD DUP1 PUSH3 0x3CEC PUSH1 0x33 SWAP2 CODECOPY PUSH1 0x40 ADD SWAP2 POP POP PUSH1 0x40 MLOAD DUP1 SWAP2 SUB SWAP1 REVERT JUMPDEST DUP2 DUP2 GT PUSH3 0x3A2 JUMPI PUSH1 0x40 MLOAD PUSH32 0x8C379A000000000000000000000000000000000000000000000000000000000 DUP2 MSTORE PUSH1 0x4 ADD DUP1 DUP1 PUSH1 0x20 ADD DUP3 DUP2 SUB DUP3 MSTORE PUSH1 0x37 DUP2 MSTORE PUSH1 0x20 ADD DUP1 PUSH3 0x3D1F PUSH1 0x37 SWAP2 CODECOPY PUSH1 0x40 ADD SWAP2 POP POP PUSH1 0x40 MLOAD DUP1 SWAP2 SUB SWAP1 REVERT JUMPDEST DUP2 PUSH1 0x6 DUP2 SWAP1 SSTORE POP DUP1 PUSH1 0x7 DUP2 SWAP1 SSTORE POP POP POP PUSH1 0x0 DUP2 GT PUSH3 0x429 JUMPI PUSH1 0x40 MLOAD PUSH32 0x8C379A000000000000000000000000000000000000000000000000000000000 DUP2 MSTORE PUSH1 0x4 ADD DUP1 DUP1 PUSH1 0x20 ADD DUP3 DUP2 SUB DUP3 MSTORE PUSH1 0x19 DUP2 MSTORE PUSH1 0x20 ADD DUP1 PUSH32 0x43617070656443726F776473616C653A20636170206973203000000000000000 DUP2 MSTORE POP PUSH1 0x20 ADD SWAP2 POP POP PUSH1 0x40 MLOAD DUP1 SWAP2 SUB SWAP1 REVERT JUMPDEST DUP1 PUSH1 0x8 DUP2 SWAP1 SSTORE POP POP PUSH1 0x0 PUSH3 0x443 PUSH3 0x54E PUSH1 0x20 SHL PUSH1 0x20 SHR JUMP JUMPDEST SWAP1 POP DUP1 PUSH1 0x9 PUSH1 0x0 PUSH2 0x100 EXP DUP2 SLOAD DUP2 PUSH20 0xFFFFFFFFFFFFFFFFFFFFFFFFFFFFFFFFFFFFFFFF MUL NOT AND SWAP1 DUP4 PUSH20 0xFFFFFFFFFFFFFFFFFFFFFFFFFFFFFFFFFFFFFFFF AND MUL OR SWAP1 SSTORE POP DUP1 PUSH20 0xFFFFFFFFFFFFFFFFFFFFFFFFFFFFFFFFFFFFFFFF AND PUSH1 0x0 PUSH20 0xFFFFFFFFFFFFFFFFFFFFFFFFFFFFFFFFFFFFFFFF AND PUSH32 0x8BE0079C531659141344CD1FD0A4F28419497F9722A3DAAFE3B4186F6B6457E0 PUSH1 0x40 MLOAD PUSH1 0x40 MLOAD DUP1 SWAP2 SUB SWAP1 LOG3 POP DUP7 PUSH1 0xB PUSH1 0x0 PUSH2 0x100 EXP DUP2 SLOAD DUP2 PUSH20 0xFFFFFFFFFFFFFFFFFFFFFFFFFFFFFFFFFFFFFFFF MUL NOT AND SWAP1 DUP4 PUSH20 0xFFFFFFFFFFFFFFFFFFFFFFFFFFFFFFFFFFFFFFFF AND MUL OR SWAP1 SSTORE POP DUP3 PUSH1 0xC DUP2 SWAP1 SSTORE POP DUP2 PUSH1 0xD DUP2 SWAP1 SSTORE POP DUP1 PUSH1 0xE DUP2 SWAP1 SSTORE POP DUP4 PUSH1 0xF DUP2 SWAP1 SSTORE POP POP POP POP POP POP POP POP POP POP PUSH3 0x77B JUMP JUMPDEST PUSH1 0x0 CALLER SWAP1 POP SWAP1 JUMP JUMPDEST PUSH3 0x571 DUP2 PUSH1 0x0 PUSH3 0x5B7 PUSH1 0x20 SHL PUSH3 0x2690 OR SWAP1 SWAP2 SWAP1 PUSH1 0x20 SHR JUMP JUMPDEST DUP1 PUSH20 0xFFFFFFFFFFFFFFFFFFFFFFFFFFFFFFFFFFFFFFFF AND PUSH32 0x22380C05984257A1CB900161C713DD71D39E74820F1AEA43BD3F1BDD20961299 PUSH1 0x40 MLOAD PUSH1 0x40 MLOAD DUP1 SWAP2 SUB SWAP1 LOG2 POP JUMP JUMPDEST PUSH3 0x5C9 DUP3 DUP3 PUSH3 0x69B PUSH1 0x20 SHL PUSH1 0x20 SHR JUMP JUMPDEST ISZERO PUSH3 0x63D JUMPI PUSH1 0x40 MLOAD PUSH32 0x8C379A000000000000000000000000000000000000000000000000000000000 DUP2 MSTORE PUSH1 0x4 ADD DUP1 DUP1 PUSH1 0x20 ADD DUP3 DUP2 SUB DUP3 MSTORE PUSH1 0x1F DUP2 MSTORE PUSH1 0x20 ADD DUP1 PUSH32 0x526F6C65733A206163636F756E7420616C72656164792068617320726F6C6500 DUP2 MSTORE POP PUSH1 0x20 ADD SWAP2 POP POP PUSH1 0x40 MLOAD DUP1 SWAP2 SUB SWAP1 REVERT JUMPDEST PUSH1 0x1 DUP3 PUSH1 0x0 ADD PUSH1 0x0 DUP4 PUSH20 0xFFFFFFFFFFFFFFFFFFFFFFFFFFFFFFFFFFFFFFFF AND PUSH20 0xFFFFFFFFFFFFFFFFFFFFFFFFFFFFFFFFFFFFFFFF AND DUP2 MSTORE PUSH1 0x20 ADD SWAP1 DUP2 MSTORE PUSH1 0x20 ADD PUSH1 0x0 KECCAK256 PUSH1 0x0 PUSH2 0x100 EXP DUP2 SLOAD DUP2 PUSH1 0xFF MUL NOT AND SWAP1 DUP4 ISZERO ISZERO MUL OR SWAP1 SSTORE POP POP POP JUMP JUMPDEST PUSH1 0x0 DUP1 PUSH20 0xFFFFFFFFFFFFFFFFFFFFFFFFFFFFFFFFFFFFFFFF AND DUP3 PUSH20 0xFFFFFFFFFFFFFFFFFFFFFFFFFFFFFFFFFFFFFFFF AND EQ ISZERO PUSH3 0x724 JUMPI PUSH1 0x40 MLOAD PUSH32 0x8C379A000000000000000000000000000000000000000000000000000000000 DUP2 MSTORE PUSH1 0x4 ADD DUP1 DUP1 PUSH1 0x20 ADD DUP3 DUP2 SUB DUP3 MSTORE PUSH1 0x22 DUP2 MSTORE PUSH1 0x20 ADD DUP1 PUSH3 0x3D7A PUSH1 0x22 SWAP2 CODECOPY PUSH1 0x40 ADD SWAP2 POP POP PUSH1 0x40 MLOAD DUP1 SWAP2 SUB SWAP1 REVERT JUMPDEST DUP3 PUSH1 0x0 ADD PUSH1 0x0 DUP4 PUSH20 0xFFFFFFFFFFFFFFFFFFFFFFFFFFFFFFFFFFFFFFFF AND PUSH20 0xFFFFFFFFFFFFFFFFFFFFFFFFFFFFFFFFFFFFFFFF AND DUP2 MSTORE PUSH1 0x20 ADD SWAP1 DUP2 MSTORE PUSH1 0x20 ADD PUSH1 0x0 KECCAK256 PUSH1 0x0 SWAP1 SLOAD SWAP1 PUSH2 0x100 EXP SWAP1 DIV PUSH1 0xFF AND SWAP1 POP SWAP3 SWAP2 POP POP JUMP JUMPDEST PUSH2 0x3561 DUP1 PUSH3 0x78B PUSH1 0x0 CODECOPY PUSH1 0x0 RETURN INVALID PUSH1 0x80 PUSH1 0x40 MSTORE PUSH1 0x4 CALLDATASIZE LT PUSH3 0x1ED JUMPI PUSH1 0x0 CALLDATALOAD PUSH1 0xE0 SHR DUP1 PUSH4 0x521EB273 GT PUSH3 0x10F JUMPI DUP1 PUSH4 0xB52A5851 GT PUSH3 0xA3 JUMPI DUP1 PUSH4 0xEC8AC4D8 GT PUSH3 0x6D JUMPI DUP1 PUSH4 0xEC8AC4D8 EQ PUSH3 0x8E2 JUMPI DUP1 PUSH4 0xED5DB874 EQ PUSH3 0x929 JUMPI DUP1 PUSH4 0xF2FDE38B EQ PUSH3 0x957 JUMPI DUP1 PUSH4 0xFC0C546A EQ PUSH3 0x9AC JUMPI PUSH3 0x1ED JUMP JUMPDEST DUP1 PUSH4 0xB52A5851 EQ PUSH3 0x813 JUMPI DUP1 PUSH4 0xB7A8807C EQ PUSH3 0x82D JUMPI DUP1 PUSH4 0xBB5F747B EQ PUSH3 0x85B JUMPI DUP1 PUSH4 0xD6CD9473 EQ PUSH3 0x8C8 JUMPI PUSH3 0x1ED JUMP JUMPDEST DUP1 PUSH4 0x8DA5CB5B GT PUSH3 0xE5 JUMPI DUP1 PUSH4 0x8DA5CB5B EQ PUSH3 0x641 JUMPI DUP1 PUSH4 0x8F32D59B EQ PUSH3 0x69B JUMPI DUP1 PUSH4 0x992245D3 EQ PUSH3 0x6CD JUMPI DUP1 PUSH4 0xB25D7F54 EQ PUSH3 0x7E5 JUMPI PUSH3 0x1ED JUMP JUMPDEST DUP1 PUSH4 0x521EB273 EQ PUSH3 0x578 JUMPI DUP1 PUSH4 0x715018A6 EQ PUSH3 0x5D2 JUMPI DUP1 PUSH4 0x7362D9C8 EQ PUSH3 0x5EC JUMPI PUSH3 0x1ED JUMP JUMPDEST DUP1 PUSH4 0x3AF32ABF GT PUSH3 0x187 JUMPI DUP1 PUSH4 0x47535D7B GT PUSH3 0x15D JUMPI DUP1 PUSH4 0x47535D7B EQ PUSH3 0x4CC JUMPI DUP1 PUSH4 0x4B6753BC EQ PUSH3 0x4FE JUMPI DUP1 PUSH4 0x4C5A628C EQ PUSH3 0x52C JUMPI DUP1 PUSH4 0x4F935945 EQ PUSH3 0x546 JUMPI PUSH3 0x1ED JUMP JUMPDEST DUP1 PUSH4 0x3AF32ABF EQ PUSH3 0x3C8 JUMPI DUP1 PUSH4 0x4042B66F EQ PUSH3 0x435 JUMPI DUP1 PUSH4 0x42E94C90 EQ PUSH3 0x463 JUMPI PUSH3 0x1ED JUMP JUMPDEST DUP1 PUSH4 0x291D9549 GT PUSH3 0x1C9 JUMPI DUP1 PUSH4 0x291D9549 EQ PUSH3 0x2E9 JUMPI DUP1 PUSH4 0x2C4E722E EQ PUSH3 0x33E JUMPI DUP1 PUSH4 0x355274EA EQ PUSH3 0x36C JUMPI DUP1 PUSH4 0x3ABD0136 EQ PUSH3 0x39A JUMPI PUSH3 0x1ED JUMP JUMPDEST DUP1 PUSH3 0x1EC835 EQ PUSH3 0x203 JUMPI DUP1 PUSH4 0x10154BAD EQ PUSH3 0x262 JUMPI DUP1 PUSH4 0x1515BC2B EQ PUSH3 0x2B7 JUMPI JUMPDEST PUSH3 0x201 PUSH3 0x1FB PUSH3 0xA06 JUMP JUMPDEST PUSH3 0xA0E JUMP JUMPDEST STOP JUMPDEST CALLVALUE DUP1 ISZERO PUSH3 0x210 JUMPI PUSH1 0x0 DUP1 REVERT JUMPDEST POP PUSH3 0x260 PUSH1 0x4 DUP1 CALLDATASIZE SUB PUSH1 0x40 DUP2 LT ISZERO PUSH3 0x229 JUMPI PUSH1 0x0 DUP1 REVERT JUMPDEST DUP2 ADD SWAP1 DUP1 DUP1 CALLDATALOAD PUSH20 0xFFFFFFFFFFFFFFFFFFFFFFFFFFFFFFFFFFFFFFFF AND SWAP1 PUSH1 0x20 ADD SWAP1 SWAP3 SWAP2 SWAP1 DUP1 CALLDATALOAD SWAP1 PUSH1 0x20 ADD SWAP1 SWAP3 SWAP2 SWAP1 POP POP POP PUSH3 0xBAD JUMP JUMPDEST STOP JUMPDEST CALLVALUE DUP1 ISZERO PUSH3 0x26F JUMPI PUSH1 0x0 DUP1 REVERT JUMPDEST POP PUSH3 0x2B5 PUSH1 0x4 DUP1 CALLDATASIZE SUB PUSH1 0x20 DUP2 LT ISZERO PUSH3 0x288 JUMPI PUSH1 0x0 DUP1 REVERT JUMPDEST DUP2 ADD SWAP1 DUP1 DUP1 CALLDATALOAD PUSH20 0xFFFFFFFFFFFFFFFFFFFFFFFFFFFFFFFFFFFFFFFF AND SWAP1 PUSH1 0x20 ADD SWAP1 SWAP3 SWAP2 SWAP1 POP POP POP PUSH3 0x140B JUMP JUMPDEST STOP JUMPDEST CALLVALUE DUP1 ISZERO PUSH3 0x2C4 JUMPI PUSH1 0x0 DUP1 REVERT JUMPDEST POP PUSH3 0x2CF PUSH3 0x1484 JUMP JUMPDEST PUSH1 0x40 MLOAD DUP1 DUP3 ISZERO ISZERO ISZERO ISZERO DUP2 MSTORE PUSH1 0x20 ADD SWAP2 POP POP PUSH1 0x40 MLOAD DUP1 SWAP2 SUB SWAP1 RETURN JUMPDEST CALLVALUE DUP1 ISZERO PUSH3 0x2F6 JUMPI PUSH1 0x0 DUP1 REVERT JUMPDEST POP PUSH3 0x33C PUSH1 0x4 DUP1 CALLDATASIZE SUB PUSH1 0x20 DUP2 LT ISZERO PUSH3 0x30F JUMPI PUSH1 0x0 DUP1 REVERT JUMPDEST DUP2 ADD SWAP1 DUP1 DUP1 CALLDATALOAD PUSH20 0xFFFFFFFFFFFFFFFFFFFFFFFFFFFFFFFFFFFFFFFF AND SWAP1 PUSH1 0x20 ADD SWAP1 SWAP3 SWAP2 SWAP1 POP POP POP PUSH3 0x1490 JUMP JUMPDEST STOP JUMPDEST CALLVALUE DUP1 ISZERO PUSH3 0x34B JUMPI PUSH1 0x0 DUP1 REVERT JUMPDEST POP PUSH3 0x356 PUSH3 0x1509 JUMP JUMPDEST PUSH1 0x40 MLOAD DUP1 DUP3 DUP2 MSTORE PUSH1 0x20 ADD SWAP2 POP POP PUSH1 0x40 MLOAD DUP1 SWAP2 SUB SWAP1 RETURN JUMPDEST CALLVALUE DUP1 ISZERO PUSH3 0x379 JUMPI PUSH1 0x0 DUP1 REVERT JUMPDEST POP PUSH3 0x384 PUSH3 0x1513 JUMP JUMPDEST PUSH1 0x40 MLOAD DUP1 DUP3 DUP2 MSTORE PUSH1 0x20 ADD SWAP2 POP POP PUSH1 0x40 MLOAD DUP1 SWAP2 SUB SWAP1 RETURN JUMPDEST CALLVALUE DUP1 ISZERO PUSH3 0x3A7 JUMPI PUSH1 0x0 DUP1 REVERT JUMPDEST POP PUSH3 0x3B2 PUSH3 0x151D JUMP JUMPDEST PUSH1 0x40 MLOAD DUP1 DUP3 DUP2 MSTORE PUSH1 0x20 ADD SWAP2 POP POP PUSH1 0x40 MLOAD DUP1 SWAP2 SUB SWAP1 RETURN JUMPDEST CALLVALUE DUP1 ISZERO PUSH3 0x3D5 JUMPI PUSH1 0x0 DUP1 REVERT JUMPDEST POP PUSH3 0x41B PUSH1 0x4 DUP1 CALLDATASIZE SUB PUSH1 0x20 DUP2 LT ISZERO PUSH3 0x3EE JUMPI PUSH1 0x0 DUP1 REVERT JUMPDEST DUP2 ADD SWAP1 DUP1 DUP1 CALLDATALOAD PUSH20 0xFFFFFFFFFFFFFFFFFFFFFFFFFFFFFFFFFFFFFFFF AND SWAP1 PUSH1 0x20 ADD SWAP1 SWAP3 SWAP2 SWAP1 POP POP POP PUSH3 0x152A JUMP JUMPDEST PUSH1 0x40 MLOAD DUP1 DUP3 ISZERO ISZERO ISZERO ISZERO DUP2 MSTORE PUSH1 0x20 ADD SWAP2 POP POP PUSH1 0x40 MLOAD DUP1 SWAP2 SUB SWAP1 RETURN JUMPDEST CALLVALUE DUP1 ISZERO PUSH3 0x442 JUMPI PUSH1 0x0 DUP1 REVERT JUMPDEST POP PUSH3 0x44D PUSH3 0x1549 JUMP JUMPDEST PUSH1 0x40 MLOAD DUP1 DUP3 DUP2 MSTORE PUSH1 0x20 ADD SWAP2 POP POP PUSH1 0x40 MLOAD DUP1 SWAP2 SUB SWAP1 RETURN JUMPDEST CALLVALUE DUP1 ISZERO PUSH3 0x470 JUMPI PUSH1 0x0 DUP1 REVERT JUMPDEST POP PUSH3 0x4B6 PUSH1 0x4 DUP1 CALLDATASIZE SUB PUSH1 0x20 DUP2 LT ISZERO PUSH3 0x489 JUMPI PUSH1 0x0 DUP1 REVERT JUMPDEST DUP2 ADD SWAP1 DUP1 DUP1 CALLDATALOAD PUSH20 0xFFFFFFFFFFFFFFFFFFFFFFFFFFFFFFFFFFFFFFFF AND SWAP1 PUSH1 0x20 ADD SWAP1 SWAP3 SWAP2 SWAP1 POP POP POP PUSH3 0x1553 JUMP JUMPDEST PUSH1 0x40 MLOAD DUP1 DUP3 DUP2 MSTORE PUSH1 0x20 ADD SWAP2 POP POP PUSH1 0x40 MLOAD DUP1 SWAP2 SUB SWAP1 RETURN JUMPDEST CALLVALUE DUP1 ISZERO PUSH3 0x4D9 JUMPI PUSH1 0x0 DUP1 REVERT JUMPDEST POP PUSH3 0x4E4 PUSH3 0x156B JUMP JUMPDEST PUSH1 0x40 MLOAD DUP1 DUP3 ISZERO ISZERO ISZERO ISZERO DUP2 MSTORE PUSH1 0x20 ADD SWAP2 POP POP PUSH1 0x40 MLOAD DUP1 SWAP2 SUB SWAP1 RETURN JUMPDEST CALLVALUE DUP1 ISZERO PUSH3 0x50B JUMPI PUSH1 0x0 DUP1 REVERT JUMPDEST POP PUSH3 0x516 PUSH3 0x1587 JUMP JUMPDEST PUSH1 0x40 MLOAD DUP1 DUP3 DUP2 MSTORE PUSH1 0x20 ADD SWAP2 POP POP PUSH1 0x40 MLOAD DUP1 SWAP2 SUB SWAP1 RETURN JUMPDEST CALLVALUE DUP1 ISZERO PUSH3 0x539 JUMPI PUSH1 0x0 DUP1 REVERT JUMPDEST POP PUSH3 0x544 PUSH3 0x1591 JUMP JUMPDEST STOP JUMPDEST CALLVALUE DUP1 ISZERO PUSH3 0x553 JUMPI PUSH1 0x0 DUP1 REVERT JUMPDEST POP PUSH3 0x55E PUSH3 0x15A7 JUMP JUMPDEST PUSH1 0x40 MLOAD DUP1 DUP3 ISZERO ISZERO ISZERO ISZERO DUP2 MSTORE PUSH1 0x20 ADD SWAP2 POP POP PUSH1 0x40 MLOAD DUP1 SWAP2 SUB SWAP1 RETURN JUMPDEST CALLVALUE DUP1 ISZERO PUSH3 0x585 JUMPI PUSH1 0x0 DUP1 REVERT JUMPDEST POP PUSH3 0x590 PUSH3 0x15BD JUMP JUMPDEST PUSH1 0x40 MLOAD DUP1 DUP3 PUSH20 0xFFFFFFFFFFFFFFFFFFFFFFFFFFFFFFFFFFFFFFFF AND PUSH20 0xFFFFFFFFFFFFFFFFFFFFFFFFFFFFFFFFFFFFFFFF AND DUP2 MSTORE PUSH1 0x20 ADD SWAP2 POP POP PUSH1 0x40 MLOAD DUP1 SWAP2 SUB SWAP1 RETURN JUMPDEST CALLVALUE DUP1 ISZERO PUSH3 0x5DF JUMPI PUSH1 0x0 DUP1 REVERT JUMPDEST POP PUSH3 0x5EA PUSH3 0x15E7 JUMP JUMPDEST STOP JUMPDEST CALLVALUE DUP1 ISZERO PUSH3 0x5F9 JUMPI PUSH1 0x0 DUP1 REVERT JUMPDEST POP PUSH3 0x63F PUSH1 0x4 DUP1 CALLDATASIZE SUB PUSH1 0x20 DUP2 LT ISZERO PUSH3 0x612 JUMPI PUSH1 0x0 DUP1 REVERT JUMPDEST DUP2 ADD SWAP1 DUP1 DUP1 CALLDATALOAD PUSH20 0xFFFFFFFFFFFFFFFFFFFFFFFFFFFFFFFFFFFFFFFF AND SWAP1 PUSH1 0x20 ADD SWAP1 SWAP3 SWAP2 SWAP1 POP POP POP PUSH3 0x1725 JUMP JUMPDEST STOP JUMPDEST CALLVALUE DUP1 ISZERO PUSH3 0x64E JUMPI PUSH1 0x0 DUP1 REVERT JUMPDEST POP PUSH3 0x659 PUSH3 0x179E JUMP JUMPDEST PUSH1 0x40 MLOAD DUP1 DUP3 PUSH20 0xFFFFFFFFFFFFFFFFFFFFFFFFFFFFFFFFFFFFFFFF AND PUSH20 0xFFFFFFFFFFFFFFFFFFFFFFFFFFFFFFFFFFFFFFFF AND DUP2 MSTORE PUSH1 0x20 ADD SWAP2 POP POP PUSH1 0x40 MLOAD DUP1 SWAP2 SUB SWAP1 RETURN JUMPDEST CALLVALUE DUP1 ISZERO PUSH3 0x6A8 JUMPI PUSH1 0x0 DUP1 REVERT JUMPDEST POP PUSH3 0x6B3 PUSH3 0x17C8 JUMP JUMPDEST PUSH1 0x40 MLOAD DUP1 DUP3 ISZERO ISZERO ISZERO ISZERO DUP2 MSTORE PUSH1 0x20 ADD SWAP2 POP POP PUSH1 0x40 MLOAD DUP1 SWAP2 SUB SWAP1 RETURN JUMPDEST CALLVALUE DUP1 ISZERO PUSH3 0x6DA JUMPI PUSH1 0x0 DUP1 REVERT JUMPDEST POP PUSH3 0x70A PUSH1 0x4 DUP1 CALLDATASIZE SUB PUSH1 0x20 DUP2 LT ISZERO PUSH3 0x6F3 JUMPI PUSH1 0x0 DUP1 REVERT JUMPDEST DUP2 ADD SWAP1 DUP1 DUP1 CALLDATALOAD SWAP1 PUSH1 0x20 ADD SWAP1 SWAP3 SWAP2 SWAP1 POP POP POP PUSH3 0x1829 JUMP JUMPDEST PUSH1 0x40 MLOAD DUP1 DUP6 PUSH20 0xFFFFFFFFFFFFFFFFFFFFFFFFFFFFFFFFFFFFFFFF AND PUSH20 0xFFFFFFFFFFFFFFFFFFFFFFFFFFFFFFFFFFFFFFFF AND DUP2 MSTORE PUSH1 0x20 ADD DUP5 PUSH20 0xFFFFFFFFFFFFFFFFFFFFFFFFFFFFFFFFFFFFFFFF AND PUSH20 0xFFFFFFFFFFFFFFFFFFFFFFFFFFFFFFFFFFFFFFFF AND DUP2 MSTORE PUSH1 0x20 ADD DUP4 PUSH20 0xFFFFFFFFFFFFFFFFFFFFFFFFFFFFFFFFFFFFFFFF AND PUSH20 0xFFFFFFFFFFFFFFFFFFFFFFFFFFFFFFFFFFFFFFFF AND DUP2 MSTORE PUSH1 0x20 ADD DUP3 PUSH20 0xFFFFFFFFFFFFFFFFFFFFFFFFFFFFFFFFFFFFFFFF AND PUSH20 0xFFFFFFFFFFFFFFFFFFFFFFFFFFFFFFFFFFFFFFFF AND DUP2 MSTORE PUSH1 0x20 ADD SWAP5 POP POP POP POP POP PUSH1 0x40 MLOAD DUP1 SWAP2 SUB SWAP1 RETURN JUMPDEST CALLVALUE DUP1 ISZERO PUSH3 0x7F2 JUMPI PUSH1 0x0 DUP1 REVERT JUMPDEST POP PUSH3 0x7FD PUSH3 0x193E JUMP JUMPDEST PUSH1 0x40 MLOAD DUP1 DUP3 DUP2 MSTORE PUSH1 0x20 ADD SWAP2 POP POP PUSH1 0x40 MLOAD DUP1 SWAP2 SUB SWAP1 RETURN JUMPDEST CALLVALUE DUP1 ISZERO PUSH3 0x820 JUMPI PUSH1 0x0 DUP1 REVERT JUMPDEST POP PUSH3 0x82B PUSH3 0x194A JUMP JUMPDEST STOP JUMPDEST CALLVALUE DUP1 ISZERO PUSH3 0x83A JUMPI PUSH1 0x0 DUP1 REVERT JUMPDEST POP PUSH3 0x845 PUSH3 0x1C01 JUMP JUMPDEST PUSH1 0x40 MLOAD DUP1 DUP3 DUP2 MSTORE PUSH1 0x20 ADD SWAP2 POP POP PUSH1 0x40 MLOAD DUP1 SWAP2 SUB SWAP1 RETURN JUMPDEST CALLVALUE DUP1 ISZERO PUSH3 0x868 JUMPI PUSH1 0x0 DUP1 REVERT JUMPDEST POP PUSH3 0x8AE PUSH1 0x4 DUP1 CALLDATASIZE SUB PUSH1 0x20 DUP2 LT ISZERO PUSH3 0x881 JUMPI PUSH1 0x0 DUP1 REVERT JUMPDEST DUP2 ADD SWAP1 DUP1 DUP1 CALLDATALOAD PUSH20 0xFFFFFFFFFFFFFFFFFFFFFFFFFFFFFFFFFFFFFFFF AND SWAP1 PUSH1 0x20 ADD SWAP1 SWAP3 SWAP2 SWAP1 POP POP POP PUSH3 0x1C0B JUMP JUMPDEST PUSH1 0x40 MLOAD DUP1 DUP3 ISZERO ISZERO ISZERO ISZERO DUP2 MSTORE PUSH1 0x20 ADD SWAP2 POP POP PUSH1 0x40 MLOAD DUP1 SWAP2 SUB SWAP1 RETURN JUMPDEST CALLVALUE DUP1 ISZERO PUSH3 0x8D5 JUMPI PUSH1 0x0 DUP1 REVERT JUMPDEST POP PUSH3 0x8E0 PUSH3 0x1C2A JUMP JUMPDEST STOP JUMPDEST PUSH3 0x927 PUSH1 0x4 DUP1 CALLDATASIZE SUB PUSH1 0x20 DUP2 LT ISZERO PUSH3 0x8FA JUMPI PUSH1 0x0 DUP1 REVERT JUMPDEST DUP2 ADD SWAP1 DUP1 DUP1 CALLDATALOAD PUSH20 0xFFFFFFFFFFFFFFFFFFFFFFFFFFFFFFFFFFFFFFFF AND SWAP1 PUSH1 0x20 ADD SWAP1 SWAP3 SWAP2 SWAP1 POP POP POP PUSH3 0xA0E JUMP JUMPDEST STOP JUMPDEST CALLVALUE DUP1 ISZERO PUSH3 0x936 JUMPI PUSH1 0x0 DUP1 REVERT JUMPDEST POP PUSH3 0x941 PUSH3 0x1C40 JUMP JUMPDEST PUSH1 0x40 MLOAD DUP1 DUP3 DUP2 MSTORE PUSH1 0x20 ADD SWAP2 POP POP PUSH1 0x40 MLOAD DUP1 SWAP2 SUB SWAP1 RETURN JUMPDEST CALLVALUE DUP1 ISZERO PUSH3 0x964 JUMPI PUSH1 0x0 DUP1 REVERT JUMPDEST POP PUSH3 0x9AA PUSH1 0x4 DUP1 CALLDATASIZE SUB PUSH1 0x20 DUP2 LT ISZERO PUSH3 0x97D JUMPI PUSH1 0x0 DUP1 REVERT JUMPDEST DUP2 ADD SWAP1 DUP1 DUP1 CALLDATALOAD PUSH20 0xFFFFFFFFFFFFFFFFFFFFFFFFFFFFFFFFFFFFFFFF AND SWAP1 PUSH1 0x20 ADD SWAP1 SWAP3 SWAP2 SWAP1 POP POP POP PUSH3 0x1C4D JUMP JUMPDEST STOP JUMPDEST CALLVALUE DUP1 ISZERO PUSH3 0x9B9 JUMPI PUSH1 0x0 DUP1 REVERT JUMPDEST POP PUSH3 0x9C4 PUSH3 0x1CD8 JUMP JUMPDEST PUSH1 0x40 MLOAD DUP1 DUP3 PUSH20 0xFFFFFFFFFFFFFFFFFFFFFFFFFFFFFFFFFFFFFFFF AND PUSH20 0xFFFFFFFFFFFFFFFFFFFFFFFFFFFFFFFFFFFFFFFF AND DUP2 MSTORE PUSH1 0x20 ADD SWAP2 POP POP PUSH1 0x40 MLOAD DUP1 SWAP2 SUB SWAP1 RETURN JUMPDEST PUSH1 0x0 CALLER SWAP1 POP SWAP1 JUMP JUMPDEST PUSH1 0x2 PUSH1 0x0 SWAP1 SLOAD SWAP1 PUSH2 0x100 EXP SWAP1 DIV PUSH1 0xFF AND PUSH3 0xA91 JUMPI PUSH1 0x40 MLOAD PUSH32 0x8C379A000000000000000000000000000000000000000000000000000000000 DUP2 MSTORE PUSH1 0x4 ADD DUP1 DUP1 PUSH1 0x20 ADD DUP3 DUP2 SUB DUP3 MSTORE PUSH1 0x1F DUP2 MSTORE PUSH1 0x20 ADD DUP1 PUSH32 0x5265656E7472616E637947756172643A207265656E7472616E742063616C6C00 DUP2 MSTORE POP PUSH1 0x20 ADD SWAP2 POP POP PUSH1 0x40 MLOAD DUP1 SWAP2 SUB SWAP1 REVERT JUMPDEST PUSH1 0x0 PUSH1 0x2 PUSH1 0x0 PUSH2 0x100 EXP DUP2 SLOAD DUP2 PUSH1 0xFF MUL NOT AND SWAP1 DUP4 ISZERO ISZERO MUL OR SWAP1 SSTORE POP PUSH1 0x0 CALLVALUE SWAP1 POP PUSH3 0xABD DUP3 DUP3 PUSH3 0x1D02 JUMP JUMPDEST PUSH1 0x0 PUSH3 0xACA DUP3 PUSH3 0x1E00 JUMP JUMPDEST SWAP1 POP PUSH3 0xAE3 DUP3 PUSH1 0x5 SLOAD PUSH3 0x1E20 SWAP1 SWAP2 SWAP1 PUSH4 0xFFFFFFFF AND JUMP JUMPDEST PUSH1 0x5 DUP2 SWAP1 SSTORE POP PUSH3 0xAF5 DUP4 DUP3 PUSH3 0x1EA9 JUMP JUMPDEST DUP3 PUSH20 0xFFFFFFFFFFFFFFFFFFFFFFFFFFFFFFFFFFFFFFFF AND PUSH3 0xB16 PUSH3 0xA06 JUMP JUMPDEST PUSH20 0xFFFFFFFFFFFFFFFFFFFFFFFFFFFFFFFFFFFFFFFF AND PUSH32 0x6FAF93231A456E552DBC9961F58D9713EE4F2E69D15F1975B050EF0911053A7B DUP5 DUP5 PUSH1 0x40 MLOAD DUP1 DUP4 DUP2 MSTORE PUSH1 0x20 ADD DUP3 DUP2 MSTORE PUSH1 0x20 ADD SWAP3 POP POP POP PUSH1 0x40 MLOAD DUP1 SWAP2 SUB SWAP1 LOG3 PUSH3 0xB77 DUP4 DUP4 PUSH3 0x1EB9 JUMP JUMPDEST PUSH3 0xB81 PUSH3 0x1EBD JUMP JUMPDEST PUSH3 0xB8D DUP4 DUP4 PUSH3 0x1F29 JUMP JUMPDEST POP POP PUSH1 0x1 PUSH1 0x2 PUSH1 0x0 PUSH2 0x100 EXP DUP2 SLOAD DUP2 PUSH1 0xFF MUL NOT AND SWAP1 DUP4 ISZERO ISZERO MUL OR SWAP1 SSTORE POP POP JUMP JUMPDEST PUSH1 0x0 PUSH1 0xB PUSH1 0x0 SWAP1 SLOAD SWAP1 PUSH2 0x100 EXP SWAP1 DIV PUSH20 0xFFFFFFFFFFFFFFFFFFFFFFFFFFFFFFFFFFFFFFFF AND DUP4 PUSH1 0xC SLOAD PUSH1 0x40 MLOAD PUSH3 0xBE4 SWAP1 PUSH3 0x2A66 JUMP JUMPDEST DUP1 DUP5 PUSH20 0xFFFFFFFFFFFFFFFFFFFFFFFFFFFFFFFFFFFFFFFF AND PUSH20 0xFFFFFFFFFFFFFFFFFFFFFFFFFFFFFFFFFFFFFFFF AND DUP2 MSTORE PUSH1 0x20 ADD DUP4 PUSH20 0xFFFFFFFFFFFFFFFFFFFFFFFFFFFFFFFFFFFFFFFF AND PUSH20 0xFFFFFFFFFFFFFFFFFFFFFFFFFFFFFFFFFFFFFFFF AND DUP2 MSTORE PUSH1 0x20 ADD DUP3 DUP2 MSTORE PUSH1 0x20 ADD SWAP4 POP POP POP POP PUSH1 0x40 MLOAD DUP1 SWAP2 SUB SWAP1 PUSH1 0x0 CREATE DUP1 ISZERO DUP1 ISZERO PUSH3 0xC71 JUMPI RETURNDATASIZE PUSH1 0x0 DUP1 RETURNDATACOPY RETURNDATASIZE PUSH1 0x0 REVERT JUMPDEST POP SWAP1 POP PUSH1 0x0 PUSH1 0xB PUSH1 0x0 SWAP1 SLOAD SWAP1 PUSH2 0x100 EXP SWAP1 DIV PUSH20 0xFFFFFFFFFFFFFFFFFFFFFFFFFFFFFFFFFFFFFFFF AND DUP5 PUSH1 0xD SLOAD PUSH1 0x40 MLOAD PUSH3 0xCAB SWAP1 PUSH3 0x2A66 JUMP JUMPDEST DUP1 DUP5 PUSH20 0xFFFFFFFFFFFFFFFFFFFFFFFFFFFFFFFFFFFFFFFF AND PUSH20 0xFFFFFFFFFFFFFFFFFFFFFFFFFFFFFFFFFFFFFFFF AND DUP2 MSTORE PUSH1 0x20 ADD DUP4 PUSH20 0xFFFFFFFFFFFFFFFFFFFFFFFFFFFFFFFFFFFFFFFF AND PUSH20 0xFFFFFFFFFFFFFFFFFFFFFFFFFFFFFFFFFFFFFFFF AND DUP2 MSTORE PUSH1 0x20 ADD DUP3 DUP2 MSTORE PUSH1 0x20 ADD SWAP4 POP POP POP POP PUSH1 0x40 MLOAD DUP1 SWAP2 SUB SWAP1 PUSH1 0x0 CREATE DUP1 ISZERO DUP1 ISZERO PUSH3 0xD38 JUMPI RETURNDATASIZE PUSH1 0x0 DUP1 RETURNDATACOPY RETURNDATASIZE PUSH1 0x0 REVERT JUMPDEST POP SWAP1 POP PUSH1 0x0 PUSH1 0xB PUSH1 0x0 SWAP1 SLOAD SWAP1 PUSH2 0x100 EXP SWAP1 DIV PUSH20 0xFFFFFFFFFFFFFFFFFFFFFFFFFFFFFFFFFFFFFFFF AND DUP6 PUSH1 0xE SLOAD PUSH1 0x40 MLOAD PUSH3 0xD72 SWAP1 PUSH3 0x2A66 JUMP JUMPDEST DUP1 DUP5 PUSH20 0xFFFFFFFFFFFFFFFFFFFFFFFFFFFFFFFFFFFFFFFF AND PUSH20 0xFFFFFFFFFFFFFFFFFFFFFFFFFFFFFFFFFFFFFFFF AND DUP2 MSTORE PUSH1 0x20 ADD DUP4 PUSH20 0xFFFFFFFFFFFFFFFFFFFFFFFFFFFFFFFFFFFFFFFF AND PUSH20 0xFFFFFFFFFFFFFFFFFFFFFFFFFFFFFFFFFFFFFFFF AND DUP2 MSTORE PUSH1 0x20 ADD DUP3 DUP2 MSTORE PUSH1 0x20 ADD SWAP4 POP POP POP POP PUSH1 0x40 MLOAD DUP1 SWAP2 SUB SWAP1 PUSH1 0x0 CREATE DUP1 ISZERO DUP1 ISZERO PUSH3 0xDFF JUMPI RETURNDATASIZE PUSH1 0x0 DUP1 RETURNDATACOPY RETURNDATASIZE PUSH1 0x0 REVERT JUMPDEST POP SWAP1 POP PUSH1 0x0 DUP1 PUSH1 0x0 PUSH3 0xE1D PUSH1 0x4 DUP9 PUSH3 0x1F2D SWAP1 SWAP2 SWAP1 PUSH4 0xFFFFFFFF AND JUMP JUMPDEST SWAP3 POP PUSH3 0xE4A PUSH1 0x64 PUSH3 0xE3B PUSH1 0x1E DUP11 PUSH3 0x1F79 SWAP1 SWAP2 SWAP1 PUSH4 0xFFFFFFFF AND JUMP JUMPDEST PUSH3 0x1F2D SWAP1 SWAP2 SWAP1 PUSH4 0xFFFFFFFF AND JUMP JUMPDEST SWAP2 POP PUSH3 0xE75 PUSH3 0xE65 DUP4 DUP6 PUSH3 0x1E20 SWAP1 SWAP2 SWAP1 PUSH4 0xFFFFFFFF AND JUMP JUMPDEST DUP9 PUSH3 0x2004 SWAP1 SWAP2 SWAP1 PUSH4 0xFFFFFFFF AND JUMP JUMPDEST SWAP1 POP PUSH1 0xB PUSH1 0x0 SWAP1 SLOAD SWAP1 PUSH2 0x100 EXP SWAP1 DIV PUSH20 0xFFFFFFFFFFFFFFFFFFFFFFFFFFFFFFFFFFFFFFFF AND PUSH20 0xFFFFFFFFFFFFFFFFFFFFFFFFFFFFFFFFFFFFFFFF AND PUSH4 0xA9059CBB DUP8 DUP6 PUSH1 0x40 MLOAD DUP4 PUSH4 0xFFFFFFFF AND PUSH1 0xE0 SHL DUP2 MSTORE PUSH1 0x4 ADD DUP1 DUP4 PUSH20 0xFFFFFFFFFFFFFFFFFFFFFFFFFFFFFFFFFFFFFFFF AND PUSH20 0xFFFFFFFFFFFFFFFFFFFFFFFFFFFFFFFFFFFFFFFF AND DUP2 MSTORE PUSH1 0x20 ADD DUP3 DUP2 MSTORE PUSH1 0x20 ADD SWAP3 POP POP POP PUSH1 0x20 PUSH1 0x40 MLOAD DUP1 DUP4 SUB DUP2 PUSH1 0x0 DUP8 DUP1 EXTCODESIZE ISZERO DUP1 ISZERO PUSH3 0xF21 JUMPI PUSH1 0x0 DUP1 REVERT JUMPDEST POP GAS CALL ISZERO DUP1 ISZERO PUSH3 0xF36 JUMPI RETURNDATASIZE PUSH1 0x0 DUP1 RETURNDATACOPY RETURNDATASIZE PUSH1 0x0 REVERT JUMPDEST POP POP POP POP PUSH1 0x40 MLOAD RETURNDATASIZE PUSH1 0x20 DUP2 LT ISZERO PUSH3 0xF4D JUMPI PUSH1 0x0 DUP1 REVERT JUMPDEST DUP2 ADD SWAP1 DUP1 DUP1 MLOAD SWAP1 PUSH1 0x20 ADD SWAP1 SWAP3 SWAP2 SWAP1 POP POP POP POP PUSH1 0xB PUSH1 0x0 SWAP1 SLOAD SWAP1 PUSH2 0x100 EXP SWAP1 DIV PUSH20 0xFFFFFFFFFFFFFFFFFFFFFFFFFFFFFFFFFFFFFFFF AND PUSH20 0xFFFFFFFFFFFFFFFFFFFFFFFFFFFFFFFFFFFFFFFF AND PUSH4 0xA9059CBB DUP7 DUP5 PUSH1 0x40 MLOAD DUP4 PUSH4 0xFFFFFFFF AND PUSH1 0xE0 SHL DUP2 MSTORE PUSH1 0x4 ADD DUP1 DUP4 PUSH20 0xFFFFFFFFFFFFFFFFFFFFFFFFFFFFFFFFFFFFFFFF AND PUSH20 0xFFFFFFFFFFFFFFFFFFFFFFFFFFFFFFFFFFFFFFFF AND DUP2 MSTORE PUSH1 0x20 ADD DUP3 DUP2 MSTORE PUSH1 0x20 ADD SWAP3 POP POP POP PUSH1 0x20 PUSH1 0x40 MLOAD DUP1 DUP4 SUB DUP2 PUSH1 0x0 DUP8 DUP1 EXTCODESIZE ISZERO DUP1 ISZERO PUSH3 0x1009 JUMPI PUSH1 0x0 DUP1 REVERT JUMPDEST POP GAS CALL ISZERO DUP1 ISZERO PUSH3 0x101E JUMPI RETURNDATASIZE PUSH1 0x0 DUP1 RETURNDATACOPY RETURNDATASIZE PUSH1 0x0 REVERT JUMPDEST POP POP POP POP PUSH1 0x40 MLOAD RETURNDATASIZE PUSH1 0x20 DUP2 LT ISZERO PUSH3 0x1035 JUMPI PUSH1 0x0 DUP1 REVERT JUMPDEST DUP2 ADD SWAP1 DUP1 DUP1 MLOAD SWAP1 PUSH1 0x20 ADD SWAP1 SWAP3 SWAP2 SWAP1 POP POP POP POP PUSH1 0xB PUSH1 0x0 SWAP1 SLOAD SWAP1 PUSH2 0x100 EXP SWAP1 DIV PUSH20 0xFFFFFFFFFFFFFFFFFFFFFFFFFFFFFFFFFFFFFFFF AND PUSH20 0xFFFFFFFFFFFFFFFFFFFFFFFFFFFFFFFFFFFFFFFF AND PUSH4 0xA9059CBB DUP6 DUP4 PUSH1 0x40 MLOAD DUP4 PUSH4 0xFFFFFFFF AND PUSH1 0xE0 SHL DUP2 MSTORE PUSH1 0x4 ADD DUP1 DUP4 PUSH20 0xFFFFFFFFFFFFFFFFFFFFFFFFFFFFFFFFFFFFFFFF AND PUSH20 0xFFFFFFFFFFFFFFFFFFFFFFFFFFFFFFFFFFFFFFFF AND DUP2 MSTORE PUSH1 0x20 ADD DUP3 DUP2 MSTORE PUSH1 0x20 ADD SWAP3 POP POP POP PUSH1 0x20 PUSH1 0x40 MLOAD DUP1 DUP4 SUB DUP2 PUSH1 0x0 DUP8 DUP1 EXTCODESIZE ISZERO DUP1 ISZERO PUSH3 0x10F1 JUMPI PUSH1 0x0 DUP1 REVERT JUMPDEST POP GAS CALL ISZERO DUP1 ISZERO PUSH3 0x1106 JUMPI RETURNDATASIZE PUSH1 0x0 DUP1 RETURNDATACOPY RETURNDATASIZE PUSH1 0x0 REVERT JUMPDEST POP POP POP POP PUSH1 0x40 MLOAD RETURNDATASIZE PUSH1 0x20 DUP2 LT ISZERO PUSH3 0x111D JUMPI PUSH1 0x0 DUP1 REVERT JUMPDEST DUP2 ADD SWAP1 DUP1 DUP1 MLOAD SWAP1 PUSH1 0x20 ADD SWAP1 SWAP3 SWAP2 SWAP1 POP POP POP POP PUSH3 0x1139 PUSH3 0x2A74 JUMP JUMPDEST PUSH1 0x40 MLOAD DUP1 PUSH1 0x80 ADD PUSH1 0x40 MSTORE DUP1 DUP11 PUSH20 0xFFFFFFFFFFFFFFFFFFFFFFFFFFFFFFFFFFFFFFFF AND DUP2 MSTORE PUSH1 0x20 ADD DUP9 PUSH20 0xFFFFFFFFFFFFFFFFFFFFFFFFFFFFFFFFFFFFFFFF AND DUP2 MSTORE PUSH1 0x20 ADD DUP8 PUSH20 0xFFFFFFFFFFFFFFFFFFFFFFFFFFFFFFFFFFFFFFFF AND DUP2 MSTORE PUSH1 0x20 ADD DUP7 PUSH20 0xFFFFFFFFFFFFFFFFFFFFFFFFFFFFFFFFFFFFFFFF AND DUP2 MSTORE POP SWAP1 POP PUSH1 0x10 DUP2 SWAP1 DUP1 PUSH1 0x1 DUP2 SLOAD ADD DUP1 DUP3 SSTORE DUP1 SWAP2 POP POP SWAP1 PUSH1 0x1 DUP3 SUB SWAP1 PUSH1 0x0 MSTORE PUSH1 0x20 PUSH1 0x0 KECCAK256 SWAP1 PUSH1 0x4 MUL ADD PUSH1 0x0 SWAP1 SWAP2 SWAP3 SWAP1 SWAP2 SWAP1 SWAP2 POP PUSH1 0x0 DUP3 ADD MLOAD DUP2 PUSH1 0x0 ADD PUSH1 0x0 PUSH2 0x100 EXP DUP2 SLOAD DUP2 PUSH20 0xFFFFFFFFFFFFFFFFFFFFFFFFFFFFFFFFFFFFFFFF MUL NOT AND SWAP1 DUP4 PUSH20 0xFFFFFFFFFFFFFFFFFFFFFFFFFFFFFFFFFFFFFFFF AND MUL OR SWAP1 SSTORE POP PUSH1 0x20 DUP3 ADD MLOAD DUP2 PUSH1 0x1 ADD PUSH1 0x0 PUSH2 0x100 EXP DUP2 SLOAD DUP2 PUSH20 0xFFFFFFFFFFFFFFFFFFFFFFFFFFFFFFFFFFFFFFFF MUL NOT AND SWAP1 DUP4 PUSH20 0xFFFFFFFFFFFFFFFFFFFFFFFFFFFFFFFFFFFFFFFF AND MUL OR SWAP1 SSTORE POP PUSH1 0x40 DUP3 ADD MLOAD DUP2 PUSH1 0x2 ADD PUSH1 0x0 PUSH2 0x100 EXP DUP2 SLOAD DUP2 PUSH20 0xFFFFFFFFFFFFFFFFFFFFFFFFFFFFFFFFFFFFFFFF MUL NOT AND SWAP1 DUP4 PUSH20 0xFFFFFFFFFFFFFFFFFFFFFFFFFFFFFFFFFFFFFFFF AND MUL OR SWAP1 SSTORE POP PUSH1 0x60 DUP3 ADD MLOAD DUP2 PUSH1 0x3 ADD PUSH1 0x0 PUSH2 0x100 EXP DUP2 SLOAD DUP2 PUSH20 0xFFFFFFFFFFFFFFFFFFFFFFFFFFFFFFFFFFFFFFFF MUL NOT AND SWAP1 DUP4 PUSH20 0xFFFFFFFFFFFFFFFFFFFFFFFFFFFFFFFFFFFFFFFF AND MUL OR SWAP1 SSTORE POP POP POP POP PUSH32 0x259B30CA39885C6D801A0B5DBC988640F3C25E2F37531FE138C5C5AF8955D41B DUP10 DUP9 DUP9 DUP9 PUSH1 0x40 MLOAD DUP1 DUP6 PUSH20 0xFFFFFFFFFFFFFFFFFFFFFFFFFFFFFFFFFFFFFFFF AND PUSH20 0xFFFFFFFFFFFFFFFFFFFFFFFFFFFFFFFFFFFFFFFF AND DUP2 MSTORE PUSH1 0x20 ADD DUP5 PUSH20 0xFFFFFFFFFFFFFFFFFFFFFFFFFFFFFFFFFFFFFFFF AND PUSH20 0xFFFFFFFFFFFFFFFFFFFFFFFFFFFFFFFFFFFFFFFF AND DUP2 MSTORE PUSH1 0x20 ADD DUP4 PUSH20 0xFFFFFFFFFFFFFFFFFFFFFFFFFFFFFFFFFFFFFFFF AND PUSH20 0xFFFFFFFFFFFFFFFFFFFFFFFFFFFFFFFFFFFFFFFF AND DUP2 MSTORE PUSH1 0x20 ADD DUP3 PUSH20 0xFFFFFFFFFFFFFFFFFFFFFFFFFFFFFFFFFFFFFFFF AND PUSH20 0xFFFFFFFFFFFFFFFFFFFFFFFFFFFFFFFFFFFFFFFF AND DUP2 MSTORE PUSH1 0x20 ADD SWAP5 POP POP POP POP POP PUSH1 0x40 MLOAD DUP1 SWAP2 SUB SWAP1 LOG1 POP POP POP POP POP POP POP POP POP JUMP JUMPDEST PUSH3 0x141F PUSH3 0x1419 PUSH3 0xA06 JUMP JUMPDEST PUSH3 0x1C0B JUMP JUMPDEST PUSH3 0x1476 JUMPI PUSH1 0x40 MLOAD PUSH32 0x8C379A000000000000000000000000000000000000000000000000000000000 DUP2 MSTORE PUSH1 0x4 ADD DUP1 DUP1 PUSH1 0x20 ADD DUP3 DUP2 SUB DUP3 MSTORE PUSH1 0x40 DUP2 MSTORE PUSH1 0x20 ADD DUP1 PUSH3 0x34C3 PUSH1 0x40 SWAP2 CODECOPY PUSH1 0x40 ADD SWAP2 POP POP PUSH1 0x40 MLOAD DUP1 SWAP2 SUB SWAP1 REVERT JUMPDEST PUSH3 0x1481 DUP2 PUSH3 0x2050 JUMP JUMPDEST POP JUMP JUMPDEST PUSH1 0x0 PUSH1 0x7 SLOAD TIMESTAMP GT SWAP1 POP SWAP1 JUMP JUMPDEST PUSH3 0x14A4 PUSH3 0x149E PUSH3 0xA06 JUMP JUMPDEST PUSH3 0x1C0B JUMP JUMPDEST PUSH3 0x14FB JUMPI PUSH1 0x40 MLOAD PUSH32 0x8C379A000000000000000000000000000000000000000000000000000000000 DUP2 MSTORE PUSH1 0x4 ADD DUP1 DUP1 PUSH1 0x20 ADD DUP3 DUP2 SUB DUP3 MSTORE PUSH1 0x40 DUP2 MSTORE PUSH1 0x20 ADD DUP1 PUSH3 0x34C3 PUSH1 0x40 SWAP2 CODECOPY PUSH1 0x40 ADD SWAP2 POP POP PUSH1 0x40 MLOAD DUP1 SWAP2 SUB SWAP1 REVERT JUMPDEST PUSH3 0x1506 DUP2 PUSH3 0x20AC JUMP JUMPDEST POP JUMP JUMPDEST PUSH1 0x0 PUSH1 0x4 SLOAD SWAP1 POP SWAP1 JUMP JUMPDEST PUSH1 0x0 PUSH1 0x8 SLOAD SWAP1 POP SWAP1 JUMP JUMPDEST PUSH1 0x0 PUSH1 0x10 DUP1 SLOAD SWAP1 POP SWAP1 POP SWAP1 JUMP JUMPDEST PUSH1 0x0 PUSH3 0x1542 DUP3 PUSH1 0x1 PUSH3 0x2108 SWAP1 SWAP2 SWAP1 PUSH4 0xFFFFFFFF AND JUMP JUMPDEST SWAP1 POP SWAP2 SWAP1 POP JUMP JUMPDEST PUSH1 0x0 PUSH1 0x5 SLOAD SWAP1 POP SWAP1 JUMP JUMPDEST PUSH1 0xA PUSH1 0x20 MSTORE DUP1 PUSH1 0x0 MSTORE PUSH1 0x40 PUSH1 0x0 KECCAK256 PUSH1 0x0 SWAP2 POP SWAP1 POP SLOAD DUP2 JUMP JUMPDEST PUSH1 0x0 PUSH1 0x6 SLOAD TIMESTAMP LT ISZERO DUP1 ISZERO PUSH3 0x1582 JUMPI POP PUSH1 0x7 SLOAD TIMESTAMP GT ISZERO JUMPDEST SWAP1 POP SWAP1 JUMP JUMPDEST PUSH1 0x0 PUSH1 0x7 SLOAD SWAP1 POP SWAP1 JUMP JUMPDEST PUSH3 0x15A5 PUSH3 0x159F PUSH3 0xA06 JUMP JUMPDEST PUSH3 0x21E8 JUMP JUMPDEST JUMP JUMPDEST PUSH1 0x0 PUSH1 0x8 SLOAD PUSH3 0x15B6 PUSH3 0x1549 JUMP JUMPDEST LT ISZERO SWAP1 POP SWAP1 JUMP JUMPDEST PUSH1 0x0 PUSH1 0x3 PUSH1 0x0 SWAP1 SLOAD SWAP1 PUSH2 0x100 EXP SWAP1 DIV PUSH20 0xFFFFFFFFFFFFFFFFFFFFFFFFFFFFFFFFFFFFFFFF AND SWAP1 POP SWAP1 JUMP JUMPDEST PUSH3 0x15F1 PUSH3 0x17C8 JUMP JUMPDEST PUSH3 0x1664 JUMPI PUSH1 0x40 MLOAD PUSH32 0x8C379A000000000000000000000000000000000000000000000000000000000 DUP2 MSTORE PUSH1 0x4 ADD DUP1 DUP1 PUSH1 0x20 ADD DUP3 DUP2 SUB DUP3 MSTORE PUSH1 0x20 DUP2 MSTORE PUSH1 0x20 ADD DUP1 PUSH32 0x4F776E61626C653A2063616C6C6572206973206E6F7420746865206F776E6572 DUP2 MSTORE POP PUSH1 0x20 ADD SWAP2 POP POP PUSH1 0x40 MLOAD DUP1 SWAP2 SUB SWAP1 REVERT JUMPDEST PUSH1 0x0 PUSH20 0xFFFFFFFFFFFFFFFFFFFFFFFFFFFFFFFFFFFFFFFF AND PUSH1 0x9 PUSH1 0x0 SWAP1 SLOAD SWAP1 PUSH2 0x100 EXP SWAP1 DIV PUSH20 0xFFFFFFFFFFFFFFFFFFFFFFFFFFFFFFFFFFFFFFFF AND PUSH20 0xFFFFFFFFFFFFFFFFFFFFFFFFFFFFFFFFFFFFFFFF AND PUSH32 0x8BE0079C531659141344CD1FD0A4F28419497F9722A3DAAFE3B4186F6B6457E0 PUSH1 0x40 MLOAD PUSH1 0x40 MLOAD DUP1 SWAP2 SUB SWAP1 LOG3 PUSH1 0x0 PUSH1 0x9 PUSH1 0x0 PUSH2 0x100 EXP DUP2 SLOAD DUP2 PUSH20 0xFFFFFFFFFFFFFFFFFFFFFFFFFFFFFFFFFFFFFFFF MUL NOT AND SWAP1 DUP4 PUSH20 0xFFFFFFFFFFFFFFFFFFFFFFFFFFFFFFFFFFFFFFFF AND MUL OR SWAP1 SSTORE POP JUMP JUMPDEST PUSH3 0x1739 PUSH3 0x1733 PUSH3 0xA06 JUMP JUMPDEST PUSH3 0x1C0B JUMP JUMPDEST PUSH3 0x1790 JUMPI PUSH1 0x40 MLOAD PUSH32 0x8C379A000000000000000000000000000000000000000000000000000000000 DUP2 MSTORE PUSH1 0x4 ADD DUP1 DUP1 PUSH1 0x20 ADD DUP3 DUP2 SUB DUP3 MSTORE PUSH1 0x40 DUP2 MSTORE PUSH1 0x20 ADD DUP1 PUSH3 0x34C3 PUSH1 0x40 SWAP2 CODECOPY PUSH1 0x40 ADD SWAP2 POP POP PUSH1 0x40 MLOAD DUP1 SWAP2 SUB SWAP1 REVERT JUMPDEST PUSH3 0x179B DUP2 PUSH3 0x2244 JUMP JUMPDEST POP JUMP JUMPDEST PUSH1 0x0 PUSH1 0x9 PUSH1 0x0 SWAP1 SLOAD SWAP1 PUSH2 0x100 EXP SWAP1 DIV PUSH20 0xFFFFFFFFFFFFFFFFFFFFFFFFFFFFFFFFFFFFFFFF AND SWAP1 POP SWAP1 JUMP JUMPDEST PUSH1 0x0 PUSH1 0x9 PUSH1 0x0 SWAP1 SLOAD SWAP1 PUSH2 0x100 EXP SWAP1 DIV PUSH20 0xFFFFFFFFFFFFFFFFFFFFFFFFFFFFFFFFFFFFFFFF AND PUSH20 0xFFFFFFFFFFFFFFFFFFFFFFFFFFFFFFFFFFFFFFFF AND PUSH3 0x180D PUSH3 0xA06 JUMP JUMPDEST PUSH20 0xFFFFFFFFFFFFFFFFFFFFFFFFFFFFFFFFFFFFFFFF AND EQ SWAP1 POP SWAP1 JUMP JUMPDEST PUSH1 0x0 DUP1 PUSH1 0x0 DUP1 PUSH1 0x10 DUP6 DUP2 SLOAD DUP2 LT PUSH3 0x183D JUMPI INVALID JUMPDEST SWAP1 PUSH1 0x0 MSTORE PUSH1 0x20 PUSH1 0x0 KECCAK256 SWAP1 PUSH1 0x4 MUL ADD PUSH1 0x0 ADD PUSH1 0x0 SWAP1 SLOAD SWAP1 PUSH2 0x100 EXP SWAP1 DIV PUSH20 0xFFFFFFFFFFFFFFFFFFFFFFFFFFFFFFFFFFFFFFFF AND PUSH1 0x10 DUP7 DUP2 SLOAD DUP2 LT PUSH3 0x187D JUMPI INVALID JUMPDEST SWAP1 PUSH1 0x0 MSTORE PUSH1 0x20 PUSH1 0x0 KECCAK256 SWAP1 PUSH1 0x4 MUL ADD PUSH1 0x1 ADD PUSH1 0x0 SWAP1 SLOAD SWAP1 PUSH2 0x100 EXP SWAP1 DIV PUSH20 0xFFFFFFFFFFFFFFFFFFFFFFFFFFFFFFFFFFFFFFFF AND PUSH1 0x10 DUP8 DUP2 SLOAD DUP2 LT PUSH3 0x18BD JUMPI INVALID JUMPDEST SWAP1 PUSH1 0x0 MSTORE PUSH1 0x20 PUSH1 0x0 KECCAK256 SWAP1 PUSH1 0x4 MUL ADD PUSH1 0x2 ADD PUSH1 0x0 SWAP1 SLOAD SWAP1 PUSH2 0x100 EXP SWAP1 DIV PUSH20 0xFFFFFFFFFFFFFFFFFFFFFFFFFFFFFFFFFFFFFFFF AND PUSH1 0x10 DUP9 DUP2 SLOAD DUP2 LT PUSH3 0x18FD JUMPI INVALID JUMPDEST SWAP1 PUSH1 0x0 MSTORE PUSH1 0x20 PUSH1 0x0 KECCAK256 SWAP1 PUSH1 0x4 MUL ADD PUSH1 0x3 ADD PUSH1 0x0 SWAP1 SLOAD SWAP1 PUSH2 0x100 EXP SWAP1 DIV PUSH20 0xFFFFFFFFFFFFFFFFFFFFFFFFFFFFFFFFFFFFFFFF AND SWAP4 POP SWAP4 POP SWAP4 POP SWAP4 POP SWAP2 SWAP4 POP SWAP2 SWAP4 JUMP JUMPDEST PUSH8 0x16345785D8A0000 DUP2 JUMP JUMPDEST PUSH3 0x1954 PUSH3 0x17C8 JUMP JUMPDEST PUSH3 0x19C7 JUMPI PUSH1 0x40 MLOAD PUSH32 0x8C379A000000000000000000000000000000000000000000000000000000000 DUP2 MSTORE PUSH1 0x4 ADD DUP1 DUP1 PUSH1 0x20 ADD DUP3 DUP2 SUB DUP3 MSTORE PUSH1 0x20 DUP2 MSTORE PUSH1 0x20 ADD DUP1 PUSH32 0x4F776E61626C653A2063616C6C6572206973206E6F7420746865206F776E6572 DUP2 MSTORE POP PUSH1 0x20 ADD SWAP2 POP POP PUSH1 0x40 MLOAD DUP1 SWAP2 SUB SWAP1 REVERT JUMPDEST PUSH1 0xF SLOAD TIMESTAMP GT PUSH3 0x1A3F JUMPI PUSH1 0x40 MLOAD PUSH32 0x8C379A000000000000000000000000000000000000000000000000000000000 DUP2 MSTORE PUSH1 0x4 ADD DUP1 DUP1 PUSH1 0x20 ADD DUP3 DUP2 SUB DUP3 MSTORE PUSH1 0x19 DUP2 MSTORE PUSH1 0x20 ADD DUP1 PUSH32 0x43726F776473617465206973207374696C6C2061637469766500000000000000 DUP2 MSTORE POP PUSH1 0x20 ADD SWAP2 POP POP PUSH1 0x40 MLOAD DUP1 SWAP2 SUB SWAP1 REVERT JUMPDEST PUSH1 0x0 PUSH1 0xB PUSH1 0x0 SWAP1 SLOAD SWAP1 PUSH2 0x100 EXP SWAP1 DIV PUSH20 0xFFFFFFFFFFFFFFFFFFFFFFFFFFFFFFFFFFFFFFFF AND SWAP1 POP PUSH1 0x0 DUP2 PUSH20 0xFFFFFFFFFFFFFFFFFFFFFFFFFFFFFFFFFFFFFFFF AND PUSH4 0x70A08231 ADDRESS PUSH1 0x40 MLOAD DUP3 PUSH4 0xFFFFFFFF AND PUSH1 0xE0 SHL DUP2 MSTORE PUSH1 0x4 ADD DUP1 DUP3 PUSH20 0xFFFFFFFFFFFFFFFFFFFFFFFFFFFFFFFFFFFFFFFF AND PUSH20 0xFFFFFFFFFFFFFFFFFFFFFFFFFFFFFFFFFFFFFFFF AND DUP2 MSTORE PUSH1 0x20 ADD SWAP2 POP POP PUSH1 0x20 PUSH1 0x40 MLOAD DUP1 DUP4 SUB DUP2 DUP7 DUP1 EXTCODESIZE ISZERO DUP1 ISZERO PUSH3 0x1AE6 JUMPI PUSH1 0x0 DUP1 REVERT JUMPDEST POP GAS STATICCALL ISZERO DUP1 ISZERO PUSH3 0x1AFB JUMPI RETURNDATASIZE PUSH1 0x0 DUP1 RETURNDATACOPY RETURNDATASIZE PUSH1 0x0 REVERT JUMPDEST POP POP POP POP PUSH1 0x40 MLOAD RETURNDATASIZE PUSH1 0x20 DUP2 LT ISZERO PUSH3 0x1B12 JUMPI PUSH1 0x0 DUP1 REVERT JUMPDEST DUP2 ADD SWAP1 DUP1 DUP1 MLOAD SWAP1 PUSH1 0x20 ADD SWAP1 SWAP3 SWAP2 SWAP1 POP POP POP SWAP1 POP DUP2 PUSH20 0xFFFFFFFFFFFFFFFFFFFFFFFFFFFFFFFFFFFFFFFF AND PUSH4 0x42966C68 DUP3 PUSH1 0x40 MLOAD DUP3 PUSH4 0xFFFFFFFF AND PUSH1 0xE0 SHL DUP2 MSTORE PUSH1 0x4 ADD DUP1 DUP3 DUP2 MSTORE PUSH1 0x20 ADD SWAP2 POP POP PUSH1 0x0 PUSH1 0x40 MLOAD DUP1 DUP4 SUB DUP2 PUSH1 0x0 DUP8 DUP1 EXTCODESIZE ISZERO DUP1 ISZERO PUSH3 0x1B79 JUMPI PUSH1 0x0 DUP1 REVERT JUMPDEST POP GAS CALL ISZERO DUP1 ISZERO PUSH3 0x1B8E JUMPI RETURNDATASIZE PUSH1 0x0 DUP1 RETURNDATACOPY RETURNDATASIZE PUSH1 0x0 REVERT JUMPDEST POP POP POP POP PUSH32 0xCC16F5DBB4873280815C1EE09DBD06736CFFCC184412CF7A71A0FDB75D397CA5 CALLER DUP3 PUSH1 0x40 MLOAD DUP1 DUP4 PUSH20 0xFFFFFFFFFFFFFFFFFFFFFFFFFFFFFFFFFFFFFFFF AND PUSH20 0xFFFFFFFFFFFFFFFFFFFFFFFFFFFFFFFFFFFFFFFF AND DUP2 MSTORE PUSH1 0x20 ADD DUP3 DUP2 MSTORE PUSH1 0x20 ADD SWAP3 POP POP POP PUSH1 0x40 MLOAD DUP1 SWAP2 SUB SWAP1 LOG1 POP POP JUMP JUMPDEST PUSH1 0x0 PUSH1 0x6 SLOAD SWAP1 POP SWAP1 JUMP JUMPDEST PUSH1 0x0 PUSH3 0x1C23 DUP3 PUSH1 0x0 PUSH3 0x2108 SWAP1 SWAP2 SWAP1 PUSH4 0xFFFFFFFF AND JUMP JUMPDEST SWAP1 POP SWAP2 SWAP1 POP JUMP JUMPDEST PUSH3 0x1C3E PUSH3 0x1C38 PUSH3 0xA06 JUMP JUMPDEST PUSH3 0x20AC JUMP JUMPDEST JUMP JUMPDEST PUSH9 0x12F939C99EDAB80000 DUP2 JUMP JUMPDEST PUSH3 0x1C57 PUSH3 0x17C8 JUMP JUMPDEST PUSH3 0x1CCA JUMPI PUSH1 0x40 MLOAD PUSH32 0x8C379A000000000000000000000000000000000000000000000000000000000 DUP2 MSTORE PUSH1 0x4 ADD DUP1 DUP1 PUSH1 0x20 ADD DUP3 DUP2 SUB DUP3 MSTORE PUSH1 0x20 DUP2 MSTORE PUSH1 0x20 ADD DUP1 PUSH32 0x4F776E61626C653A2063616C6C6572206973206E6F7420746865206F776E6572 DUP2 MSTORE POP PUSH1 0x20 ADD SWAP2 POP POP PUSH1 0x40 MLOAD DUP1 SWAP2 SUB SWAP1 REVERT JUMPDEST PUSH3 0x1CD5 DUP2 PUSH3 0x22A0 JUMP JUMPDEST POP JUMP JUMPDEST PUSH1 0x0 PUSH1 0x2 PUSH1 0x1 SWAP1 SLOAD SWAP1 PUSH2 0x100 EXP SWAP1 DIV PUSH20 0xFFFFFFFFFFFFFFFFFFFFFFFFFFFFFFFFFFFFFFFF AND SWAP1 POP SWAP1 JUMP JUMPDEST PUSH3 0x1D0E DUP3 DUP3 PUSH3 0x23E8 JUMP JUMPDEST PUSH1 0x0 PUSH3 0x1D64 DUP3 PUSH1 0xA PUSH1 0x0 DUP7 PUSH20 0xFFFFFFFFFFFFFFFFFFFFFFFFFFFFFFFFFFFFFFFF AND PUSH20 0xFFFFFFFFFFFFFFFFFFFFFFFFFFFFFFFFFFFFFFFF AND DUP2 MSTORE PUSH1 0x20 ADD SWAP1 DUP2 MSTORE PUSH1 0x20 ADD PUSH1 0x0 KECCAK256 SLOAD PUSH3 0x1E20 SWAP1 SWAP2 SWAP1 PUSH4 0xFFFFFFFF AND JUMP JUMPDEST SWAP1 POP PUSH8 0x16345785D8A0000 DUP2 LT ISZERO DUP1 ISZERO PUSH3 0x1D88 JUMPI POP PUSH9 0x12F939C99EDAB80000 DUP2 GT ISZERO JUMPDEST PUSH3 0x1DFB JUMPI PUSH1 0x40 MLOAD PUSH32 0x8C379A000000000000000000000000000000000000000000000000000000000 DUP2 MSTORE PUSH1 0x4 ADD DUP1 DUP1 PUSH1 0x20 ADD DUP3 DUP2 SUB DUP3 MSTORE PUSH1 0x1F DUP2 MSTORE PUSH1 0x20 ADD DUP1 PUSH32 0x496E766573746F722043415020696E206E6F7420696E20612072616E67652000 DUP2 MSTORE POP PUSH1 0x20 ADD SWAP2 POP POP PUSH1 0x40 MLOAD DUP1 SWAP2 SUB SWAP1 REVERT JUMPDEST POP POP POP JUMP JUMPDEST PUSH1 0x0 PUSH3 0x1E19 PUSH1 0x4 SLOAD DUP4 PUSH3 0x1F79 SWAP1 SWAP2 SWAP1 PUSH4 0xFFFFFFFF AND JUMP JUMPDEST SWAP1 POP SWAP2 SWAP1 POP JUMP JUMPDEST PUSH1 0x0 DUP1 DUP3 DUP5 ADD SWAP1 POP DUP4 DUP2 LT ISZERO PUSH3 0x1E9F JUMPI PUSH1 0x40 MLOAD PUSH32 0x8C379A000000000000000000000000000000000000000000000000000000000 DUP2 MSTORE PUSH1 0x4 ADD DUP1 DUP1 PUSH1 0x20 ADD DUP3 DUP2 SUB DUP3 MSTORE PUSH1 0x1B DUP2 MSTORE PUSH1 0x20 ADD DUP1 PUSH32 0x536166654D6174683A206164646974696F6E206F766572666C6F770000000000 DUP2 MSTORE POP PUSH1 0x20 ADD SWAP2 POP POP PUSH1 0x40 MLOAD DUP1 SWAP2 SUB SWAP1 REVERT JUMPDEST DUP1 SWAP2 POP POP SWAP3 SWAP2 POP POP JUMP JUMPDEST PUSH3 0x1EB5 DUP3 DUP3 PUSH3 0x245A JUMP JUMPDEST POP POP JUMP JUMPDEST POP POP JUMP JUMPDEST PUSH1 0x3 PUSH1 0x0 SWAP1 SLOAD SWAP1 PUSH2 0x100 EXP SWAP1 DIV PUSH20 0xFFFFFFFFFFFFFFFFFFFFFFFFFFFFFFFFFFFFFFFF AND PUSH20 0xFFFFFFFFFFFFFFFFFFFFFFFFFFFFFFFFFFFFFFFF AND PUSH2 0x8FC CALLVALUE SWAP1 DUP2 ISZERO MUL SWAP1 PUSH1 0x40 MLOAD PUSH1 0x0 PUSH1 0x40 MLOAD DUP1 DUP4 SUB DUP2 DUP6 DUP9 DUP9 CALL SWAP4 POP POP POP POP ISZERO DUP1 ISZERO PUSH3 0x1F26 JUMPI RETURNDATASIZE PUSH1 0x0 DUP1 RETURNDATACOPY RETURNDATASIZE PUSH1 0x0 REVERT JUMPDEST POP JUMP JUMPDEST POP POP JUMP JUMPDEST PUSH1 0x0 PUSH3 0x1F71 DUP4 DUP4 PUSH1 0x40 MLOAD DUP1 PUSH1 0x40 ADD PUSH1 0x40 MSTORE DUP1 PUSH1 0x1A DUP2 MSTORE PUSH1 0x20 ADD PUSH32 0x536166654D6174683A206469766973696F6E206279207A65726F000000000000 DUP2 MSTORE POP PUSH3 0x2501 JUMP JUMPDEST SWAP1 POP SWAP3 SWAP2 POP POP JUMP JUMPDEST PUSH1 0x0 DUP1 DUP4 EQ ISZERO PUSH3 0x1F8E JUMPI PUSH1 0x0 SWAP1 POP PUSH3 0x1FFE JUMP JUMPDEST PUSH1 0x0 DUP3 DUP5 MUL SWAP1 POP DUP3 DUP5 DUP3 DUP2 PUSH3 0x1FA0 JUMPI INVALID JUMPDEST DIV EQ PUSH3 0x1FF9 JUMPI PUSH1 0x40 MLOAD PUSH32 0x8C379A000000000000000000000000000000000000000000000000000000000 DUP2 MSTORE PUSH1 0x4 ADD DUP1 DUP1 PUSH1 0x20 ADD DUP3 DUP2 SUB DUP3 MSTORE PUSH1 0x21 DUP2 MSTORE PUSH1 0x20 ADD DUP1 PUSH3 0x3480 PUSH1 0x21 SWAP2 CODECOPY PUSH1 0x40 ADD SWAP2 POP POP PUSH1 0x40 MLOAD DUP1 SWAP2 SUB SWAP1 REVERT JUMPDEST DUP1 SWAP2 POP POP JUMPDEST SWAP3 SWAP2 POP POP JUMP JUMPDEST PUSH1 0x0 PUSH3 0x2048 DUP4 DUP4 PUSH1 0x40 MLOAD DUP1 PUSH1 0x40 ADD PUSH1 0x40 MSTORE DUP1 PUSH1 0x1E DUP2 MSTORE PUSH1 0x20 ADD PUSH32 0x536166654D6174683A207375627472616374696F6E206F766572666C6F770000 DUP2 MSTORE POP PUSH3 0x25CC JUMP JUMPDEST SWAP1 POP SWAP3 SWAP2 POP POP JUMP JUMPDEST PUSH3 0x2066 DUP2 PUSH1 0x1 PUSH3 0x2690 SWAP1 SWAP2 SWAP1 PUSH4 0xFFFFFFFF AND JUMP JUMPDEST DUP1 PUSH20 0xFFFFFFFFFFFFFFFFFFFFFFFFFFFFFFFFFFFFFFFF AND PUSH32 0xEE1504A83B6D4A361F4C1DC78AB59BFA30D6A3B6612C403E86BB01EF2984295F PUSH1 0x40 MLOAD PUSH1 0x40 MLOAD DUP1 SWAP2 SUB SWAP1 LOG2 POP JUMP JUMPDEST PUSH3 0x20C2 DUP2 PUSH1 0x1 PUSH3 0x276E SWAP1 SWAP2 SWAP1 PUSH4 0xFFFFFFFF AND JUMP JUMPDEST DUP1 PUSH20 0xFFFFFFFFFFFFFFFFFFFFFFFFFFFFFFFFFFFFFFFF AND PUSH32 0x270D9B30CF5B0793BBFD54C9D5B94AEB49462B8148399000265144A8722DA6B6 PUSH1 0x40 MLOAD PUSH1 0x40 MLOAD DUP1 SWAP2 SUB SWAP1 LOG2 POP JUMP JUMPDEST PUSH1 0x0 DUP1 PUSH20 0xFFFFFFFFFFFFFFFFFFFFFFFFFFFFFFFFFFFFFFFF AND DUP3 PUSH20 0xFFFFFFFFFFFFFFFFFFFFFFFFFFFFFFFFFFFFFFFF AND EQ ISZERO PUSH3 0x2191 JUMPI PUSH1 0x40 MLOAD PUSH32 0x8C379A000000000000000000000000000000000000000000000000000000000 DUP2 MSTORE PUSH1 0x4 ADD DUP1 DUP1 PUSH1 0x20 ADD DUP3 DUP2 SUB DUP3 MSTORE PUSH1 0x22 DUP2 MSTORE PUSH1 0x20 ADD DUP1 PUSH3 0x34A1 PUSH1 0x22 SWAP2 CODECOPY PUSH1 0x40 ADD SWAP2 POP POP PUSH1 0x40 MLOAD DUP1 SWAP2 SUB SWAP1 REVERT JUMPDEST DUP3 PUSH1 0x0 ADD PUSH1 0x0 DUP4 PUSH20 0xFFFFFFFFFFFFFFFFFFFFFFFFFFFFFFFFFFFFFFFF AND PUSH20 0xFFFFFFFFFFFFFFFFFFFFFFFFFFFFFFFFFFFFFFFF AND DUP2 MSTORE PUSH1 0x20 ADD SWAP1 DUP2 MSTORE PUSH1 0x20 ADD PUSH1 0x0 KECCAK256 PUSH1 0x0 SWAP1 SLOAD SWAP1 PUSH2 0x100 EXP SWAP1 DIV PUSH1 0xFF AND SWAP1 POP SWAP3 SWAP2 POP POP JUMP JUMPDEST PUSH3 0x21FE DUP2 PUSH1 0x0 PUSH3 0x276E SWAP1 SWAP2 SWAP1 PUSH4 0xFFFFFFFF AND JUMP JUMPDEST DUP1 PUSH20 0xFFFFFFFFFFFFFFFFFFFFFFFFFFFFFFFFFFFFFFFF AND PUSH32 0xA8EB35E5CA14B3D6F28E4ABF2F128DBAB231A58B56E89BEB5D636115001E165 PUSH1 0x40 MLOAD PUSH1 0x40 MLOAD DUP1 SWAP2 SUB SWAP1 LOG2 POP JUMP JUMPDEST PUSH3 0x225A DUP2 PUSH1 0x0 PUSH3 0x2690 SWAP1 SWAP2 SWAP1 PUSH4 0xFFFFFFFF AND JUMP JUMPDEST DUP1 PUSH20 0xFFFFFFFFFFFFFFFFFFFFFFFFFFFFFFFFFFFFFFFF AND PUSH32 0x22380C05984257A1CB900161C713DD71D39E74820F1AEA43BD3F1BDD20961299 PUSH1 0x40 MLOAD PUSH1 0x40 MLOAD DUP1 SWAP2 SUB SWAP1 LOG2 POP JUMP JUMPDEST PUSH1 0x0 PUSH20 0xFFFFFFFFFFFFFFFFFFFFFFFFFFFFFFFFFFFFFFFF AND DUP2 PUSH20 0xFFFFFFFFFFFFFFFFFFFFFFFFFFFFFFFFFFFFFFFF AND EQ ISZERO PUSH3 0x2328 JUMPI PUSH1 0x40 MLOAD PUSH32 0x8C379A000000000000000000000000000000000000000000000000000000000 DUP2 MSTORE PUSH1 0x4 ADD DUP1 DUP1 PUSH1 0x20 ADD DUP3 DUP2 SUB DUP3 MSTORE PUSH1 0x26 DUP2 MSTORE PUSH1 0x20 ADD DUP1 PUSH3 0x3439 PUSH1 0x26 SWAP2 CODECOPY PUSH1 0x40 ADD SWAP2 POP POP PUSH1 0x40 MLOAD DUP1 SWAP2 SUB SWAP1 REVERT JUMPDEST DUP1 PUSH20 0xFFFFFFFFFFFFFFFFFFFFFFFFFFFFFFFFFFFFFFFF AND PUSH1 0x9 PUSH1 0x0 SWAP1 SLOAD SWAP1 PUSH2 0x100 EXP SWAP1 DIV PUSH20 0xFFFFFFFFFFFFFFFFFFFFFFFFFFFFFFFFFFFFFFFF AND PUSH20 0xFFFFFFFFFFFFFFFFFFFFFFFFFFFFFFFFFFFFFFFF AND PUSH32 0x8BE0079C531659141344CD1FD0A4F28419497F9722A3DAAFE3B4186F6B6457E0 PUSH1 0x40 MLOAD PUSH1 0x40 MLOAD DUP1 SWAP2 SUB SWAP1 LOG3 DUP1 PUSH1 0x9 PUSH1 0x0 PUSH2 0x100 EXP DUP2 SLOAD DUP2 PUSH20 0xFFFFFFFFFFFFFFFFFFFFFFFFFFFFFFFFFFFFFFFF MUL NOT AND SWAP1 DUP4 PUSH20 0xFFFFFFFFFFFFFFFFFFFFFFFFFFFFFFFFFFFFFFFF AND MUL OR SWAP1 SSTORE POP POP JUMP JUMPDEST PUSH3 0x23F3 DUP3 PUSH3 0x152A JUMP JUMPDEST PUSH3 0x244A JUMPI PUSH1 0x40 MLOAD PUSH32 0x8C379A000000000000000000000000000000000000000000000000000000000 DUP2 MSTORE PUSH1 0x4 ADD DUP1 DUP1 PUSH1 0x20 ADD DUP3 DUP2 SUB DUP3 MSTORE PUSH1 0x41 DUP2 MSTORE PUSH1 0x20 ADD DUP1 PUSH3 0x33F8 PUSH1 0x41 SWAP2 CODECOPY PUSH1 0x60 ADD SWAP2 POP POP PUSH1 0x40 MLOAD DUP1 SWAP2 SUB SWAP1 REVERT JUMPDEST PUSH3 0x2456 DUP3 DUP3 PUSH3 0x282F JUMP JUMPDEST POP POP JUMP JUMPDEST PUSH3 0x24AE CALLVALUE PUSH1 0xA PUSH1 0x0 DUP6 PUSH20 0xFFFFFFFFFFFFFFFFFFFFFFFFFFFFFFFFFFFFFFFF AND PUSH20 0xFFFFFFFFFFFFFFFFFFFFFFFFFFFFFFFFFFFFFFFF AND DUP2 MSTORE PUSH1 0x20 ADD SWAP1 DUP2 MSTORE PUSH1 0x20 ADD PUSH1 0x0 KECCAK256 SLOAD PUSH3 0x1E20 SWAP1 SWAP2 SWAP1 PUSH4 0xFFFFFFFF AND JUMP JUMPDEST PUSH1 0xA PUSH1 0x0 DUP5 PUSH20 0xFFFFFFFFFFFFFFFFFFFFFFFFFFFFFFFFFFFFFFFF AND PUSH20 0xFFFFFFFFFFFFFFFFFFFFFFFFFFFFFFFFFFFFFFFF AND DUP2 MSTORE PUSH1 0x20 ADD SWAP1 DUP2 MSTORE PUSH1 0x20 ADD PUSH1 0x0 KECCAK256 DUP2 SWAP1 SSTORE POP PUSH3 0x24FD DUP3 DUP3 PUSH3 0xBAD JUMP JUMPDEST POP POP JUMP JUMPDEST PUSH1 0x0 DUP1 DUP4 GT DUP3 SWAP1 PUSH3 0x25B1 JUMPI PUSH1 0x40 MLOAD PUSH32 0x8C379A000000000000000000000000000000000000000000000000000000000 DUP2 MSTORE PUSH1 0x4 ADD DUP1 DUP1 PUSH1 0x20 ADD DUP3 DUP2 SUB DUP3 MSTORE DUP4 DUP2 DUP2 MLOAD DUP2 MSTORE PUSH1 0x20 ADD SWAP2 POP DUP1 MLOAD SWAP1 PUSH1 0x20 ADD SWAP1 DUP1 DUP4 DUP4 PUSH1 0x0 JUMPDEST DUP4 DUP2 LT ISZERO PUSH3 0x2575 JUMPI DUP1 DUP3 ADD MLOAD DUP2 DUP5 ADD MSTORE PUSH1 0x20 DUP2 ADD SWAP1 POP PUSH3 0x2558 JUMP JUMPDEST POP POP POP POP SWAP1 POP SWAP1 DUP2 ADD SWAP1 PUSH1 0x1F AND DUP1 ISZERO PUSH3 0x25A3 JUMPI DUP1 DUP3 SUB DUP1 MLOAD PUSH1 0x1 DUP4 PUSH1 0x20 SUB PUSH2 0x100 EXP SUB NOT AND DUP2 MSTORE PUSH1 0x20 ADD SWAP2 POP JUMPDEST POP SWAP3 POP POP POP PUSH1 0x40 MLOAD DUP1 SWAP2 SUB SWAP1 REVERT JUMPDEST POP PUSH1 0x0 DUP4 DUP6 DUP2 PUSH3 0x25BE JUMPI INVALID JUMPDEST DIV SWAP1 POP DUP1 SWAP2 POP POP SWAP4 SWAP3 POP POP POP JUMP JUMPDEST PUSH1 0x0 DUP4 DUP4 GT ISZERO DUP3 SWAP1 PUSH3 0x267D JUMPI PUSH1 0x40 MLOAD PUSH32 0x8C379A000000000000000000000000000000000000000000000000000000000 DUP2 MSTORE PUSH1 0x4 ADD DUP1 DUP1 PUSH1 0x20 ADD DUP3 DUP2 SUB DUP3 MSTORE DUP4 DUP2 DUP2 MLOAD DUP2 MSTORE PUSH1 0x20 ADD SWAP2 POP DUP1 MLOAD SWAP1 PUSH1 0x20 ADD SWAP1 DUP1 DUP4 DUP4 PUSH1 0x0 JUMPDEST DUP4 DUP2 LT ISZERO PUSH3 0x2641 JUMPI DUP1 DUP3 ADD MLOAD DUP2 DUP5 ADD MSTORE PUSH1 0x20 DUP2 ADD SWAP1 POP PUSH3 0x2624 JUMP JUMPDEST POP POP POP POP SWAP1 POP SWAP1 DUP2 ADD SWAP1 PUSH1 0x1F AND DUP1 ISZERO PUSH3 0x266F JUMPI DUP1 DUP3 SUB DUP1 MLOAD PUSH1 0x1 DUP4 PUSH1 0x20 SUB PUSH2 0x100 EXP SUB NOT AND DUP2 MSTORE PUSH1 0x20 ADD SWAP2 POP JUMPDEST POP SWAP3 POP POP POP PUSH1 0x40 MLOAD DUP1 SWAP2 SUB SWAP1 REVERT JUMPDEST POP PUSH1 0x0 DUP4 DUP6 SUB SWAP1 POP DUP1 SWAP2 POP POP SWAP4 SWAP3 POP POP POP JUMP JUMPDEST PUSH3 0x269C DUP3 DUP3 PUSH3 0x2108 JUMP JUMPDEST ISZERO PUSH3 0x2710 JUMPI PUSH1 0x40 MLOAD PUSH32 0x8C379A000000000000000000000000000000000000000000000000000000000 DUP2 MSTORE PUSH1 0x4 ADD DUP1 DUP1 PUSH1 0x20 ADD DUP3 DUP2 SUB DUP3 MSTORE PUSH1 0x1F DUP2 MSTORE PUSH1 0x20 ADD DUP1 PUSH32 0x526F6C65733A206163636F756E7420616C72656164792068617320726F6C6500 DUP2 MSTORE POP PUSH1 0x20 ADD SWAP2 POP POP PUSH1 0x40 MLOAD DUP1 SWAP2 SUB SWAP1 REVERT JUMPDEST PUSH1 0x1 DUP3 PUSH1 0x0 ADD PUSH1 0x0 DUP4 PUSH20 0xFFFFFFFFFFFFFFFFFFFFFFFFFFFFFFFFFFFFFFFF AND PUSH20 0xFFFFFFFFFFFFFFFFFFFFFFFFFFFFFFFFFFFFFFFF AND DUP2 MSTORE PUSH1 0x20 ADD SWAP1 DUP2 MSTORE PUSH1 0x20 ADD PUSH1 0x0 KECCAK256 PUSH1 0x0 PUSH2 0x100 EXP DUP2 SLOAD DUP2 PUSH1 0xFF MUL NOT AND SWAP1 DUP4 ISZERO ISZERO MUL OR SWAP1 SSTORE POP POP POP JUMP JUMPDEST PUSH3 0x277A DUP3 DUP3 PUSH3 0x2108 JUMP JUMPDEST PUSH3 0x27D1 JUMPI PUSH1 0x40 MLOAD PUSH32 0x8C379A000000000000000000000000000000000000000000000000000000000 DUP2 MSTORE PUSH1 0x4 ADD DUP1 DUP1 PUSH1 0x20 ADD DUP3 DUP2 SUB DUP3 MSTORE PUSH1 0x21 DUP2 MSTORE PUSH1 0x20 ADD DUP1 PUSH3 0x345F PUSH1 0x21 SWAP2 CODECOPY PUSH1 0x40 ADD SWAP2 POP POP PUSH1 0x40 MLOAD DUP1 SWAP2 SUB SWAP1 REVERT JUMPDEST PUSH1 0x0 DUP3 PUSH1 0x0 ADD PUSH1 0x0 DUP4 PUSH20 0xFFFFFFFFFFFFFFFFFFFFFFFFFFFFFFFFFFFFFFFF AND PUSH20 0xFFFFFFFFFFFFFFFFFFFFFFFFFFFFFFFFFFFFFFFF AND DUP2 MSTORE PUSH1 0x20 ADD SWAP1 DUP2 MSTORE PUSH1 0x20 ADD PUSH1 0x0 KECCAK256 PUSH1 0x0 PUSH2 0x100 EXP DUP2 SLOAD DUP2 PUSH1 0xFF MUL NOT AND SWAP1 DUP4 ISZERO ISZERO MUL OR SWAP1 SSTORE POP POP POP JUMP JUMPDEST PUSH3 0x283B DUP3 DUP3 PUSH3 0x28D5 JUMP JUMPDEST PUSH1 0x8 SLOAD PUSH3 0x285C DUP3 PUSH3 0x284D PUSH3 0x1549 JUMP JUMPDEST PUSH3 0x1E20 SWAP1 SWAP2 SWAP1 PUSH4 0xFFFFFFFF AND JUMP JUMPDEST GT ISZERO PUSH3 0x28D1 JUMPI PUSH1 0x40 MLOAD PUSH32 0x8C379A000000000000000000000000000000000000000000000000000000000 DUP2 MSTORE PUSH1 0x4 ADD DUP1 DUP1 PUSH1 0x20 ADD DUP3 DUP2 SUB DUP3 MSTORE PUSH1 0x1D DUP2 MSTORE PUSH1 0x20 ADD DUP1 PUSH32 0x43617070656443726F776473616C653A20636170206578636565646564000000 DUP2 MSTORE POP PUSH1 0x20 ADD SWAP2 POP POP PUSH1 0x40 MLOAD DUP1 SWAP2 SUB SWAP1 REVERT JUMPDEST POP POP JUMP JUMPDEST PUSH3 0x28DF PUSH3 0x156B JUMP JUMPDEST PUSH3 0x2952 JUMPI PUSH1 0x40 MLOAD PUSH32 0x8C379A000000000000000000000000000000000000000000000000000000000 DUP2 MSTORE PUSH1 0x4 ADD DUP1 DUP1 PUSH1 0x20 ADD DUP3 DUP2 SUB DUP3 MSTORE PUSH1 0x18 DUP2 MSTORE PUSH1 0x20 ADD DUP1 PUSH32 0x54696D656443726F776473616C653A206E6F74206F70656E0000000000000000 DUP2 MSTORE POP PUSH1 0x20 ADD SWAP2 POP POP PUSH1 0x40 MLOAD DUP1 SWAP2 SUB SWAP1 REVERT JUMPDEST PUSH3 0x295E DUP3 DUP3 PUSH3 0x2962 JUMP JUMPDEST POP POP JUMP JUMPDEST PUSH1 0x0 PUSH20 0xFFFFFFFFFFFFFFFFFFFFFFFFFFFFFFFFFFFFFFFF AND DUP3 PUSH20 0xFFFFFFFFFFFFFFFFFFFFFFFFFFFFFFFFFFFFFFFF AND EQ ISZERO PUSH3 0x29EA JUMPI PUSH1 0x40 MLOAD PUSH32 0x8C379A000000000000000000000000000000000000000000000000000000000 DUP2 MSTORE PUSH1 0x4 ADD DUP1 DUP1 PUSH1 0x20 ADD DUP3 DUP2 SUB DUP3 MSTORE PUSH1 0x2A DUP2 MSTORE PUSH1 0x20 ADD DUP1 PUSH3 0x3503 PUSH1 0x2A SWAP2 CODECOPY PUSH1 0x40 ADD SWAP2 POP POP PUSH1 0x40 MLOAD DUP1 SWAP2 SUB SWAP1 REVERT JUMPDEST PUSH1 0x0 DUP2 EQ ISZERO PUSH3 0x2A62 JUMPI PUSH1 0x40 MLOAD PUSH32 0x8C379A000000000000000000000000000000000000000000000000000000000 DUP2 MSTORE PUSH1 0x4 ADD DUP1 DUP1 PUSH1 0x20 ADD DUP3 DUP2 SUB DUP3 MSTORE PUSH1 0x19 DUP2 MSTORE PUSH1 0x20 ADD DUP1 PUSH32 0x43726F776473616C653A20776569416D6F756E74206973203000000000000000 DUP2 MSTORE POP PUSH1 0x20 ADD SWAP2 POP POP PUSH1 0x40 MLOAD DUP1 SWAP2 SUB SWAP1 REVERT JUMPDEST POP POP JUMP JUMPDEST PUSH2 0x903 DUP1 PUSH3 0x2AF5 DUP4 CODECOPY ADD SWAP1 JUMP JUMPDEST PUSH1 0x40 MLOAD DUP1 PUSH1 0x80 ADD PUSH1 0x40 MSTORE DUP1 PUSH1 0x0 PUSH20 0xFFFFFFFFFFFFFFFFFFFFFFFFFFFFFFFFFFFFFFFF AND DUP2 MSTORE PUSH1 0x20 ADD PUSH1 0x0 PUSH20 0xFFFFFFFFFFFFFFFFFFFFFFFFFFFFFFFFFFFFFFFF AND DUP2 MSTORE PUSH1 0x20 ADD PUSH1 0x0 PUSH20 0xFFFFFFFFFFFFFFFFFFFFFFFFFFFFFFFFFFFFFFFF AND DUP2 MSTORE PUSH1 0x20 ADD PUSH1 0x0 PUSH20 0xFFFFFFFFFFFFFFFFFFFFFFFFFFFFFFFFFFFFFFFF AND DUP2 MSTORE POP SWAP1 JUMP INVALID PUSH1 0x80 PUSH1 0x40 MSTORE CALLVALUE DUP1 ISZERO PUSH2 0x10 JUMPI PUSH1 0x0 DUP1 REVERT JUMPDEST POP PUSH1 0x40 MLOAD PUSH2 0x903 CODESIZE SUB DUP1 PUSH2 0x903 DUP4 CODECOPY DUP2 DUP2 ADD PUSH1 0x40 MSTORE PUSH1 0x60 DUP2 LT ISZERO PUSH2 0x33 JUMPI PUSH1 0x0 DUP1 REVERT JUMPDEST DUP2 ADD SWAP1 DUP1 DUP1 MLOAD SWAP1 PUSH1 0x20 ADD SWAP1 SWAP3 SWAP2 SWAP1 DUP1 MLOAD SWAP1 PUSH1 0x20 ADD SWAP1 SWAP3 SWAP2 SWAP1 DUP1 MLOAD SWAP1 PUSH1 0x20 ADD SWAP1 SWAP3 SWAP2 SWAP1 POP POP POP TIMESTAMP DUP2 GT PUSH2 0xB0 JUMPI PUSH1 0x40 MLOAD PUSH32 0x8C379A000000000000000000000000000000000000000000000000000000000 DUP2 MSTORE PUSH1 0x4 ADD DUP1 DUP1 PUSH1 0x20 ADD DUP3 DUP2 SUB DUP3 MSTORE PUSH1 0x32 DUP2 MSTORE PUSH1 0x20 ADD DUP1 PUSH2 0x8D1 PUSH1 0x32 SWAP2 CODECOPY PUSH1 0x40 ADD SWAP2 POP POP PUSH1 0x40 MLOAD DUP1 SWAP2 SUB SWAP1 REVERT JUMPDEST DUP3 PUSH1 0x0 DUP1 PUSH2 0x100 EXP DUP2 SLOAD DUP2 PUSH20 0xFFFFFFFFFFFFFFFFFFFFFFFFFFFFFFFFFFFFFFFF MUL NOT AND SWAP1 DUP4 PUSH20 0xFFFFFFFFFFFFFFFFFFFFFFFFFFFFFFFFFFFFFFFF AND MUL OR SWAP1 SSTORE POP DUP2 PUSH1 0x1 PUSH1 0x0 PUSH2 0x100 EXP DUP2 SLOAD DUP2 PUSH20 0xFFFFFFFFFFFFFFFFFFFFFFFFFFFFFFFFFFFFFFFF MUL NOT AND SWAP1 DUP4 PUSH20 0xFFFFFFFFFFFFFFFFFFFFFFFFFFFFFFFFFFFFFFFF AND MUL OR SWAP1 SSTORE POP DUP1 PUSH1 0x2 DUP2 SWAP1 SSTORE POP POP POP POP PUSH2 0x787 DUP1 PUSH2 0x14A PUSH1 0x0 CODECOPY PUSH1 0x0 RETURN INVALID PUSH1 0x80 PUSH1 0x40 MSTORE CALLVALUE DUP1 ISZERO PUSH2 0x10 JUMPI PUSH1 0x0 DUP1 REVERT JUMPDEST POP PUSH1 0x4 CALLDATASIZE LT PUSH2 0x4C JUMPI PUSH1 0x0 CALLDATALOAD PUSH1 0xE0 SHR DUP1 PUSH4 0x38AF3EED EQ PUSH2 0x51 JUMPI DUP1 PUSH4 0x86D1A69F EQ PUSH2 0x9B JUMPI DUP1 PUSH4 0xB91D4001 EQ PUSH2 0xA5 JUMPI DUP1 PUSH4 0xFC0C546A EQ PUSH2 0xC3 JUMPI JUMPDEST PUSH1 0x0 DUP1 REVERT JUMPDEST PUSH2 0x59 PUSH2 0x10D JUMP JUMPDEST PUSH1 0x40 MLOAD DUP1 DUP3 PUSH20 0xFFFFFFFFFFFFFFFFFFFFFFFFFFFFFFFFFFFFFFFF AND PUSH20 0xFFFFFFFFFFFFFFFFFFFFFFFFFFFFFFFFFFFFFFFF AND DUP2 MSTORE PUSH1 0x20 ADD SWAP2 POP POP PUSH1 0x40 MLOAD DUP1 SWAP2 SUB SWAP1 RETURN JUMPDEST PUSH2 0xA3 PUSH2 0x137 JUMP JUMPDEST STOP JUMPDEST PUSH2 0xAD PUSH2 0x339 JUMP JUMPDEST PUSH1 0x40 MLOAD DUP1 DUP3 DUP2 MSTORE PUSH1 0x20 ADD SWAP2 POP POP PUSH1 0x40 MLOAD DUP1 SWAP2 SUB SWAP1 RETURN JUMPDEST PUSH2 0xCB PUSH2 0x343 JUMP JUMPDEST PUSH1 0x40 MLOAD DUP1 DUP3 PUSH20 0xFFFFFFFFFFFFFFFFFFFFFFFFFFFFFFFFFFFFFFFF AND PUSH20 0xFFFFFFFFFFFFFFFFFFFFFFFFFFFFFFFFFFFFFFFF AND DUP2 MSTORE PUSH1 0x20 ADD SWAP2 POP POP PUSH1 0x40 MLOAD DUP1 SWAP2 SUB SWAP1 RETURN JUMPDEST PUSH1 0x0 PUSH1 0x1 PUSH1 0x0 SWAP1 SLOAD SWAP1 PUSH2 0x100 EXP SWAP1 DIV PUSH20 0xFFFFFFFFFFFFFFFFFFFFFFFFFFFFFFFFFFFFFFFF AND SWAP1 POP SWAP1 JUMP JUMPDEST PUSH1 0x2 SLOAD TIMESTAMP LT ISZERO PUSH2 0x192 JUMPI PUSH1 0x40 MLOAD PUSH32 0x8C379A000000000000000000000000000000000000000000000000000000000 DUP2 MSTORE PUSH1 0x4 ADD DUP1 DUP1 PUSH1 0x20 ADD DUP3 DUP2 SUB DUP3 MSTORE PUSH1 0x32 DUP2 MSTORE PUSH1 0x20 ADD DUP1 PUSH2 0x6D4 PUSH1 0x32 SWAP2 CODECOPY PUSH1 0x40 ADD SWAP2 POP POP PUSH1 0x40 MLOAD DUP1 SWAP2 SUB SWAP1 REVERT JUMPDEST PUSH1 0x0 DUP1 PUSH1 0x0 SWAP1 SLOAD SWAP1 PUSH2 0x100 EXP SWAP1 DIV PUSH20 0xFFFFFFFFFFFFFFFFFFFFFFFFFFFFFFFFFFFFFFFF AND PUSH20 0xFFFFFFFFFFFFFFFFFFFFFFFFFFFFFFFFFFFFFFFF AND PUSH4 0x70A08231 ADDRESS PUSH1 0x40 MLOAD DUP3 PUSH4 0xFFFFFFFF AND PUSH1 0xE0 SHL DUP2 MSTORE PUSH1 0x4 ADD DUP1 DUP3 PUSH20 0xFFFFFFFFFFFFFFFFFFFFFFFFFFFFFFFFFFFFFFFF AND PUSH20 0xFFFFFFFFFFFFFFFFFFFFFFFFFFFFFFFFFFFFFFFF AND DUP2 MSTORE PUSH1 0x20 ADD SWAP2 POP POP PUSH1 0x20 PUSH1 0x40 MLOAD DUP1 DUP4 SUB DUP2 DUP7 DUP1 EXTCODESIZE ISZERO DUP1 ISZERO PUSH2 0x232 JUMPI PUSH1 0x0 DUP1 REVERT JUMPDEST POP GAS STATICCALL ISZERO DUP1 ISZERO PUSH2 0x246 JUMPI RETURNDATASIZE PUSH1 0x0 DUP1 RETURNDATACOPY RETURNDATASIZE PUSH1 0x0 REVERT JUMPDEST POP POP POP POP PUSH1 0x40 MLOAD RETURNDATASIZE PUSH1 0x20 DUP2 LT ISZERO PUSH2 0x25C JUMPI PUSH1 0x0 DUP1 REVERT JUMPDEST DUP2 ADD SWAP1 DUP1 DUP1 MLOAD SWAP1 PUSH1 0x20 ADD SWAP1 SWAP3 SWAP2 SWAP1 POP POP POP SWAP1 POP PUSH1 0x0 DUP2 GT PUSH2 0x2C8 JUMPI PUSH1 0x40 MLOAD PUSH32 0x8C379A000000000000000000000000000000000000000000000000000000000 DUP2 MSTORE PUSH1 0x4 ADD DUP1 DUP1 PUSH1 0x20 ADD DUP3 DUP2 SUB DUP3 MSTORE PUSH1 0x23 DUP2 MSTORE PUSH1 0x20 ADD DUP1 PUSH2 0x730 PUSH1 0x23 SWAP2 CODECOPY PUSH1 0x40 ADD SWAP2 POP POP PUSH1 0x40 MLOAD DUP1 SWAP2 SUB SWAP1 REVERT JUMPDEST PUSH2 0x336 PUSH1 0x1 PUSH1 0x0 SWAP1 SLOAD SWAP1 PUSH2 0x100 EXP SWAP1 DIV PUSH20 0xFFFFFFFFFFFFFFFFFFFFFFFFFFFFFFFFFFFFFFFF AND DUP3 PUSH1 0x0 DUP1 SWAP1 SLOAD SWAP1 PUSH2 0x100 EXP SWAP1 DIV PUSH20 0xFFFFFFFFFFFFFFFFFFFFFFFFFFFFFFFFFFFFFFFF AND PUSH20 0xFFFFFFFFFFFFFFFFFFFFFFFFFFFFFFFFFFFFFFFF AND PUSH2 0x36C SWAP1 SWAP3 SWAP2 SWAP1 PUSH4 0xFFFFFFFF AND JUMP JUMPDEST POP JUMP JUMPDEST PUSH1 0x0 PUSH1 0x2 SLOAD SWAP1 POP SWAP1 JUMP JUMPDEST PUSH1 0x0 DUP1 PUSH1 0x0 SWAP1 SLOAD SWAP1 PUSH2 0x100 EXP SWAP1 DIV PUSH20 0xFFFFFFFFFFFFFFFFFFFFFFFFFFFFFFFFFFFFFFFF AND SWAP1 POP SWAP1 JUMP JUMPDEST PUSH2 0x438 DUP4 DUP5 PUSH20 0xFFFFFFFFFFFFFFFFFFFFFFFFFFFFFFFFFFFFFFFF AND PUSH4 0xA9059CBB SWAP1 POP PUSH1 0xE0 SHL DUP5 DUP5 PUSH1 0x40 MLOAD PUSH1 0x24 ADD DUP1 DUP4 PUSH20 0xFFFFFFFFFFFFFFFFFFFFFFFFFFFFFFFFFFFFFFFF AND PUSH20 0xFFFFFFFFFFFFFFFFFFFFFFFFFFFFFFFFFFFFFFFF AND DUP2 MSTORE PUSH1 0x20 ADD DUP3 DUP2 MSTORE PUSH1 0x20 ADD SWAP3 POP POP POP PUSH1 0x40 MLOAD PUSH1 0x20 DUP2 DUP4 SUB SUB DUP2 MSTORE SWAP1 PUSH1 0x40 MSTORE SWAP1 PUSH28 0xFFFFFFFFFFFFFFFFFFFFFFFFFFFFFFFFFFFFFFFFFFFFFFFFFFFFFFFF NOT AND PUSH1 0x20 DUP3 ADD DUP1 MLOAD PUSH28 0xFFFFFFFFFFFFFFFFFFFFFFFFFFFFFFFFFFFFFFFFFFFFFFFFFFFFFFFF DUP4 DUP2 DUP4 AND OR DUP4 MSTORE POP POP POP POP PUSH2 0x43D JUMP JUMPDEST POP POP POP JUMP JUMPDEST PUSH2 0x45C DUP3 PUSH20 0xFFFFFFFFFFFFFFFFFFFFFFFFFFFFFFFFFFFFFFFF AND PUSH2 0x688 JUMP JUMPDEST PUSH2 0x4CE JUMPI PUSH1 0x40 MLOAD PUSH32 0x8C379A000000000000000000000000000000000000000000000000000000000 DUP2 MSTORE PUSH1 0x4 ADD DUP1 DUP1 PUSH1 0x20 ADD DUP3 DUP2 SUB DUP3 MSTORE PUSH1 0x1F DUP2 MSTORE PUSH1 0x20 ADD DUP1 PUSH32 0x5361666545524332303A2063616C6C20746F206E6F6E2D636F6E747261637400 DUP2 MSTORE POP PUSH1 0x20 ADD SWAP2 POP POP PUSH1 0x40 MLOAD DUP1 SWAP2 SUB SWAP1 REVERT JUMPDEST PUSH1 0x0 PUSH1 0x60 DUP4 PUSH20 0xFFFFFFFFFFFFFFFFFFFFFFFFFFFFFFFFFFFFFFFF AND DUP4 PUSH1 0x40 MLOAD DUP1 DUP3 DUP1 MLOAD SWAP1 PUSH1 0x20 ADD SWAP1 DUP1 DUP4 DUP4 JUMPDEST PUSH1 0x20 DUP4 LT PUSH2 0x51D JUMPI DUP1 MLOAD DUP3 MSTORE PUSH1 0x20 DUP3 ADD SWAP2 POP PUSH1 0x20 DUP2 ADD SWAP1 POP PUSH1 0x20 DUP4 SUB SWAP3 POP PUSH2 0x4FA JUMP JUMPDEST PUSH1 0x1 DUP4 PUSH1 0x20 SUB PUSH2 0x100 EXP SUB DUP1 NOT DUP3 MLOAD AND DUP2 DUP5 MLOAD AND DUP1 DUP3 OR DUP6 MSTORE POP POP POP POP POP POP SWAP1 POP ADD SWAP2 POP POP PUSH1 0x0 PUSH1 0x40 MLOAD DUP1 DUP4 SUB DUP2 PUSH1 0x0 DUP7 GAS CALL SWAP2 POP POP RETURNDATASIZE DUP1 PUSH1 0x0 DUP2 EQ PUSH2 0x57F JUMPI PUSH1 0x40 MLOAD SWAP2 POP PUSH1 0x1F NOT PUSH1 0x3F RETURNDATASIZE ADD AND DUP3 ADD PUSH1 0x40 MSTORE RETURNDATASIZE DUP3 MSTORE RETURNDATASIZE PUSH1 0x0 PUSH1 0x20 DUP5 ADD RETURNDATACOPY PUSH2 0x584 JUMP JUMPDEST PUSH1 0x60 SWAP2 POP JUMPDEST POP SWAP2 POP SWAP2 POP DUP2 PUSH2 0x5FC JUMPI PUSH1 0x40 MLOAD PUSH32 0x8C379A000000000000000000000000000000000000000000000000000000000 DUP2 MSTORE PUSH1 0x4 ADD DUP1 DUP1 PUSH1 0x20 ADD DUP3 DUP2 SUB DUP3 MSTORE PUSH1 0x20 DUP2 MSTORE PUSH1 0x20 ADD DUP1 PUSH32 0x5361666545524332303A206C6F772D6C6576656C2063616C6C206661696C6564 DUP2 MSTORE POP PUSH1 0x20 ADD SWAP2 POP POP PUSH1 0x40 MLOAD DUP1 SWAP2 SUB SWAP1 REVERT JUMPDEST PUSH1 0x0 DUP2 MLOAD GT ISZERO PUSH2 0x682 JUMPI DUP1 DUP1 PUSH1 0x20 ADD SWAP1 MLOAD PUSH1 0x20 DUP2 LT ISZERO PUSH2 0x61B JUMPI PUSH1 0x0 DUP1 REVERT JUMPDEST DUP2 ADD SWAP1 DUP1 DUP1 MLOAD SWAP1 PUSH1 0x20 ADD SWAP1 SWAP3 SWAP2 SWAP1 POP POP POP PUSH2 0x681 JUMPI PUSH1 0x40 MLOAD PUSH32 0x8C379A000000000000000000000000000000000000000000000000000000000 DUP2 MSTORE PUSH1 0x4 ADD DUP1 DUP1 PUSH1 0x20 ADD DUP3 DUP2 SUB DUP3 MSTORE PUSH1 0x2A DUP2 MSTORE PUSH1 0x20 ADD DUP1 PUSH2 0x706 PUSH1 0x2A SWAP2 CODECOPY PUSH1 0x40 ADD SWAP2 POP POP PUSH1 0x40 MLOAD DUP1 SWAP2 SUB SWAP1 REVERT JUMPDEST JUMPDEST POP POP POP POP JUMP JUMPDEST PUSH1 0x0 DUP1 PUSH1 0x0 PUSH32 0xC5D2460186F7233C927E7DB2DCC703C0E500B653CA82273B7BFAD8045D85A470 PUSH1 0x0 SHL SWAP1 POP DUP4 EXTCODEHASH SWAP2 POP DUP1 DUP3 EQ ISZERO DUP1 ISZERO PUSH2 0x6CA JUMPI POP PUSH1 0x0 DUP1 SHL DUP3 EQ ISZERO JUMPDEST SWAP3 POP POP POP SWAP2 SWAP1 POP JUMP INVALID SLOAD PUSH16 0x6B656E54696D656C6F636B3A20637572 PUSH19 0x656E742074696D65206973206265666F726520 PUSH19 0x656C656173652074696D655361666545524332 ADDRESS GASPRICE KECCAK256 GASLIMIT MSTORE NUMBER ORIGIN ADDRESS KECCAK256 PUSH16 0x7065726174696F6E20646964206E6F74 KECCAK256 PUSH20 0x756363656564546F6B656E54696D656C6F636B3A KECCAK256 PUSH15 0x6F20746F6B656E7320746F2072656C PUSH6 0x617365A26562 PUSH27 0x7A72315820F5D904A826B538A5450FB35265B233FF0794BCA4FB12 0xCC 0xDD SWAP6 0xAD ADDRESS 0xA8 PUSH19 0x50949864736F6C63430005110032546F6B656E SLOAD PUSH10 0x6D656C6F636B3A207265 PUSH13 0x656173652074696D6520697320 PUSH3 0x65666F PUSH19 0x652063757272656E742074696D655768697465 PUSH13 0x69737443726F776473616C653A KECCAK256 PUSH3 0x656E65 PUSH7 0x69636961727920 PUSH5 0x6F65736E27 PUSH21 0x2068617665207468652057686974656C6973746564 KECCAK256 PUSH19 0x6F6C654F776E61626C653A206E6577206F776E PUSH6 0x722069732074 PUSH9 0x65207A65726F206164 PUSH5 0x7265737352 PUSH16 0x6C65733A206163636F756E7420646F65 PUSH20 0x206E6F74206861766520726F6C65536166654D61 PUSH21 0x683A206D756C7469706C69636174696F6E206F7665 PUSH19 0x666C6F77526F6C65733A206163636F756E7420 PUSH10 0x7320746865207A65726F KECCAK256 PUSH2 0x6464 PUSH19 0x65737357686974656C69737441646D696E526F PUSH13 0x653A2063616C6C657220646F65 PUSH20 0x206E6F742068617665207468652057686974656C PUSH10 0x737441646D696E20726F PUSH13 0x6543726F776473616C653A2062 PUSH6 0x6E6566696369 PUSH2 0x7279 KECCAK256 PUSH10 0x7320746865207A65726F KECCAK256 PUSH2 0x6464 PUSH19 0x657373A265627A7A723158205BD5D6A28EA055 0x4F STOP DUP11 0x1E DUP11 SWAP9 SHL PUSH32 0x17835E5990F641B765C0BDF02D233EB43F64736F6C6343000511003254696D65 PUSH5 0x43726F7764 PUSH20 0x616C653A206F70656E696E672074696D65206973 KECCAK256 PUSH3 0x65666F PUSH19 0x652063757272656E742074696D6554696D6564 NUMBER PUSH19 0x6F776473616C653A206F70656E696E67207469 PUSH14 0x65206973206E6F74206265666F72 PUSH6 0x20636C6F7369 PUSH15 0x672074696D6543726F776473616C65 GASPRICE KECCAK256 PUSH21 0x6F6B656E20697320746865207A65726F2061646472 PUSH6 0x7373526F6C65 PUSH20 0x3A206163636F756E7420697320746865207A6572 PUSH16 0x206164647265737343726F776473616C PUSH6 0x3A2077616C6C PUSH6 0x742069732074 PUSH9 0x65207A65726F206164 PUSH5 0x7265737300 "
		},
		"gasEstimates": {
			"creation": {
				"codeDepositCost": "2733000",
				"executionCost": "infinite",
				"totalCost": "infinite"
			},
			"external": {
				"": "infinite",
				"addWhitelistAdmin(address)": "infinite",
				"addWhitelisted(address)": "infinite",
				"burnUnsold()": "infinite",
				"buyTokens(address)": "infinite",
				"cap()": "1103",
				"capReached()": "1980",
				"closingTime()": "1080",
				"contributions(address)": "1259",
				"getBuyerDetails(uint256)": "7468",
				"hasClosed()": "1121",
				"investorHardCap()": "271",
				"investorMinCap()": "316",
				"isOpen()": "1911",
				"isOwner()": "1180",
				"isWhitelistAdmin(address)": "infinite",
				"isWhitelisted(address)": "infinite",
				"newTokenTimeLock(address,uint256)": "infinite",
				"openingTime()": "1080",
				"owner()": "1106",
				"rate()": "1081",
				"removeWhitelisted(address)": "infinite",
				"renounceOwnership()": "24400",
				"renounceWhitelistAdmin()": "infinite",
				"renounceWhitelisted()": "infinite",
				"token()": "1221",
				"totalBuyers()": "1133",
				"transferOwnership(address)": "infinite",
				"wallet()": "1107",
				"weiRaised()": "1081"
			},
			"internal": {
				"_deliverTokens(address,uint256)": "infinite",
				"_preValidatePurchase(address,uint256)": "infinite"
			}
		},
		"methodIdentifiers": {
			"addWhitelistAdmin(address)": "7362d9c8",
			"addWhitelisted(address)": "10154bad",
			"burnUnsold()": "b52a5851",
			"buyTokens(address)": "ec8ac4d8",
			"cap()": "355274ea",
			"capReached()": "4f935945",
			"closingTime()": "4b6753bc",
			"contributions(address)": "42e94c90",
			"getBuyerDetails(uint256)": "992245d3",
			"hasClosed()": "1515bc2b",
			"investorHardCap()": "ed5db874",
			"investorMinCap()": "b25d7f54",
			"isOpen()": "47535d7b",
			"isOwner()": "8f32d59b",
			"isWhitelistAdmin(address)": "bb5f747b",
			"isWhitelisted(address)": "3af32abf",
			"newTokenTimeLock(address,uint256)": "001ec835",
			"openingTime()": "b7a8807c",
			"owner()": "8da5cb5b",
			"rate()": "2c4e722e",
			"removeWhitelisted(address)": "291d9549",
			"renounceOwnership()": "715018a6",
			"renounceWhitelistAdmin()": "4c5a628c",
			"renounceWhitelisted()": "d6cd9473",
			"token()": "fc0c546a",
			"totalBuyers()": "3abd0136",
			"transferOwnership(address)": "f2fde38b",
			"wallet()": "521eb273",
			"weiRaised()": "4042b66f"
		}
	},
	"abi": [
		{
			"inputs": [
				{
					"internalType": "uint256",
					"name": "rate",
					"type": "uint256"
				},
				{
					"internalType": "address payable",
					"name": "_wallet",
					"type": "address"
				},
				{
					"internalType": "contract ERC20Burnable",
					"name": "_token",
					"type": "address"
				},
				{
					"internalType": "uint256",
					"name": "_cap",
					"type": "uint256"
				},
				{
					"internalType": "uint256",
					"name": "_openingTime",
					"type": "uint256"
				},
				{
					"internalType": "uint256",
					"name": "_closingTime",
					"type": "uint256"
				},
				{
					"internalType": "uint256",
					"name": "_releaseTime1",
					"type": "uint256"
				},
				{
					"internalType": "uint256",
					"name": "_releaseTime2",
					"type": "uint256"
				},
				{
					"internalType": "uint256",
					"name": "_releaseTime3",
					"type": "uint256"
				}
			],
			"payable": false,
			"stateMutability": "nonpayable",
			"type": "constructor"
		},
		{
			"anonymous": false,
			"inputs": [
				{
					"indexed": false,
					"internalType": "address",
					"name": "From",
					"type": "address"
				},
				{
					"indexed": false,
					"internalType": "uint256",
					"name": "burnValue",
					"type": "uint256"
				}
			],
			"name": "Burn",
			"type": "event"
		},
		{
			"anonymous": false,
			"inputs": [
				{
					"indexed": false,
					"internalType": "address",
					"name": "_beneficiery",
					"type": "address"
				},
				{
					"indexed": false,
					"internalType": "address",
					"name": "_wallet1",
					"type": "address"
				},
				{
					"indexed": false,
					"internalType": "address",
					"name": "_wallet2",
					"type": "address"
				},
				{
					"indexed": false,
					"internalType": "address",
					"name": "_wallet3",
					"type": "address"
				}
			],
			"name": "Created",
			"type": "event"
		},
		{
			"anonymous": false,
			"inputs": [
				{
					"indexed": true,
					"internalType": "address",
					"name": "previousOwner",
					"type": "address"
				},
				{
					"indexed": true,
					"internalType": "address",
					"name": "newOwner",
					"type": "address"
				}
			],
			"name": "OwnershipTransferred",
			"type": "event"
		},
		{
			"anonymous": false,
			"inputs": [
				{
					"indexed": false,
					"internalType": "uint256",
					"name": "prevClosingTime",
					"type": "uint256"
				},
				{
					"indexed": false,
					"internalType": "uint256",
					"name": "newClosingTime",
					"type": "uint256"
				}
			],
			"name": "TimedCrowdsaleExtended",
			"type": "event"
		},
		{
			"anonymous": false,
			"inputs": [
				{
					"indexed": true,
					"internalType": "address",
					"name": "purchaser",
					"type": "address"
				},
				{
					"indexed": true,
					"internalType": "address",
					"name": "beneficiary",
					"type": "address"
				},
				{
					"indexed": false,
					"internalType": "uint256",
					"name": "value",
					"type": "uint256"
				},
				{
					"indexed": false,
					"internalType": "uint256",
					"name": "amount",
					"type": "uint256"
				}
			],
			"name": "TokensPurchased",
			"type": "event"
		},
		{
			"anonymous": false,
			"inputs": [
				{
					"indexed": true,
					"internalType": "address",
					"name": "account",
					"type": "address"
				}
			],
			"name": "WhitelistAdminAdded",
			"type": "event"
		},
		{
			"anonymous": false,
			"inputs": [
				{
					"indexed": true,
					"internalType": "address",
					"name": "account",
					"type": "address"
				}
			],
			"name": "WhitelistAdminRemoved",
			"type": "event"
		},
		{
			"anonymous": false,
			"inputs": [
				{
					"indexed": true,
					"internalType": "address",
					"name": "account",
					"type": "address"
				}
			],
			"name": "WhitelistedAdded",
			"type": "event"
		},
		{
			"anonymous": false,
			"inputs": [
				{
					"indexed": true,
					"internalType": "address",
					"name": "account",
					"type": "address"
				}
			],
			"name": "WhitelistedRemoved",
			"type": "event"
		},
		{
			"payable": true,
			"stateMutability": "payable",
			"type": "fallback"
		},
		{
			"constant": false,
			"inputs": [
				{
					"internalType": "address",
					"name": "account",
					"type": "address"
				}
			],
			"name": "addWhitelistAdmin",
			"outputs": [],
			"payable": false,
			"stateMutability": "nonpayable",
			"type": "function"
		},
		{
			"constant": false,
			"inputs": [
				{
					"internalType": "address",
					"name": "account",
					"type": "address"
				}
			],
			"name": "addWhitelisted",
			"outputs": [],
			"payable": false,
			"stateMutability": "nonpayable",
			"type": "function"
		},
		{
			"constant": false,
			"inputs": [],
			"name": "burnUnsold",
			"outputs": [],
			"payable": false,
			"stateMutability": "nonpayable",
			"type": "function"
		},
		{
			"constant": false,
			"inputs": [
				{
					"internalType": "address",
					"name": "beneficiary",
					"type": "address"
				}
			],
			"name": "buyTokens",
			"outputs": [],
			"payable": true,
			"stateMutability": "payable",
			"type": "function"
		},
		{
			"constant": true,
			"inputs": [],
			"name": "cap",
			"outputs": [
				{
					"internalType": "uint256",
					"name": "",
					"type": "uint256"
				}
			],
			"payable": false,
			"stateMutability": "view",
			"type": "function"
		},
		{
			"constant": true,
			"inputs": [],
			"name": "capReached",
			"outputs": [
				{
					"internalType": "bool",
					"name": "",
					"type": "bool"
				}
			],
			"payable": false,
			"stateMutability": "view",
			"type": "function"
		},
		{
			"constant": true,
			"inputs": [],
			"name": "closingTime",
			"outputs": [
				{
					"internalType": "uint256",
					"name": "",
					"type": "uint256"
				}
			],
			"payable": false,
			"stateMutability": "view",
			"type": "function"
		},
		{
			"constant": true,
			"inputs": [
				{
					"internalType": "address",
					"name": "",
					"type": "address"
				}
			],
			"name": "contributions",
			"outputs": [
				{
					"internalType": "uint256",
					"name": "",
					"type": "uint256"
				}
			],
			"payable": false,
			"stateMutability": "view",
			"type": "function"
		},
		{
			"constant": true,
			"inputs": [
				{
					"internalType": "uint256",
					"name": "index",
					"type": "uint256"
				}
			],
			"name": "getBuyerDetails",
			"outputs": [
				{
					"internalType": "address",
					"name": "_beneficiaryAddress",
					"type": "address"
				},
				{
					"internalType": "address",
					"name": "_timeLockAddress1",
					"type": "address"
				},
				{
					"internalType": "address",
					"name": "_timeLockAddress2",
					"type": "address"
				},
				{
					"internalType": "address",
					"name": "_timeLockAddress3",
					"type": "address"
				}
			],
			"payable": false,
			"stateMutability": "view",
			"type": "function"
		},
		{
			"constant": true,
			"inputs": [],
			"name": "hasClosed",
			"outputs": [
				{
					"internalType": "bool",
					"name": "",
					"type": "bool"
				}
			],
			"payable": false,
			"stateMutability": "view",
			"type": "function"
		},
		{
			"constant": true,
			"inputs": [],
			"name": "investorHardCap",
			"outputs": [
				{
					"internalType": "uint256",
					"name": "",
					"type": "uint256"
				}
			],
			"payable": false,
			"stateMutability": "view",
			"type": "function"
		},
		{
			"constant": true,
			"inputs": [],
			"name": "investorMinCap",
			"outputs": [
				{
					"internalType": "uint256",
					"name": "",
					"type": "uint256"
				}
			],
			"payable": false,
			"stateMutability": "view",
			"type": "function"
		},
		{
			"constant": true,
			"inputs": [],
			"name": "isOpen",
			"outputs": [
				{
					"internalType": "bool",
					"name": "",
					"type": "bool"
				}
			],
			"payable": false,
			"stateMutability": "view",
			"type": "function"
		},
		{
			"constant": true,
			"inputs": [],
			"name": "isOwner",
			"outputs": [
				{
					"internalType": "bool",
					"name": "",
					"type": "bool"
				}
			],
			"payable": false,
			"stateMutability": "view",
			"type": "function"
		},
		{
			"constant": true,
			"inputs": [
				{
					"internalType": "address",
					"name": "account",
					"type": "address"
				}
			],
			"name": "isWhitelistAdmin",
			"outputs": [
				{
					"internalType": "bool",
					"name": "",
					"type": "bool"
				}
			],
			"payable": false,
			"stateMutability": "view",
			"type": "function"
		},
		{
			"constant": true,
			"inputs": [
				{
					"internalType": "address",
					"name": "account",
					"type": "address"
				}
			],
			"name": "isWhitelisted",
			"outputs": [
				{
					"internalType": "bool",
					"name": "",
					"type": "bool"
				}
			],
			"payable": false,
			"stateMutability": "view",
			"type": "function"
		},
		{
			"constant": false,
			"inputs": [
				{
					"internalType": "address",
					"name": "_beneficiary",
					"type": "address"
				},
				{
					"internalType": "uint256",
					"name": "_amount",
					"type": "uint256"
				}
			],
			"name": "newTokenTimeLock",
			"outputs": [],
			"payable": false,
			"stateMutability": "nonpayable",
			"type": "function"
		},
		{
			"constant": true,
			"inputs": [],
			"name": "openingTime",
			"outputs": [
				{
					"internalType": "uint256",
					"name": "",
					"type": "uint256"
				}
			],
			"payable": false,
			"stateMutability": "view",
			"type": "function"
		},
		{
			"constant": true,
			"inputs": [],
			"name": "owner",
			"outputs": [
				{
					"internalType": "address",
					"name": "",
					"type": "address"
				}
			],
			"payable": false,
			"stateMutability": "view",
			"type": "function"
		},
		{
			"constant": true,
			"inputs": [],
			"name": "rate",
			"outputs": [
				{
					"internalType": "uint256",
					"name": "",
					"type": "uint256"
				}
			],
			"payable": false,
			"stateMutability": "view",
			"type": "function"
		},
		{
			"constant": false,
			"inputs": [
				{
					"internalType": "address",
					"name": "account",
					"type": "address"
				}
			],
			"name": "removeWhitelisted",
			"outputs": [],
			"payable": false,
			"stateMutability": "nonpayable",
			"type": "function"
		},
		{
			"constant": false,
			"inputs": [],
			"name": "renounceOwnership",
			"outputs": [],
			"payable": false,
			"stateMutability": "nonpayable",
			"type": "function"
		},
		{
			"constant": false,
			"inputs": [],
			"name": "renounceWhitelistAdmin",
			"outputs": [],
			"payable": false,
			"stateMutability": "nonpayable",
			"type": "function"
		},
		{
			"constant": false,
			"inputs": [],
			"name": "renounceWhitelisted",
			"outputs": [],
			"payable": false,
			"stateMutability": "nonpayable",
			"type": "function"
		},
		{
			"constant": true,
			"inputs": [],
			"name": "token",
			"outputs": [
				{
					"internalType": "contract IERC20",
					"name": "",
					"type": "address"
				}
			],
			"payable": false,
			"stateMutability": "view",
			"type": "function"
		},
		{
			"constant": true,
			"inputs": [],
			"name": "totalBuyers",
			"outputs": [
				{
					"internalType": "uint256",
					"name": "count",
					"type": "uint256"
				}
			],
			"payable": false,
			"stateMutability": "view",
			"type": "function"
		},
		{
			"constant": false,
			"inputs": [
				{
					"internalType": "address",
					"name": "newOwner",
					"type": "address"
				}
			],
			"name": "transferOwnership",
			"outputs": [],
			"payable": false,
			"stateMutability": "nonpayable",
			"type": "function"
		},
		{
			"constant": true,
			"inputs": [],
			"name": "wallet",
			"outputs": [
				{
					"internalType": "address payable",
					"name": "",
					"type": "address"
				}
			],
			"payable": false,
			"stateMutability": "view",
			"type": "function"
		},
		{
			"constant": true,
			"inputs": [],
			"name": "weiRaised",
			"outputs": [
				{
					"internalType": "uint256",
					"name": "",
					"type": "uint256"
				}
			],
			"payable": false,
			"stateMutability": "view",
			"type": "function"
		}
	]
}